{
  "address": "0x5FbDB2315678afecb367f032d93F642f64180aa3",
  "abi": [
    {
      "inputs": [],
      "stateMutability": "nonpayable",
      "type": "constructor"
    },
    {
      "inputs": [
        {
          "internalType": "address",
          "name": "sender",
          "type": "address"
        },
        {
          "internalType": "uint256",
          "name": "tokenId",
          "type": "uint256"
        },
        {
          "internalType": "address",
          "name": "owner",
          "type": "address"
        }
      ],
      "name": "ERC721IncorrectOwner",
      "type": "error"
    },
    {
      "inputs": [
        {
          "internalType": "address",
          "name": "operator",
          "type": "address"
        },
        {
          "internalType": "uint256",
          "name": "tokenId",
          "type": "uint256"
        }
      ],
      "name": "ERC721InsufficientApproval",
      "type": "error"
    },
    {
      "inputs": [
        {
          "internalType": "address",
          "name": "approver",
          "type": "address"
        }
      ],
      "name": "ERC721InvalidApprover",
      "type": "error"
    },
    {
      "inputs": [
        {
          "internalType": "address",
          "name": "operator",
          "type": "address"
        }
      ],
      "name": "ERC721InvalidOperator",
      "type": "error"
    },
    {
      "inputs": [
        {
          "internalType": "address",
          "name": "owner",
          "type": "address"
        }
      ],
      "name": "ERC721InvalidOwner",
      "type": "error"
    },
    {
      "inputs": [
        {
          "internalType": "address",
          "name": "receiver",
          "type": "address"
        }
      ],
      "name": "ERC721InvalidReceiver",
      "type": "error"
    },
    {
      "inputs": [
        {
          "internalType": "address",
          "name": "sender",
          "type": "address"
        }
      ],
      "name": "ERC721InvalidSender",
      "type": "error"
    },
    {
      "inputs": [
        {
          "internalType": "uint256",
          "name": "tokenId",
          "type": "uint256"
        }
      ],
      "name": "ERC721NonexistentToken",
      "type": "error"
    },
    {
      "anonymous": false,
      "inputs": [
        {
          "indexed": true,
          "internalType": "address",
          "name": "owner",
          "type": "address"
        },
        {
          "indexed": true,
          "internalType": "address",
          "name": "approved",
          "type": "address"
        },
        {
          "indexed": true,
          "internalType": "uint256",
          "name": "tokenId",
          "type": "uint256"
        }
      ],
      "name": "Approval",
      "type": "event"
    },
    {
      "anonymous": false,
      "inputs": [
        {
          "indexed": true,
          "internalType": "address",
          "name": "owner",
          "type": "address"
        },
        {
          "indexed": true,
          "internalType": "address",
          "name": "operator",
          "type": "address"
        },
        {
          "indexed": false,
          "internalType": "bool",
          "name": "approved",
          "type": "bool"
        }
      ],
      "name": "ApprovalForAll",
      "type": "event"
    },
    {
      "anonymous": false,
      "inputs": [
        {
          "indexed": false,
          "internalType": "uint256",
          "name": "projectId",
          "type": "uint256"
        },
        {
          "indexed": false,
          "internalType": "address",
          "name": "recipient",
          "type": "address"
        },
        {
          "indexed": false,
          "internalType": "uint256",
          "name": "amount",
          "type": "uint256"
        }
      ],
      "name": "ProjectEnded",
      "type": "event"
    },
    {
      "anonymous": false,
      "inputs": [
        {
          "indexed": true,
          "internalType": "address",
          "name": "from",
          "type": "address"
        },
        {
          "indexed": true,
          "internalType": "address",
          "name": "to",
          "type": "address"
        },
        {
          "indexed": true,
          "internalType": "uint256",
          "name": "tokenId",
          "type": "uint256"
        }
      ],
      "name": "Transfer",
      "type": "event"
    },
    {
      "inputs": [
        {
          "internalType": "uint256",
          "name": "projectId",
          "type": "uint256"
        },
        {
          "internalType": "address",
          "name": "studentAddress",
          "type": "address"
        }
      ],
      "name": "addStudentToProjectWhitelist",
      "outputs": [],
      "stateMutability": "nonpayable",
      "type": "function"
    },
    {
      "inputs": [
        {
          "internalType": "uint256",
          "name": "projectId",
          "type": "uint256"
        },
        {
          "internalType": "address",
          "name": "verifierAddress",
          "type": "address"
        }
      ],
      "name": "addVerifierToProject",
      "outputs": [],
      "stateMutability": "nonpayable",
      "type": "function"
    },
    {
      "inputs": [
        {
          "internalType": "address",
          "name": "to",
          "type": "address"
        },
        {
          "internalType": "uint256",
          "name": "tokenId",
          "type": "uint256"
        }
      ],
      "name": "approve",
      "outputs": [],
      "stateMutability": "nonpayable",
      "type": "function"
    },
    {
      "inputs": [
        {
          "internalType": "address",
          "name": "owner",
          "type": "address"
        }
      ],
      "name": "balanceOf",
      "outputs": [
        {
          "internalType": "uint256",
          "name": "",
          "type": "uint256"
        }
      ],
      "stateMutability": "view",
      "type": "function"
    },
    {
      "inputs": [
        {
          "internalType": "string",
          "name": "title",
          "type": "string"
        },
        {
          "internalType": "string",
          "name": "description",
          "type": "string"
        },
        {
          "internalType": "uint256",
          "name": "deadlineTimestamp",
          "type": "uint256"
        },
        {
          "internalType": "bool",
          "name": "isPublic",
          "type": "bool"
        }
      ],
      "name": "createProject",
      "outputs": [],
      "stateMutability": "payable",
      "type": "function"
    },
    {
      "inputs": [
        {
          "internalType": "uint256",
          "name": "projectId",
          "type": "uint256"
        }
      ],
      "name": "endProject",
      "outputs": [],
      "stateMutability": "nonpayable",
      "type": "function"
    },
    {
      "inputs": [
        {
          "internalType": "uint256",
          "name": "achievementId",
          "type": "uint256"
        }
      ],
      "name": "getAchievementById",
      "outputs": [
        {
          "components": [
            {
              "internalType": "uint256",
              "name": "achievementId",
              "type": "uint256"
            },
            {
              "internalType": "string",
              "name": "description",
              "type": "string"
            },
            {
              "internalType": "bool",
              "name": "isAchievement",
              "type": "bool"
            },
            {
              "internalType": "address",
              "name": "studentWallet",
              "type": "address"
            },
            {
              "internalType": "uint256",
              "name": "projectId",
              "type": "uint256"
            },
            {
              "internalType": "uint256",
              "name": "verifiedCount",
              "type": "uint256"
            },
            {
              "internalType": "bool",
              "name": "isVerified",
              "type": "bool"
            },
            {
              "internalType": "uint256",
              "name": "nftTokenId",
              "type": "uint256"
            }
          ],
          "internalType": "struct Achievement",
          "name": "",
          "type": "tuple"
        }
      ],
      "stateMutability": "view",
      "type": "function"
    },
    {
      "inputs": [],
      "name": "getAllMyAchievementsForStudent",
      "outputs": [
        {
          "components": [
            {
              "internalType": "uint256",
              "name": "achievementId",
              "type": "uint256"
            },
            {
              "internalType": "string",
              "name": "description",
              "type": "string"
            },
            {
              "internalType": "bool",
              "name": "isAchievement",
              "type": "bool"
            },
            {
              "internalType": "address",
              "name": "studentWallet",
              "type": "address"
            },
            {
              "internalType": "uint256",
              "name": "projectId",
              "type": "uint256"
            },
            {
              "internalType": "uint256",
              "name": "verifiedCount",
              "type": "uint256"
            },
            {
              "internalType": "bool",
              "name": "isVerified",
              "type": "bool"
            },
            {
              "internalType": "uint256",
              "name": "nftTokenId",
              "type": "uint256"
            }
          ],
          "internalType": "struct Achievement[]",
          "name": "",
          "type": "tuple[]"
        }
      ],
      "stateMutability": "view",
      "type": "function"
    },
    {
      "inputs": [],
      "name": "getAllProjects",
      "outputs": [
        {
          "components": [
            {
              "internalType": "uint256",
              "name": "projectId",
              "type": "uint256"
            },
            {
              "internalType": "string",
              "name": "title",
              "type": "string"
            },
            {
              "internalType": "string",
              "name": "description",
              "type": "string"
            },
            {
              "internalType": "uint256",
              "name": "deadlineTimestamp",
              "type": "uint256"
            },
            {
              "internalType": "address",
              "name": "owner",
              "type": "address"
            },
            {
              "internalType": "bool",
              "name": "isPublic",
              "type": "bool"
            },
            {
              "internalType": "uint256",
              "name": "requiredVerificationsCount",
              "type": "uint256"
            },
            {
              "internalType": "uint256",
              "name": "rewardAmount",
              "type": "uint256"
            },
            {
              "internalType": "bool",
              "name": "isFinished",
              "type": "bool"
            }
          ],
          "internalType": "struct Project[]",
          "name": "",
          "type": "tuple[]"
        }
      ],
      "stateMutability": "view",
      "type": "function"
    },
    {
      "inputs": [
        {
          "internalType": "uint256",
          "name": "tokenId",
          "type": "uint256"
        }
      ],
      "name": "getApproved",
      "outputs": [
        {
          "internalType": "address",
          "name": "",
          "type": "address"
        }
      ],
      "stateMutability": "view",
      "type": "function"
    },
    {
      "inputs": [],
      "name": "getMyOwnedProjects",
      "outputs": [
        {
          "components": [
            {
              "internalType": "uint256",
              "name": "projectId",
              "type": "uint256"
            },
            {
              "internalType": "string",
              "name": "title",
              "type": "string"
            },
            {
              "internalType": "string",
              "name": "description",
              "type": "string"
            },
            {
              "internalType": "uint256",
              "name": "deadlineTimestamp",
              "type": "uint256"
            },
            {
              "internalType": "address",
              "name": "owner",
              "type": "address"
            },
            {
              "internalType": "bool",
              "name": "isPublic",
              "type": "bool"
            },
            {
              "internalType": "uint256",
              "name": "requiredVerificationsCount",
              "type": "uint256"
            },
            {
              "internalType": "uint256",
              "name": "rewardAmount",
              "type": "uint256"
            },
            {
              "internalType": "bool",
              "name": "isFinished",
              "type": "bool"
            }
          ],
          "internalType": "struct Project[]",
          "name": "",
          "type": "tuple[]"
        }
      ],
      "stateMutability": "view",
      "type": "function"
    },
    {
      "inputs": [],
      "name": "getMyParticipatedProjects",
      "outputs": [
        {
          "components": [
            {
              "internalType": "uint256",
              "name": "projectId",
              "type": "uint256"
            },
            {
              "internalType": "string",
              "name": "title",
              "type": "string"
            },
            {
              "internalType": "string",
              "name": "description",
              "type": "string"
            },
            {
              "internalType": "uint256",
              "name": "deadlineTimestamp",
              "type": "uint256"
            },
            {
              "internalType": "address",
              "name": "owner",
              "type": "address"
            },
            {
              "internalType": "bool",
              "name": "isPublic",
              "type": "bool"
            },
            {
              "internalType": "uint256",
              "name": "requiredVerificationsCount",
              "type": "uint256"
            },
            {
              "internalType": "uint256",
              "name": "rewardAmount",
              "type": "uint256"
            },
            {
              "internalType": "bool",
              "name": "isFinished",
              "type": "bool"
            }
          ],
          "internalType": "struct Project[]",
          "name": "",
          "type": "tuple[]"
        }
      ],
      "stateMutability": "view",
      "type": "function"
    },
    {
      "inputs": [],
      "name": "getMyVerificationProjects",
      "outputs": [
        {
          "components": [
            {
              "internalType": "uint256",
              "name": "projectId",
              "type": "uint256"
            },
            {
              "internalType": "string",
              "name": "title",
              "type": "string"
            },
            {
              "internalType": "string",
              "name": "description",
              "type": "string"
            },
            {
              "internalType": "uint256",
              "name": "deadlineTimestamp",
              "type": "uint256"
            },
            {
              "internalType": "address",
              "name": "owner",
              "type": "address"
            },
            {
              "internalType": "bool",
              "name": "isPublic",
              "type": "bool"
            },
            {
              "internalType": "uint256",
              "name": "requiredVerificationsCount",
              "type": "uint256"
            },
            {
              "internalType": "uint256",
              "name": "rewardAmount",
              "type": "uint256"
            },
            {
              "internalType": "bool",
              "name": "isFinished",
              "type": "bool"
            }
          ],
          "internalType": "struct Project[]",
          "name": "",
          "type": "tuple[]"
        }
      ],
      "stateMutability": "view",
      "type": "function"
    },
    {
      "inputs": [
        {
          "internalType": "uint256",
          "name": "projectId",
          "type": "uint256"
        }
      ],
      "name": "getProjectStudents",
      "outputs": [
        {
          "components": [
            {
              "internalType": "address",
              "name": "wallet",
              "type": "address"
            },
            {
              "internalType": "uint256",
              "name": "achievements",
              "type": "uint256"
            }
          ],
          "internalType": "struct StudentProjectInfo[]",
          "name": "",
          "type": "tuple[]"
        }
      ],
      "stateMutability": "view",
      "type": "function"
    },
    {
      "inputs": [
        {
          "internalType": "uint256",
          "name": "projectId",
          "type": "uint256"
        }
      ],
      "name": "getProjectVerifiers",
      "outputs": [
        {
          "components": [
            {
              "internalType": "address",
              "name": "wallet",
              "type": "address"
            },
            {
              "internalType": "bool",
              "name": "isVerifier",
              "type": "bool"
            }
          ],
          "internalType": "struct Verifier[]",
          "name": "",
          "type": "tuple[]"
        }
      ],
      "stateMutability": "view",
      "type": "function"
    },
    {
      "inputs": [
        {
          "internalType": "uint256",
          "name": "projectId",
          "type": "uint256"
        }
      ],
      "name": "getUnverifiedAchievementsForVerifier",
      "outputs": [
        {
          "components": [
            {
              "internalType": "uint256",
              "name": "achievementId",
              "type": "uint256"
            },
            {
              "internalType": "string",
              "name": "description",
              "type": "string"
            },
            {
              "internalType": "bool",
              "name": "isAchievement",
              "type": "bool"
            },
            {
              "internalType": "address",
              "name": "studentWallet",
              "type": "address"
            },
            {
              "internalType": "uint256",
              "name": "projectId",
              "type": "uint256"
            },
            {
              "internalType": "uint256",
              "name": "verifiedCount",
              "type": "uint256"
            },
            {
              "internalType": "bool",
              "name": "isVerified",
              "type": "bool"
            },
            {
              "internalType": "uint256",
              "name": "nftTokenId",
              "type": "uint256"
            }
          ],
          "internalType": "struct Achievement[]",
          "name": "",
          "type": "tuple[]"
        }
      ],
      "stateMutability": "view",
      "type": "function"
    },
    {
      "inputs": [
        {
          "internalType": "uint256",
          "name": "projectId",
          "type": "uint256"
        }
      ],
      "name": "getVerifiedAchievementsForVerifier",
      "outputs": [
        {
          "components": [
            {
              "internalType": "uint256",
              "name": "achievementId",
              "type": "uint256"
            },
            {
              "internalType": "string",
              "name": "description",
              "type": "string"
            },
            {
              "internalType": "bool",
              "name": "isAchievement",
              "type": "bool"
            },
            {
              "internalType": "address",
              "name": "studentWallet",
              "type": "address"
            },
            {
              "internalType": "uint256",
              "name": "projectId",
              "type": "uint256"
            },
            {
              "internalType": "uint256",
              "name": "verifiedCount",
              "type": "uint256"
            },
            {
              "internalType": "bool",
              "name": "isVerified",
              "type": "bool"
            },
            {
              "internalType": "uint256",
              "name": "nftTokenId",
              "type": "uint256"
            }
          ],
          "internalType": "struct Achievement[]",
          "name": "",
          "type": "tuple[]"
        }
      ],
      "stateMutability": "view",
      "type": "function"
    },
    {
      "inputs": [
        {
          "internalType": "address",
          "name": "owner",
          "type": "address"
        },
        {
          "internalType": "address",
          "name": "operator",
          "type": "address"
        }
      ],
      "name": "isApprovedForAll",
      "outputs": [
        {
          "internalType": "bool",
          "name": "",
          "type": "bool"
        }
      ],
      "stateMutability": "view",
      "type": "function"
    },
    {
      "inputs": [],
      "name": "name",
      "outputs": [
        {
          "internalType": "string",
          "name": "",
          "type": "string"
        }
      ],
      "stateMutability": "view",
      "type": "function"
    },
    {
      "inputs": [
        {
          "internalType": "uint256",
          "name": "tokenId",
          "type": "uint256"
        }
      ],
      "name": "ownerOf",
      "outputs": [
        {
          "internalType": "address",
          "name": "",
          "type": "address"
        }
      ],
      "stateMutability": "view",
      "type": "function"
    },
    {
      "inputs": [
        {
          "internalType": "uint256",
          "name": "projectId",
          "type": "uint256"
        },
        {
          "internalType": "string",
          "name": "description",
          "type": "string"
        }
      ],
      "name": "postAchievement",
      "outputs": [],
      "stateMutability": "nonpayable",
      "type": "function"
    },
    {
      "inputs": [
        {
          "internalType": "uint256",
          "name": "projectId",
          "type": "uint256"
        }
      ],
      "name": "registerSelfStudent",
      "outputs": [],
      "stateMutability": "nonpayable",
      "type": "function"
    },
    {
      "inputs": [
        {
          "internalType": "address",
          "name": "from",
          "type": "address"
        },
        {
          "internalType": "address",
          "name": "to",
          "type": "address"
        },
        {
          "internalType": "uint256",
          "name": "tokenId",
          "type": "uint256"
        }
      ],
      "name": "safeTransferFrom",
      "outputs": [],
      "stateMutability": "nonpayable",
      "type": "function"
    },
    {
      "inputs": [
        {
          "internalType": "address",
          "name": "from",
          "type": "address"
        },
        {
          "internalType": "address",
          "name": "to",
          "type": "address"
        },
        {
          "internalType": "uint256",
          "name": "tokenId",
          "type": "uint256"
        },
        {
          "internalType": "bytes",
          "name": "data",
          "type": "bytes"
        }
      ],
      "name": "safeTransferFrom",
      "outputs": [],
      "stateMutability": "nonpayable",
      "type": "function"
    },
    {
      "inputs": [
        {
          "internalType": "address",
          "name": "operator",
          "type": "address"
        },
        {
          "internalType": "bool",
          "name": "approved",
          "type": "bool"
        }
      ],
      "name": "setApprovalForAll",
      "outputs": [],
      "stateMutability": "nonpayable",
      "type": "function"
    },
    {
      "inputs": [
        {
          "internalType": "bytes4",
          "name": "interfaceId",
          "type": "bytes4"
        }
      ],
      "name": "supportsInterface",
      "outputs": [
        {
          "internalType": "bool",
          "name": "",
          "type": "bool"
        }
      ],
      "stateMutability": "view",
      "type": "function"
    },
    {
      "inputs": [],
      "name": "symbol",
      "outputs": [
        {
          "internalType": "string",
          "name": "",
          "type": "string"
        }
      ],
      "stateMutability": "view",
      "type": "function"
    },
    {
      "inputs": [
        {
          "internalType": "uint256",
          "name": "tokenId",
          "type": "uint256"
        }
      ],
      "name": "tokenURI",
      "outputs": [
        {
          "internalType": "string",
          "name": "",
          "type": "string"
        }
      ],
      "stateMutability": "view",
      "type": "function"
    },
    {
      "inputs": [
        {
          "internalType": "address",
          "name": "from",
          "type": "address"
        },
        {
          "internalType": "address",
          "name": "to",
          "type": "address"
        },
        {
          "internalType": "uint256",
          "name": "tokenId",
          "type": "uint256"
        }
      ],
      "name": "transferFrom",
      "outputs": [],
      "stateMutability": "nonpayable",
      "type": "function"
    },
    {
      "inputs": [
        {
          "internalType": "uint256",
          "name": "projectId",
          "type": "uint256"
        },
        {
          "internalType": "uint256",
          "name": "achievementId",
          "type": "uint256"
        }
      ],
      "name": "verify",
      "outputs": [],
      "stateMutability": "nonpayable",
      "type": "function"
    }
  ],
  "transactionHash": "0xef1fad5e50298673b36c458f7194e2226dcc92b7f0987cbc51f6738579e857e6",
  "args": [],
  "numDeployments": 1,
  "solcInputHash": "f2277afbb8212780d17c3af9d3e8de82",
  "bytecode": "0x6080604052600060185560006019553480156200001b57600080fd5b506040518060400160405280601681526020017f416368696576656d656e7443657274696669636174650000000000000000000081525060405180604001604052806002815260200161414360f01b81525081600090816200007e91906200013b565b5060016200008d82826200013b565b50505062000207565b634e487b7160e01b600052604160045260246000fd5b600181811c90821680620000c157607f821691505b602082108103620000e257634e487b7160e01b600052602260045260246000fd5b50919050565b601f8211156200013657600081815260208120601f850160051c81016020861015620001115750805b601f850160051c820191505b8181101562000132578281556001016200011d565b5050505b505050565b81516001600160401b0381111562000157576200015762000096565b6200016f81620001688454620000ac565b84620000e8565b602080601f831160018114620001a757600084156200018e5750858301515b600019600386901b1c1916600185901b17855562000132565b600085815260208120601f198616915b82811015620001d857888601518255948401946001909101908401620001b7565b5085821015620001f75787850151600019600388901b60f8161c191681555b5050505050600190811b01905550565b614b5680620002176000396000f3fe6080604052600436106101cd5760003560e01c8063744bc369116100f7578063b04c976011610095578063cf26d34411610064578063cf26d34414610550578063d688af8c14610570578063e985e9c514610583578063f8451d5f146105a357600080fd5b8063b04c9760146104c3578063b8689125146104e3578063b88d4fde14610510578063c87b56dd1461053057600080fd5b80638ed988d1116100d15780638ed988d11461044157806395d89b411461046e578063a22cb46514610483578063aabedf1c146104a357600080fd5b8063744bc369146103df57806375bab5b2146103ff57806380d038291461042c57600080fd5b806341161b101161016f5780635e7ced731161013e5780635e7ced731461035c5780636352211e1461037157806370a082311461039157806370e5688c146103bf57600080fd5b806341161b10146102da57806342842e0e146102fa5780634dcc0a151461031a5780635b6c0f3b1461033a57600080fd5b8063095ea7b3116101ab578063095ea7b31461026157806323b872dd14610283578063373c7c7b146102a35780633cad8234146102c557600080fd5b806301ffc9a7146101d257806306fdde0314610207578063081812fc14610229575b600080fd5b3480156101de57600080fd5b506101f26101ed3660046141d6565b6105c3565b60405190151581526020015b60405180910390f35b34801561021357600080fd5b5061021c610615565b6040516101fe9190614243565b34801561023557600080fd5b50610249610244366004614256565b6106a7565b6040516001600160a01b0390911681526020016101fe565b34801561026d57600080fd5b5061028161027c36600461428b565b6106d0565b005b34801561028f57600080fd5b5061028161029e3660046142b5565b6106df565b3480156102af57600080fd5b506102b861076f565b6040516101fe91906142f1565b3480156102d157600080fd5b506102b8610a57565b3480156102e657600080fd5b506102816102f53660046143d5565b610d0b565b34801561030657600080fd5b506102816103153660046142b5565b611020565b34801561032657600080fd5b506102816103353660046143f7565b611040565b34801561034657600080fd5b5061034f6113c1565b6040516101fe9190614498565b34801561036857600080fd5b506102b86115ae565b34801561037d57600080fd5b5061024961038c366004614256565b61187a565b34801561039d57600080fd5b506103b16103ac3660046144fa565b611885565b6040519081526020016101fe565b3480156103cb57600080fd5b5061034f6103da366004614256565b6118cd565b3480156103eb57600080fd5b506102816103fa366004614256565b611b21565b34801561040b57600080fd5b5061041f61041a366004614256565b611fae565b6040516101fe9190614515565b34801561043857600080fd5b506102b86120d6565b34801561044d57600080fd5b5061046161045c366004614256565b6122be565b6040516101fe9190614528565b34801561047a57600080fd5b5061021c612451565b34801561048f57600080fd5b5061028161049e366004614590565b612460565b3480156104af57600080fd5b5061034f6104be366004614256565b61246b565b3480156104cf57600080fd5b506102816104de3660046143f7565b6126b9565b3480156104ef57600080fd5b506105036104fe366004614256565b6128a4565b6040516101fe91906145ba565b34801561051c57600080fd5b5061028161052b366004614692565b612a7d565b34801561053c57600080fd5b5061021c61054b366004614256565b612a95565b34801561055c57600080fd5b5061028161056b36600461472d565b612b0a565b61028161057e366004614773565b6131e9565b34801561058f57600080fd5b506101f261059e3660046147f0565b613385565b3480156105af57600080fd5b506102816105be366004614256565b6133b3565b60006001600160e01b031982166380ac58cd60e01b14806105f457506001600160e01b03198216635b5e139f60e01b145b8061060f57506301ffc9a760e01b6001600160e01b03198316145b92915050565b6060600080546106249061481a565b80601f01602080910402602001604051908101604052809291908181526020018280546106509061481a565b801561069d5780601f106106725761010080835404028352916020019161069d565b820191906000526020600020905b81548152906001019060200180831161068057829003601f168201915b5050505050905090565b60006106b282613603565b506000828152600460205260409020546001600160a01b031661060f565b6106db82823361363c565b5050565b6001600160a01b03821661070e57604051633250574960e11b8152600060048201526024015b60405180910390fd5b600061071b838333613649565b9050836001600160a01b0316816001600160a01b031614610769576040516364283d7b60e01b81526001600160a01b0380861660048301526024820184905282166044820152606401610705565b50505050565b3360009081526010602052604090205460609015610a2057336000908152601060205260408120546001600160401b038111156107ae576107ae614607565b6040519080825280602002602001820160405280156107e757816020015b6107d4614115565b8152602001906001900390816107cc5790505b50905060006107f4614115565b60005b600854811015610a1757600881815481106108145761081461484e565b906000526020600020906008020160405180610120016040529081600082015481526020016001820180546108489061481a565b80601f01602080910402602001604051908101604052809291908181526020018280546108749061481a565b80156108c15780601f10610896576101008083540402835291602001916108c1565b820191906000526020600020905b8154815290600101906020018083116108a457829003601f168201915b505050505081526020016002820180546108da9061481a565b80601f01602080910402602001604051908101604052809291908181526020018280546109069061481a565b80156109535780601f1061092857610100808354040283529160200191610953565b820191906000526020600020905b81548152906001019060200180831161093657829003601f168201915b5050509183525050600382015460208083019190915260048301546001600160a01b038116604080850191909152600160a01b90910460ff9081161515606085015260058501546080850152600685015460a08501526007909401548416151560c09093019290925283516000908152600f825282812033825290915220549193501615610a05578184846109e78161487a565b9550815181106109f9576109f961484e565b60200260200101819052505b80610a0f8161487a565b9150506107f7565b50919392505050565b6040805160008082526020820190925290610a51565b610a3e614115565b815260200190600190039081610a365790505b50905090565b3360009081526011602052604090205460609015610a2057336000908152601160205260408120546001600160401b03811115610a9657610a96614607565b604051908082528060200260200182016040528015610acf57816020015b610abc614115565b815260200190600190039081610ab45790505b5090506000610adc614115565b60005b600854811015610a175760088181548110610afc57610afc61484e565b90600052602060002090600802016040518061012001604052908160008201548152602001600182018054610b309061481a565b80601f0160208091040260200160405190810160405280929190818152602001828054610b5c9061481a565b8015610ba95780601f10610b7e57610100808354040283529160200191610ba9565b820191906000526020600020905b815481529060010190602001808311610b8c57829003601f168201915b50505050508152602001600282018054610bc29061481a565b80601f0160208091040260200160405190810160405280929190818152602001828054610bee9061481a565b8015610c3b5780601f10610c1057610100808354040283529160200191610c3b565b820191906000526020600020905b815481529060010190602001808311610c1e57829003601f168201915b50505091835250506003820154602082015260048201546001600160a01b038082166040840152600160a01b90910460ff908116151560608401526005840154608080850191909152600685015460a085015260079094015416151560c0909201919091529082015191935033911603610cd957818484610cbb8161487a565b955081518110610ccd57610ccd61484e565b60200260200101819052505b80610ce38161487a565b915050610adf565b610cf3614115565b815260200190600190039081610ceb57905050905090565b6000828152600d60209081526040808320338452909152902054829060ff161515600114610d4b5760405162461bcd60e51b815260040161070590614893565b336000908152600e6020908152604080832085845290915290205460ff1615610dc95760405162461bcd60e51b815260206004820152602a60248201527f596f75206861766520616c72656164792076657269666965642074686973206160448201526918da1a595d995b595b9d60b21b6064820152608401610705565b60098281548110610ddc57610ddc61484e565b600091825260209091206005600790920201015460ff1615610e4e5760405162461bcd60e51b815260206004820152602560248201527f5468697320616368696576656d656e7420697320616c726561647920766572696044820152643334b2b21760d91b6064820152608401610705565b600060098381548110610e6357610e6361484e565b90600052602060002090600702019050806004016000815480929190610e889061487a565b9091555050336000908152601460205260408120805491610ea88361487a565b9091555050336000908152601360205260408120805491610ec883614906565b9091555050336000908152600e602090815260408083208684529091529020805460ff191660011790556002810154600880546101009092046001600160a01b03169186908110610f1b57610f1b61484e565b9060005260206000209060080201600501548260040154036110195760058201805460ff191660011790556001600160a01b03811660009081526016602090815260408083208884529091528120805491610f758361487a565b9190505550610f8381613742565b601a8054600090815260176020908152604080832088905592546006860155878252600b8152828220546001600160a01b038516835260168252838320898452909152919020541115611019576000858152600a6020908152604080832080546001600160a01b0319166001600160a01b038616908117909155835260168252808320888452825280832054600b909252909120555b5050505050565b61103b83838360405180602001604052806000815250612a7d565b505050565b816000600882815481106110565761105661484e565b9060005260206000209060080201604051806101200160405290816000820154815260200160018201805461108a9061481a565b80601f01602080910402602001604051908101604052809291908181526020018280546110b69061481a565b80156111035780601f106110d857610100808354040283529160200191611103565b820191906000526020600020905b8154815290600101906020018083116110e657829003601f168201915b5050505050815260200160028201805461111c9061481a565b80601f01602080910402602001604051908101604052809291908181526020018280546111489061481a565b80156111955780601f1061116a57610100808354040283529160200191611195565b820191906000526020600020905b81548152906001019060200180831161117857829003601f168201915b50505091835250506003820154602082015260048201546001600160a01b03808216604084015260ff600160a01b9092048216151560608401526005840154608080850191909152600685015460a0850152600790940154909116151560c090920191909152908201519192501633146112215760405162461bcd60e51b81526004016107059061491d565b6000848152600d602090815260408083206001600160a01b038716845290915290205460ff16156112ba5760405162461bcd60e51b815260206004820152603b60248201527f566572696669657220776974682073756368206164647265737320666f72207460448201527f6869732070726f6a65637420616c7265616479206578697374732e00000000006064820152608401610705565b604080518082019091526001600160a01b03808516825260016020830181815260078054928301815560005292517fa66cc928b5edb82af9bd49922954155ab7b0942694bea4ce44661d9a8736c688909101805493511515600160a01b026001600160a81b0319909416919092161791909117905560088054859081106113435761134361484e565b6000918252602082206005600890920201018054916113618361487a565b90915550506001600160a01b038316600090815260126020526040812080549161138a8361487a565b909155505050600092835250600d602090815260408084206001600160a01b0390931684529190529020805460ff19166001179055565b33600090815260156020526040812054606091906001600160401b038111156113ec576113ec614607565b60405190808252806020026020018201604052801561142557816020015b61141261416e565b81526020019060019003908161140a5790505b509050600061143261416e565b60005b600954811015610a1757600981815481106114525761145261484e565b906000526020600020906007020160405180610100016040529081600082015481526020016001820180546114869061481a565b80601f01602080910402602001604051908101604052809291908181526020018280546114b29061481a565b80156114ff5780601f106114d4576101008083540402835291602001916114ff565b820191906000526020600020905b8154815290600101906020018083116114e257829003601f168201915b5050509183525050600282015460ff808216151560208401526001600160a01b03610100909204821660408401526003840154606080850191909152600485015460808501526005850154909116151560a084015260069093015460c090920191909152908201519193503391160361159c5781848461157e8161487a565b9550815181106115905761159061484e565b60200260200101819052505b806115a68161487a565b915050611435565b3360009081526012602052604090205460609015610a2057336000908152601260205260408120546001600160401b038111156115ed576115ed614607565b60405190808252806020026020018201604052801561162657816020015b611613614115565b81526020019060019003908161160b5790505b5090506000611633614115565b60005b600854811015610a1757600881815481106116535761165361484e565b906000526020600020906008020160405180610120016040529081600082015481526020016001820180546116879061481a565b80601f01602080910402602001604051908101604052809291908181526020018280546116b39061481a565b80156117005780601f106116d557610100808354040283529160200191611700565b820191906000526020600020905b8154815290600101906020018083116116e357829003601f168201915b505050505081526020016002820180546117199061481a565b80601f01602080910402602001604051908101604052809291908181526020018280546117459061481a565b80156117925780601f1061176757610100808354040283529160200191611792565b820191906000526020600020905b81548152906001019060200180831161177557829003601f168201915b5050509183525050600382015460208083019190915260048301546001600160a01b038116604080850191909152600160a01b90910460ff9081161515606085015260058501546080850152600685015460a08501526007909401548416151560c09093019290925283516000908152600d825282812033825290915220549193501615156001036118485781848461182a8161487a565b95508151811061183c5761183c61484e565b60200260200101819052505b806118528161487a565b915050611636565b611862614115565b81526020019060019003908161185a57905050905090565b600061060f82613603565b60006001600160a01b0382166118b1576040516322718ad960e21b815260006004820152602401610705565b506001600160a01b031660009081526003602052604090205490565b6000818152600d60209081526040808320338452909152902054606090829060ff1615156001146119105760405162461bcd60e51b815260040161070590614893565b336000908152601460205260408120546001600160401b0381111561193757611937614607565b60405190808252806020026020018201604052801561197057816020015b61195d61416e565b8152602001906001900390816119555790505b509050600061197d61416e565b60005b600954811015611b14576009818154811061199d5761199d61484e565b906000526020600020906007020160405180610100016040529081600082015481526020016001820180546119d19061481a565b80601f01602080910402602001604051908101604052809291908181526020018280546119fd9061481a565b8015611a4a5780601f10611a1f57610100808354040283529160200191611a4a565b820191906000526020600020905b815481529060010190602001808311611a2d57829003601f168201915b5050509183525050600282015460ff808216151560208401526101009091046001600160a01b031660408301526003830154606083015260048301546080808401919091526005840154909116151560a083015260069092015460c09091015281015190925087148015611ade5750336000908152600e602090815260408083208551845290915290205460ff1615156001145b15611b025781848481518110611af657611af661484e565b60200260200101819052505b80611b0c8161487a565b915050611980565b5091935050505b50919050565b80600060088281548110611b3757611b3761484e565b90600052602060002090600802016040518061012001604052908160008201548152602001600182018054611b6b9061481a565b80601f0160208091040260200160405190810160405280929190818152602001828054611b979061481a565b8015611be45780601f10611bb957610100808354040283529160200191611be4565b820191906000526020600020905b815481529060010190602001808311611bc757829003601f168201915b50505050508152602001600282018054611bfd9061481a565b80601f0160208091040260200160405190810160405280929190818152602001828054611c299061481a565b8015611c765780601f10611c4b57610100808354040283529160200191611c76565b820191906000526020600020905b815481529060010190602001808311611c5957829003601f168201915b50505091835250506003820154602082015260048201546001600160a01b03808216604084015260ff600160a01b9092048216151560608401526005840154608080850191909152600685015460a0850152600790940154909116151560c09092019190915290820151919250163314611d025760405162461bcd60e51b81526004016107059061491d565b600060088481548110611d1757611d1761484e565b906000526020600020906008020190506103e88160030154611d39919061494c565b421015611d7d5760405162461bcd60e51b815260206004820152601260248201527150726f6a6563742069732072756e6e696e6760701b6044820152606401610705565b60408051808201909152600b81526a46696e697368656420257360a81b60208201526007820154611db1919060ff16613766565b600781015460ff1615611e065760405162461bcd60e51b815260206004820152601860248201527f50726f6a65637420616c72656164792066696e697368656400000000000000006044820152606401610705565b6000848152600a6020908152604080832054600b90925282205460068401546001600160a01b03909216929091908115611f95578215611e47575082611e57565b5060048401546001600160a01b03165b81471015611ea75760405162461bcd60e51b815260206004820152601d60248201527f496e73756666696369656e7420636f6e74726163742062616c616e63650000006044820152606401610705565b6000816001600160a01b03168360405160006040518083038185875af1925050503d8060008114611ef4576040519150601f19603f3d011682016040523d82523d6000602084013e611ef9565b606091505b5050905080611f4a5760405162461bcd60e51b815260206004820152601960248201527f4661696c656420746f207472616e7366657220726577617264000000000000006044820152606401610705565b604080518a81526001600160a01b03841660208201529081018490527f6f450dd15c7f8dc8b36e9d112932f5d27e8e1cc8ffc3f469684899087f6914509060600160405180910390a1505b5050506007909101805460ff1916600117905550505050565b611fb661416e565b60098281548110611fc957611fc961484e565b90600052602060002090600702016040518061010001604052908160008201548152602001600182018054611ffd9061481a565b80601f01602080910402602001604051908101604052809291908181526020018280546120299061481a565b80156120765780601f1061204b57610100808354040283529160200191612076565b820191906000526020600020905b81548152906001019060200180831161205957829003601f168201915b5050509183525050600282015460ff808216151560208401526101009091046001600160a01b031660408301526003830154606083015260048301546080830152600583015416151560a082015260069091015460c09091015292915050565b60606008805480602002602001604051908101604052809291908181526020016000905b828210156122b5578382906000526020600020906008020160405180610120016040529081600082015481526020016001820180546121389061481a565b80601f01602080910402602001604051908101604052809291908181526020018280546121649061481a565b80156121b15780601f10612186576101008083540402835291602001916121b1565b820191906000526020600020905b81548152906001019060200180831161219457829003601f168201915b505050505081526020016002820180546121ca9061481a565b80601f01602080910402602001604051908101604052809291908181526020018280546121f69061481a565b80156122435780601f1061221857610100808354040283529160200191612243565b820191906000526020600020905b81548152906001019060200180831161222657829003601f168201915b5050509183525050600382015460208083019190915260048301546001600160a01b038116604084015260ff600160a01b90910481161515606084015260058401546080840152600684015460a0840152600790930154909216151560c09091015290825260019290920191016120fa565b50505050905090565b6000818152600c6020908152604080832080548251818502810185019093528083526060949383018282801561231d57602002820191906000526020600020905b81546001600160a01b031681526001909101906020018083116122ff575b50505050509050600081516001600160401b0381111561233f5761233f614607565b60405190808252806020026020018201604052801561238457816020015b604080518082019091526000808252602082015281526020019060019003908161235d5790505b50905060005b82518110156124495760405180604001604052808483815181106123b0576123b061484e565b60200260200101516001600160a01b03168152602001601660008685815181106123dc576123dc61484e565b60200260200101516001600160a01b03166001600160a01b0316815260200190815260200160002060008881526020019081526020016000205481525082828151811061242b5761242b61484e565b602002602001018190525080806124419061487a565b91505061238a565b509392505050565b6060600180546106249061481a565b6106db3383836137ab565b6000818152600d60209081526040808320338452909152902054606090829060ff1615156001146124ae5760405162461bcd60e51b815260040161070590614893565b336000908152601360205260408120546001600160401b038111156124d5576124d5614607565b60405190808252806020026020018201604052801561250e57816020015b6124fb61416e565b8152602001906001900390816124f35790505b509050600061251b61416e565b60005b600954811015611b14576009818154811061253b5761253b61484e565b9060005260206000209060070201604051806101000160405290816000820154815260200160018201805461256f9061481a565b80601f016020809104026020016040519081016040528092919081815260200182805461259b9061481a565b80156125e85780601f106125bd576101008083540402835291602001916125e8565b820191906000526020600020905b8154815290600101906020018083116125cb57829003601f168201915b5050509183525050600282015460ff808216151560208401526101009091046001600160a01b031660408301526003830154606083015260048301546080808401919091526005840154909116151560a083015260069092015460c090910152810151909250871480156126785750336000908152600e602090815260408083208551845290915290205460ff16155b156126a7578184846126898161487a565b95508151811061269b5761269b61484e565b60200260200101819052505b806126b18161487a565b91505061251e565b816000600882815481106126cf576126cf61484e565b906000526020600020906008020160405180610120016040529081600082015481526020016001820180546127039061481a565b80601f016020809104026020016040519081016040528092919081815260200182805461272f9061481a565b801561277c5780601f106127515761010080835404028352916020019161277c565b820191906000526020600020905b81548152906001019060200180831161275f57829003601f168201915b505050505081526020016002820180546127959061481a565b80601f01602080910402602001604051908101604052809291908181526020018280546127c19061481a565b801561280e5780601f106127e35761010080835404028352916020019161280e565b820191906000526020600020905b8154815290600101906020018083116127f157829003601f168201915b50505091835250506003820154602082015260048201546001600160a01b03808216604084015260ff600160a01b9092048216151560608401526005840154608080850191909152600685015460a0850152600790940154909116151560c0909201919091529082015191925016331461289a5760405162461bcd60e51b81526004016107059061491d565b610769848461384a565b60606000805b600754811015612926576000848152600d6020526040812060078054919291849081106128d9576128d961484e565b60009182526020808320909101546001600160a01b0316835282019290925260400190205460ff161561291457816129108161487a565b9250505b8061291e8161487a565b9150506128aa565b506000816001600160401b0381111561294157612941614607565b60405190808252806020026020018201604052801561298657816020015b604080518082019091526000808252602082015281526020019060019003908161295f5790505b5090506000805b600754811015612a73576000868152600d6020526040812060078054919291849081106129bc576129bc61484e565b60009182526020808320909101546001600160a01b0316835282019290925260400190205460ff1615612a6157600781815481106129fc576129fc61484e565b6000918252602091829020604080518082019091529101546001600160a01b0381168252600160a01b900460ff161515918101919091528351849084908110612a4757612a4761484e565b60200260200101819052508180612a5d9061487a565b9250505b80612a6b8161487a565b91505061298d565b5090949350505050565b612a888484846106df565b6107693385858585613bf0565b6060612aa082613603565b506000612ab860408051602081019091526000815290565b90506000815111612ad85760405180602001604052806000815250612b03565b80612ae284613d1a565b604051602001612af392919061496e565b6040516020818303038152906040525b9392505050565b81600060088281548110612b2057612b2061484e565b90600052602060002090600802016040518061012001604052908160008201548152602001600182018054612b549061481a565b80601f0160208091040260200160405190810160405280929190818152602001828054612b809061481a565b8015612bcd5780601f10612ba257610100808354040283529160200191612bcd565b820191906000526020600020905b815481529060010190602001808311612bb057829003601f168201915b50505050508152602001600282018054612be69061481a565b80601f0160208091040260200160405190810160405280929190818152602001828054612c129061481a565b8015612c5f5780601f10612c3457610100808354040283529160200191612c5f565b820191906000526020600020905b815481529060010190602001808311612c4257829003601f168201915b5050509183525050600382015460208083019190915260048301546001600160a01b038116604080850191909152600160a01b90910460ff9081161515606085015260058501546080850152600685015460a08501526007909401548416151560c0909301929092526000868152600f8252828120338252909152205491925060019116151514612d445760405162461bcd60e51b815260206004820152602960248201527f596f7520617265206e6f74207468652073747564656e7420666f72207468697360448201526810383937b532b1ba1760b91b6064820152608401610705565b600060088581548110612d5957612d5961484e565b90600052602060002090600802016040518061012001604052908160008201548152602001600182018054612d8d9061481a565b80601f0160208091040260200160405190810160405280929190818152602001828054612db99061481a565b8015612e065780601f10612ddb57610100808354040283529160200191612e06565b820191906000526020600020905b815481529060010190602001808311612de957829003601f168201915b50505050508152602001600282018054612e1f9061481a565b80601f0160208091040260200160405190810160405280929190818152602001828054612e4b9061481a565b8015612e985780601f10612e6d57610100808354040283529160200191612e98565b820191906000526020600020905b815481529060010190602001808311612e7b57829003601f168201915b50505091835250506003820154602082015260048201546001600160a01b038116604083015260ff600160a01b9091048116151560608084019190915260058401546080840152600684015460a084015260079093015416151560c0909101528101519091504290612f0d906103e89061494c565b811015612f5c5760405162461bcd60e51b815260206004820152601f60248201527f5468652070726f6a65637420646561646c696e652068617320706173736564006044820152606401610705565b604080518082019091526000808252602082015260005b6007548110156130295760078181548110612f9057612f9061484e565b6000918252602080832060408051808201825293909101546001600160a01b038082168552600160a01b90910460ff9081161515858501528d8652600d8452828620855190921686529252909220549093501615156001036130175781516001600160a01b031660009081526013602052604081208054916130118361487a565b91905055505b806130218161487a565b915050612f73565b5060136000600889815481106130415761304161484e565b60009182526020808320600460089093020191909101546001600160a01b03168352820192909252604001812080549161307a8361487a565b909155505060408051610100810182526019548152602081018881526001928201839052336060830152608082018a9052600060a0830181905260c0830181905260e083018190526009805494850181559052815160079093027f6e1540171b6c0c960b71a7020d9f60077f6af931a8bbf590da0223dacf75c7af810193845590519192917f6e1540171b6c0c960b71a7020d9f60077f6af931a8bbf590da0223dacf75c7b09091019061312e90826149e3565b5060408281015160028301805460608601516001600160a01b031661010002610100600160a81b0319931515939093166001600160a81b0319909116179190911790556080830151600383015560a0830151600483015560c083015160058301805491151560ff199290921691909117905560e09092015160069091015533600090815260156020529081208054916131c68361487a565b9091555050601980549060006131db8361487a565b919050555050505050505050565b6040805161012081018252601854808252602080830188815283850188905260608401879052336080850181905286151560a0860152600160c086018190523460e087015260006101008701819052948552600d84528685209185529252938220805460ff19168217905560088054918201815591829052825191027ff3f7a9fe364faab93b216da50a3214154f22a0a2b415b23a84c8169e8b636ee381019182559251919283927ff3f7a9fe364faab93b216da50a3214154f22a0a2b415b23a84c8169e8b636ee4909101906132c090826149e3565b50604082015160028201906132d590826149e3565b5060608201516003820155608082015160048201805460a08501516001600160a01b039093166001600160a81b031990911617600160a01b9215159290920291909117905560c0820151600582015560e08201516006820155610100909101516007909101805460ff19169115159190911790553360009081526011602052604081208054916133648361487a565b9091555050601880549060006133798361487a565b91905055505050505050565b6001600160a01b03918216600090815260056020908152604080832093909416825291909152205460ff1690565b6000600882815481106133c8576133c861484e565b906000526020600020906008020160405180610120016040529081600082015481526020016001820180546133fc9061481a565b80601f01602080910402602001604051908101604052809291908181526020018280546134289061481a565b80156134755780601f1061344a57610100808354040283529160200191613475565b820191906000526020600020905b81548152906001019060200180831161345857829003601f168201915b5050505050815260200160028201805461348e9061481a565b80601f01602080910402602001604051908101604052809291908181526020018280546134ba9061481a565b80156135075780601f106134dc57610100808354040283529160200191613507565b820191906000526020600020905b8154815290600101906020018083116134ea57829003601f168201915b50505091835250506003820154602082015260048201546001600160a01b038116604083015260ff600160a01b90910481161515606083015260058301546080830152600683015460a08084019190915260079093015416151560c0909101528101519091506135f95760405162461bcd60e51b815260206004820152605160248201527f596f7520646f6e60742068617665207065726d697373696f6e206f7220796f7560448201527f206d7573742062652061646465642062792070726f6a656374206f776e6572206064820152703a37903a3432903bb434ba32b634b9ba1760791b608482015260a401610705565b6106db823361384a565b6000818152600260205260408120546001600160a01b03168061060f57604051637e27328960e01b815260048101849052602401610705565b61103b8383836001613dac565b6000828152600260205260408120546001600160a01b039081169083161561367657613676818486613eb2565b6001600160a01b038116156136b457613693600085600080613dac565b6001600160a01b038116600090815260036020526040902080546000190190555b6001600160a01b038516156136e3576001600160a01b0385166000908152600360205260409020805460010190555b60008481526002602052604080822080546001600160a01b0319166001600160a01b0389811691821790925591518793918516917fddf252ad1be2c89b69c2b068fc378daa952ba7f163c4a11628f55a4df523b3ef91a4949350505050565b601a80549060006137528361487a565b919050555061376381601a54613f16565b50565b6106db828260405160240161377c929190614aa2565b60408051601f198184030181529190526020810180516001600160e01b031663c3b5563560e01b179052613f30565b6001600160a01b0382166137dd57604051630b61174360e31b81526001600160a01b0383166004820152602401610705565b6001600160a01b03838116600081815260056020908152604080832094871680845294825291829020805460ff191686151590811790915591519182527f17307eab39ab6107e8899845ad3d59bd9653f200f220920489ca2b5937696c31910160405180910390a3505050565b81816000600883815481106138615761386161484e565b906000526020600020906008020160405180610120016040529081600082015481526020016001820180546138959061481a565b80601f01602080910402602001604051908101604052809291908181526020018280546138c19061481a565b801561390e5780601f106138e35761010080835404028352916020019161390e565b820191906000526020600020905b8154815290600101906020018083116138f157829003601f168201915b505050505081526020016002820180546139279061481a565b80601f01602080910402602001604051908101604052809291908181526020018280546139539061481a565b80156139a05780601f10613975576101008083540402835291602001916139a0565b820191906000526020600020905b81548152906001019060200180831161398357829003601f168201915b50505091835250506003820154602082015260048201546001600160a01b038082166040840152600160a01b90910460ff908116151560608401526005840154608080850191909152600685015460a085015260079094015416151560c09092019190915290820151919250838116911603613a5e5760405162461bcd60e51b815260206004820152601960248201527f596f7520617265207468652070726f6a656374206f776e6572000000000000006044820152606401610705565b6000858152600f602090815260408083206001600160a01b038816845290915290205460ff1615613b095760405162461bcd60e51b815260206004820152604960248201527f546869732073747564656e7420616c726561647920657869737473206f6e207460448201527f68652070726f6a656374206f72207468652070726f6a65637420646f6573206e60648201526837ba1032bc34b9ba1760b91b608482015260a401610705565b6001600160a01b038416600090815260066020526040812054600160a01b900460ff1615159003613bb0576040805180820182526001600160a01b03808716808352600160208085018281526000848152600683528781209651875492511515600160a01b026001600160a81b031990931696169590951717909455898352600c845293822080549485018155825291902090910180546001600160a01b03191690911790555b6000858152600f602090815260408083206001600160a01b03881684528252808320805460ff19166001179055601090915281208054916133798361487a565b6001600160a01b0383163b1561101957604051630a85bd0160e11b81526001600160a01b0384169063150b7a0290613c32908890889087908790600401614ac6565b6020604051808303816000875af1925050508015613c6d575060408051601f3d908101601f19168201909252613c6a91810190614b03565b60015b613cd6573d808015613c9b576040519150601f19603f3d011682016040523d82523d6000602084013e613ca0565b606091505b508051600003613cce57604051633250574960e11b81526001600160a01b0385166004820152602401610705565b805181602001fd5b6001600160e01b03198116630a85bd0160e11b14613d1257604051633250574960e11b81526001600160a01b0385166004820152602401610705565b505050505050565b60606000613d2783613f39565b60010190506000816001600160401b03811115613d4657613d46614607565b6040519080825280601f01601f191660200182016040528015613d70576020820181803683370190505b5090508181016020015b600019016f181899199a1a9b1b9c1cb0b131b232b360811b600a86061a8153600a8504945084613d7a57509392505050565b8080613dc057506001600160a01b03821615155b15613e82576000613dd084613603565b90506001600160a01b03831615801590613dfc5750826001600160a01b0316816001600160a01b031614155b8015613e0f5750613e0d8184613385565b155b15613e385760405163a9fbf51f60e01b81526001600160a01b0384166004820152602401610705565b8115613e805783856001600160a01b0316826001600160a01b03167f8c5be1e5ebec7d5bd14f71427d1e84f3dd0314c0f7b2291e5b200ac8c7c3b92560405160405180910390a45b505b5050600090815260046020526040902080546001600160a01b0319166001600160a01b0392909216919091179055565b613ebd838383614011565b61103b576001600160a01b038316613eeb57604051637e27328960e01b815260048101829052602401610705565b60405163177e802f60e01b81526001600160a01b038316600482015260248101829052604401610705565b6106db828260405180602001604052806000815250614077565b6137638161408f565b60008072184f03e93ff9f4daa797ed6e38ed64bf6a1f0160401b8310613f785772184f03e93ff9f4daa797ed6e38ed64bf6a1f0160401b830492506040015b6d04ee2d6d415b85acef81000000008310613fa4576d04ee2d6d415b85acef8100000000830492506020015b662386f26fc100008310613fc257662386f26fc10000830492506010015b6305f5e1008310613fda576305f5e100830492506008015b6127108310613fee57612710830492506004015b60648310614000576064830492506002015b600a831061060f5760010192915050565b60006001600160a01b0383161580159061406f5750826001600160a01b0316846001600160a01b0316148061404b575061404b8484613385565b8061406f57506000828152600460205260409020546001600160a01b038481169116145b949350505050565b61408183836140b0565b61103b336000858585613bf0565b60006a636f6e736f6c652e6c6f679050600080835160208501845afa505050565b6001600160a01b0382166140da57604051633250574960e11b815260006004820152602401610705565b60006140e883836000613649565b90506001600160a01b0381161561103b576040516339e3563760e11b815260006004820152602401610705565b6040518061012001604052806000815260200160608152602001606081526020016000815260200160006001600160a01b0316815260200160001515815260200160008152602001600081526020016000151581525090565b604051806101000160405280600081526020016060815260200160001515815260200160006001600160a01b031681526020016000815260200160008152602001600015158152602001600081525090565b6001600160e01b03198116811461376357600080fd5b6000602082840312156141e857600080fd5b8135612b03816141c0565b60005b8381101561420e5781810151838201526020016141f6565b50506000910152565b6000815180845261422f8160208601602086016141f3565b601f01601f19169290920160200192915050565b602081526000612b036020830184614217565b60006020828403121561426857600080fd5b5035919050565b80356001600160a01b038116811461428657600080fd5b919050565b6000806040838503121561429e57600080fd5b6142a78361426f565b946020939093013593505050565b6000806000606084860312156142ca57600080fd5b6142d38461426f565b92506142e16020850161426f565b9150604084013590509250925092565b60006020808301818452808551808352604092508286019150828160051b87010184880160005b838110156143c757603f1989840301855281516101208151855288820151818a87015261434782870182614217565b915050878201518582038987015261435f8282614217565b9150506060808301518187015250608080830151614387828801826001600160a01b03169052565b505060a08281015115159086015260c0808301519086015260e0808301519086015261010091820151151591909401529386019390860190600101614318565b509098975050505050505050565b600080604083850312156143e857600080fd5b50508035926020909101359150565b6000806040838503121561440a57600080fd5b8235915061441a6020840161426f565b90509250929050565b600061010082518452602083015181602086015261444382860182614217565b91505060408301511515604085015260018060a01b0360608401511660608501526080830151608085015260a083015160a085015260c0830151151560c085015260e083015160e08501528091505092915050565b6000602080830181845280855180835260408601915060408160051b870101925083870160005b828110156144ed57603f198886030184526144db858351614423565b945092850192908501906001016144bf565b5092979650505050505050565b60006020828403121561450c57600080fd5b612b038261426f565b602081526000612b036020830184614423565b602080825282518282018190526000919060409081850190868401855b8281101561457357815180516001600160a01b03168552860151868501529284019290850190600101614545565b5091979650505050505050565b8035801515811461428657600080fd5b600080604083850312156145a357600080fd5b6145ac8361426f565b915061441a60208401614580565b602080825282518282018190526000919060409081850190868401855b8281101561457357815180516001600160a01b0316855286015115158685015292840192908501906001016145d7565b634e487b7160e01b600052604160045260246000fd5b60006001600160401b038084111561463757614637614607565b604051601f8501601f19908116603f0116810190828211818310171561465f5761465f614607565b8160405280935085815286868601111561467857600080fd5b858560208301376000602087830101525050509392505050565b600080600080608085870312156146a857600080fd5b6146b18561426f565b93506146bf6020860161426f565b92506040850135915060608501356001600160401b038111156146e157600080fd5b8501601f810187136146f257600080fd5b6147018782356020840161461d565b91505092959194509250565b600082601f83011261471e57600080fd5b612b038383356020850161461d565b6000806040838503121561474057600080fd5b8235915060208301356001600160401b0381111561475d57600080fd5b6147698582860161470d565b9150509250929050565b6000806000806080858703121561478957600080fd5b84356001600160401b03808211156147a057600080fd5b6147ac8883890161470d565b955060208701359150808211156147c257600080fd5b506147cf8782880161470d565b935050604085013591506147e560608601614580565b905092959194509250565b6000806040838503121561480357600080fd5b61480c8361426f565b915061441a6020840161426f565b600181811c9082168061482e57607f821691505b602082108103611b1b57634e487b7160e01b600052602260045260246000fd5b634e487b7160e01b600052603260045260246000fd5b634e487b7160e01b600052601160045260246000fd5b60006001820161488c5761488c614864565b5060010190565b6020808252604d908201527f596f7520617265206e6f742074686520766572696669657220666f722074686960408201527f732070726f6a65637420616e642063616e6e6f7420766572696679207468697360608201526c1030b1b434b2bb32b6b2b73a1760991b608082015260a00190565b60008161491557614915614864565b506000190190565b6020808252601590820152742737ba103a343290383937b532b1ba1037bbb732b960591b604082015260600190565b60008261496957634e487b7160e01b600052601260045260246000fd5b500490565b600083516149808184602088016141f3565b8351908301906149948183602088016141f3565b01949350505050565b601f82111561103b57600081815260208120601f850160051c810160208610156149c45750805b601f850160051c820191505b81811015613d12578281556001016149d0565b81516001600160401b038111156149fc576149fc614607565b614a1081614a0a845461481a565b8461499d565b602080601f831160018114614a455760008415614a2d5750858301515b600019600386901b1c1916600185901b178555613d12565b600085815260208120601f198616915b82811015614a7457888601518255948401946001909101908401614a55565b5085821015614a925787850151600019600388901b60f8161c191681555b5050505050600190811b01905550565b604081526000614ab56040830185614217565b905082151560208301529392505050565b6001600160a01b0385811682528416602082015260408101839052608060608201819052600090614af990830184614217565b9695505050505050565b600060208284031215614b1557600080fd5b8151612b03816141c056fea264697066735822122006153c087969e20b1e6feaa1d47ecf313e94100e86950271f4548f2ead92435f64736f6c63430008140033",
  "devdoc": {
    "errors": {
      "ERC721IncorrectOwner(address,uint256,address)": [
        {
          "details": "Indicates an error related to the ownership over a particular token. Used in transfers.",
          "params": {
            "owner": "Address of the current owner of a token.",
            "sender": "Address whose tokens are being transferred.",
            "tokenId": "Identifier number of a token."
          }
        }
      ],
      "ERC721InsufficientApproval(address,uint256)": [
        {
          "details": "Indicates a failure with the `operator`s approval. Used in transfers.",
          "params": {
            "operator": "Address that may be allowed to operate on tokens without being their owner.",
            "tokenId": "Identifier number of a token."
          }
        }
      ],
      "ERC721InvalidApprover(address)": [
        {
          "details": "Indicates a failure with the `approver` of a token to be approved. Used in approvals.",
          "params": {
            "approver": "Address initiating an approval operation."
          }
        }
      ],
      "ERC721InvalidOperator(address)": [
        {
          "details": "Indicates a failure with the `operator` to be approved. Used in approvals.",
          "params": {
            "operator": "Address that may be allowed to operate on tokens without being their owner."
          }
        }
      ],
      "ERC721InvalidOwner(address)": [
        {
          "details": "Indicates that an address can't be an owner. For example, `address(0)` is a forbidden owner in ERC-20. Used in balance queries.",
          "params": {
            "owner": "Address of the current owner of a token."
          }
        }
      ],
      "ERC721InvalidReceiver(address)": [
        {
          "details": "Indicates a failure with the token `receiver`. Used in transfers.",
          "params": {
            "receiver": "Address to which tokens are being transferred."
          }
        }
      ],
      "ERC721InvalidSender(address)": [
        {
          "details": "Indicates a failure with the token `sender`. Used in transfers.",
          "params": {
            "sender": "Address whose tokens are being transferred."
          }
        }
      ],
      "ERC721NonexistentToken(uint256)": [
        {
          "details": "Indicates a `tokenId` whose `owner` is the zero address.",
          "params": {
            "tokenId": "Identifier number of a token."
          }
        }
      ]
    },
    "events": {
      "Approval(address,address,uint256)": {
        "details": "Emitted when `owner` enables `approved` to manage the `tokenId` token."
      },
      "ApprovalForAll(address,address,bool)": {
        "details": "Emitted when `owner` enables or disables (`approved`) `operator` to manage all of its assets."
      },
      "Transfer(address,address,uint256)": {
        "details": "Emitted when `tokenId` token is transferred from `from` to `to`."
      }
    },
    "kind": "dev",
    "methods": {
      "approve(address,uint256)": {
        "details": "See {IERC721-approve}."
      },
      "balanceOf(address)": {
        "details": "See {IERC721-balanceOf}."
      },
      "getApproved(uint256)": {
        "details": "See {IERC721-getApproved}."
      },
      "isApprovedForAll(address,address)": {
        "details": "See {IERC721-isApprovedForAll}."
      },
      "name()": {
        "details": "See {IERC721Metadata-name}."
      },
      "ownerOf(uint256)": {
        "details": "See {IERC721-ownerOf}."
      },
      "safeTransferFrom(address,address,uint256)": {
        "details": "See {IERC721-safeTransferFrom}."
      },
      "safeTransferFrom(address,address,uint256,bytes)": {
        "details": "See {IERC721-safeTransferFrom}."
      },
      "setApprovalForAll(address,bool)": {
        "details": "See {IERC721-setApprovalForAll}."
      },
      "supportsInterface(bytes4)": {
        "details": "See {IERC165-supportsInterface}."
      },
      "symbol()": {
        "details": "See {IERC721Metadata-symbol}."
      },
      "tokenURI(uint256)": {
        "details": "See {IERC721Metadata-tokenURI}."
      },
      "transferFrom(address,address,uint256)": {
        "details": "See {IERC721-transferFrom}."
      }
    },
    "version": 1
  },
  "userdoc": {
    "kind": "user",
    "methods": {},
    "version": 1
  },
  "storageLayout": {
    "storage": [
      {
        "astId": 169,
        "contract": "contracts/Main.sol:Main",
        "label": "_name",
        "offset": 0,
        "slot": "0",
        "type": "t_string_storage"
      },
      {
        "astId": 171,
        "contract": "contracts/Main.sol:Main",
        "label": "_symbol",
        "offset": 0,
        "slot": "1",
        "type": "t_string_storage"
      },
      {
        "astId": 175,
        "contract": "contracts/Main.sol:Main",
        "label": "_owners",
        "offset": 0,
        "slot": "2",
        "type": "t_mapping(t_uint256,t_address)"
      },
      {
        "astId": 179,
        "contract": "contracts/Main.sol:Main",
        "label": "_balances",
        "offset": 0,
        "slot": "3",
        "type": "t_mapping(t_address,t_uint256)"
      },
      {
        "astId": 183,
        "contract": "contracts/Main.sol:Main",
        "label": "_tokenApprovals",
        "offset": 0,
        "slot": "4",
        "type": "t_mapping(t_uint256,t_address)"
      },
      {
        "astId": 189,
        "contract": "contracts/Main.sol:Main",
        "label": "_operatorApprovals",
        "offset": 0,
        "slot": "5",
        "type": "t_mapping(t_address,t_mapping(t_address,t_bool))"
      },
      {
        "astId": 6201,
        "contract": "contracts/Main.sol:Main",
        "label": "students",
        "offset": 0,
        "slot": "6",
        "type": "t_mapping(t_address,t_struct(Student)7659_storage)"
      },
      {
        "astId": 6205,
        "contract": "contracts/Main.sol:Main",
        "label": "verifiers",
        "offset": 0,
        "slot": "7",
        "type": "t_array(t_struct(Verifier)7675_storage)dyn_storage"
      },
      {
        "astId": 6209,
        "contract": "contracts/Main.sol:Main",
        "label": "projects",
        "offset": 0,
        "slot": "8",
        "type": "t_array(t_struct(Project)7652_storage)dyn_storage"
      },
      {
        "astId": 6213,
        "contract": "contracts/Main.sol:Main",
        "label": "achievements",
        "offset": 0,
        "slot": "9",
        "type": "t_array(t_struct(Achievement)6185_storage)dyn_storage"
      },
      {
        "astId": 6217,
        "contract": "contracts/Main.sol:Main",
        "label": "currentProjectMVP",
        "offset": 0,
        "slot": "10",
        "type": "t_mapping(t_uint256,t_address)"
      },
      {
        "astId": 6221,
        "contract": "contracts/Main.sol:Main",
        "label": "currentProjectMostAchievementsCount",
        "offset": 0,
        "slot": "11",
        "type": "t_mapping(t_uint256,t_uint256)"
      },
      {
        "astId": 6226,
        "contract": "contracts/Main.sol:Main",
        "label": "projectStudents",
        "offset": 0,
        "slot": "12",
        "type": "t_mapping(t_uint256,t_array(t_address)dyn_storage)"
      },
      {
        "astId": 6232,
        "contract": "contracts/Main.sol:Main",
        "label": "projectVerifierExists",
        "offset": 0,
        "slot": "13",
        "type": "t_mapping(t_uint256,t_mapping(t_address,t_bool))"
      },
      {
        "astId": 6238,
        "contract": "contracts/Main.sol:Main",
        "label": "verifierAlreadyVerifiedAchievement",
        "offset": 0,
        "slot": "14",
        "type": "t_mapping(t_address,t_mapping(t_uint256,t_bool))"
      },
      {
        "astId": 6244,
        "contract": "contracts/Main.sol:Main",
        "label": "projectStudentExists",
        "offset": 0,
        "slot": "15",
        "type": "t_mapping(t_uint256,t_mapping(t_address,t_bool))"
      },
      {
        "astId": 6248,
        "contract": "contracts/Main.sol:Main",
        "label": "myParticipatedProjectsCount",
        "offset": 0,
        "slot": "16",
        "type": "t_mapping(t_address,t_uint256)"
      },
      {
        "astId": 6252,
        "contract": "contracts/Main.sol:Main",
        "label": "myOwnedProjectsCount",
        "offset": 0,
        "slot": "17",
        "type": "t_mapping(t_address,t_uint256)"
      },
      {
        "astId": 6256,
        "contract": "contracts/Main.sol:Main",
        "label": "myVerificationProjectsCount",
        "offset": 0,
        "slot": "18",
        "type": "t_mapping(t_address,t_uint256)"
      },
      {
        "astId": 6260,
        "contract": "contracts/Main.sol:Main",
        "label": "myUnverifiedAchievementsCount",
        "offset": 0,
        "slot": "19",
        "type": "t_mapping(t_address,t_uint256)"
      },
      {
        "astId": 6264,
        "contract": "contracts/Main.sol:Main",
        "label": "myVerifiedAchievementsCount",
        "offset": 0,
        "slot": "20",
        "type": "t_mapping(t_address,t_uint256)"
      },
      {
        "astId": 6268,
        "contract": "contracts/Main.sol:Main",
        "label": "myStudentAchievementsCount",
        "offset": 0,
        "slot": "21",
        "type": "t_mapping(t_address,t_uint256)"
      },
      {
        "astId": 6274,
        "contract": "contracts/Main.sol:Main",
        "label": "myVerifiedStudentAchievementsCountByProject",
        "offset": 0,
        "slot": "22",
        "type": "t_mapping(t_address,t_mapping(t_uint256,t_uint256))"
      },
      {
        "astId": 6278,
        "contract": "contracts/Main.sol:Main",
        "label": "nftsAchievements",
        "offset": 0,
        "slot": "23",
        "type": "t_mapping(t_uint256,t_uint256)"
      },
      {
        "astId": 6281,
        "contract": "contracts/Main.sol:Main",
        "label": "projectCounter",
        "offset": 0,
        "slot": "24",
        "type": "t_uint256"
      },
      {
        "astId": 6284,
        "contract": "contracts/Main.sol:Main",
        "label": "achievementCounter",
        "offset": 0,
        "slot": "25",
        "type": "t_uint256"
      },
      {
        "astId": 6286,
        "contract": "contracts/Main.sol:Main",
        "label": "_nextTokenId",
        "offset": 0,
        "slot": "26",
        "type": "t_uint256"
      }
    ],
    "types": {
      "t_address": {
        "encoding": "inplace",
        "label": "address",
        "numberOfBytes": "20"
      },
      "t_array(t_address)dyn_storage": {
        "base": "t_address",
        "encoding": "dynamic_array",
        "label": "address[]",
        "numberOfBytes": "32"
      },
      "t_array(t_struct(Achievement)6185_storage)dyn_storage": {
        "base": "t_struct(Achievement)6185_storage",
        "encoding": "dynamic_array",
        "label": "struct Achievement[]",
        "numberOfBytes": "32"
      },
      "t_array(t_struct(Project)7652_storage)dyn_storage": {
        "base": "t_struct(Project)7652_storage",
        "encoding": "dynamic_array",
        "label": "struct Project[]",
        "numberOfBytes": "32"
      },
      "t_array(t_struct(Verifier)7675_storage)dyn_storage": {
        "base": "t_struct(Verifier)7675_storage",
        "encoding": "dynamic_array",
        "label": "struct Verifier[]",
        "numberOfBytes": "32"
      },
      "t_bool": {
        "encoding": "inplace",
        "label": "bool",
        "numberOfBytes": "1"
      },
      "t_mapping(t_address,t_bool)": {
        "encoding": "mapping",
        "key": "t_address",
        "label": "mapping(address => bool)",
        "numberOfBytes": "32",
        "value": "t_bool"
      },
      "t_mapping(t_address,t_mapping(t_address,t_bool))": {
        "encoding": "mapping",
        "key": "t_address",
        "label": "mapping(address => mapping(address => bool))",
        "numberOfBytes": "32",
        "value": "t_mapping(t_address,t_bool)"
      },
      "t_mapping(t_address,t_mapping(t_uint256,t_bool))": {
        "encoding": "mapping",
        "key": "t_address",
        "label": "mapping(address => mapping(uint256 => bool))",
        "numberOfBytes": "32",
        "value": "t_mapping(t_uint256,t_bool)"
      },
      "t_mapping(t_address,t_mapping(t_uint256,t_uint256))": {
        "encoding": "mapping",
        "key": "t_address",
        "label": "mapping(address => mapping(uint256 => uint256))",
        "numberOfBytes": "32",
        "value": "t_mapping(t_uint256,t_uint256)"
      },
      "t_mapping(t_address,t_struct(Student)7659_storage)": {
        "encoding": "mapping",
        "key": "t_address",
        "label": "mapping(address => struct Student)",
        "numberOfBytes": "32",
        "value": "t_struct(Student)7659_storage"
      },
      "t_mapping(t_address,t_uint256)": {
        "encoding": "mapping",
        "key": "t_address",
        "label": "mapping(address => uint256)",
        "numberOfBytes": "32",
        "value": "t_uint256"
      },
      "t_mapping(t_uint256,t_address)": {
        "encoding": "mapping",
        "key": "t_uint256",
        "label": "mapping(uint256 => address)",
        "numberOfBytes": "32",
        "value": "t_address"
      },
      "t_mapping(t_uint256,t_array(t_address)dyn_storage)": {
        "encoding": "mapping",
        "key": "t_uint256",
        "label": "mapping(uint256 => address[])",
        "numberOfBytes": "32",
        "value": "t_array(t_address)dyn_storage"
      },
      "t_mapping(t_uint256,t_bool)": {
        "encoding": "mapping",
        "key": "t_uint256",
        "label": "mapping(uint256 => bool)",
        "numberOfBytes": "32",
        "value": "t_bool"
      },
      "t_mapping(t_uint256,t_mapping(t_address,t_bool))": {
        "encoding": "mapping",
        "key": "t_uint256",
        "label": "mapping(uint256 => mapping(address => bool))",
        "numberOfBytes": "32",
        "value": "t_mapping(t_address,t_bool)"
      },
      "t_mapping(t_uint256,t_uint256)": {
        "encoding": "mapping",
        "key": "t_uint256",
        "label": "mapping(uint256 => uint256)",
        "numberOfBytes": "32",
        "value": "t_uint256"
      },
      "t_string_storage": {
        "encoding": "bytes",
        "label": "string",
        "numberOfBytes": "32"
      },
      "t_struct(Achievement)6185_storage": {
        "encoding": "inplace",
        "label": "struct Achievement",
        "members": [
          {
            "astId": 6170,
            "contract": "contracts/Main.sol:Main",
            "label": "achievementId",
            "offset": 0,
            "slot": "0",
            "type": "t_uint256"
          },
          {
            "astId": 6172,
            "contract": "contracts/Main.sol:Main",
            "label": "description",
            "offset": 0,
            "slot": "1",
            "type": "t_string_storage"
          },
          {
            "astId": 6174,
            "contract": "contracts/Main.sol:Main",
            "label": "isAchievement",
            "offset": 0,
            "slot": "2",
            "type": "t_bool"
          },
          {
            "astId": 6176,
            "contract": "contracts/Main.sol:Main",
            "label": "studentWallet",
            "offset": 1,
            "slot": "2",
            "type": "t_address"
          },
          {
            "astId": 6178,
            "contract": "contracts/Main.sol:Main",
            "label": "projectId",
            "offset": 0,
            "slot": "3",
            "type": "t_uint256"
          },
          {
            "astId": 6180,
            "contract": "contracts/Main.sol:Main",
            "label": "verifiedCount",
            "offset": 0,
            "slot": "4",
            "type": "t_uint256"
          },
          {
            "astId": 6182,
            "contract": "contracts/Main.sol:Main",
            "label": "isVerified",
            "offset": 0,
            "slot": "5",
            "type": "t_bool"
          },
          {
            "astId": 6184,
            "contract": "contracts/Main.sol:Main",
            "label": "nftTokenId",
            "offset": 0,
            "slot": "6",
            "type": "t_uint256"
          }
        ],
        "numberOfBytes": "224"
      },
      "t_struct(Project)7652_storage": {
        "encoding": "inplace",
        "label": "struct Project",
        "members": [
          {
            "astId": 7635,
            "contract": "contracts/Main.sol:Main",
            "label": "projectId",
            "offset": 0,
            "slot": "0",
            "type": "t_uint256"
          },
          {
            "astId": 7637,
            "contract": "contracts/Main.sol:Main",
            "label": "title",
            "offset": 0,
            "slot": "1",
            "type": "t_string_storage"
          },
          {
            "astId": 7639,
            "contract": "contracts/Main.sol:Main",
            "label": "description",
            "offset": 0,
            "slot": "2",
            "type": "t_string_storage"
          },
          {
            "astId": 7641,
            "contract": "contracts/Main.sol:Main",
            "label": "deadlineTimestamp",
            "offset": 0,
            "slot": "3",
            "type": "t_uint256"
          },
          {
            "astId": 7643,
            "contract": "contracts/Main.sol:Main",
            "label": "owner",
            "offset": 0,
            "slot": "4",
            "type": "t_address"
          },
          {
            "astId": 7645,
            "contract": "contracts/Main.sol:Main",
            "label": "isPublic",
            "offset": 20,
            "slot": "4",
            "type": "t_bool"
          },
          {
            "astId": 7647,
            "contract": "contracts/Main.sol:Main",
            "label": "requiredVerificationsCount",
            "offset": 0,
            "slot": "5",
            "type": "t_uint256"
          },
          {
            "astId": 7649,
            "contract": "contracts/Main.sol:Main",
            "label": "rewardAmount",
            "offset": 0,
            "slot": "6",
            "type": "t_uint256"
          },
          {
            "astId": 7651,
            "contract": "contracts/Main.sol:Main",
            "label": "isFinished",
            "offset": 0,
            "slot": "7",
            "type": "t_bool"
          }
        ],
        "numberOfBytes": "256"
      },
      "t_struct(Student)7659_storage": {
        "encoding": "inplace",
        "label": "struct Student",
        "members": [
          {
            "astId": 7656,
            "contract": "contracts/Main.sol:Main",
            "label": "wallet",
            "offset": 0,
            "slot": "0",
            "type": "t_address"
          },
          {
            "astId": 7658,
            "contract": "contracts/Main.sol:Main",
            "label": "isStudent",
            "offset": 20,
            "slot": "0",
            "type": "t_bool"
          }
        ],
        "numberOfBytes": "32"
      },
      "t_struct(Verifier)7675_storage": {
        "encoding": "inplace",
        "label": "struct Verifier",
        "members": [
          {
            "astId": 7672,
            "contract": "contracts/Main.sol:Main",
            "label": "wallet",
            "offset": 0,
            "slot": "0",
            "type": "t_address"
          },
          {
            "astId": 7674,
            "contract": "contracts/Main.sol:Main",
            "label": "isVerifier",
            "offset": 20,
            "slot": "0",
            "type": "t_bool"
          }
        ],
        "numberOfBytes": "32"
      },
      "t_uint256": {
        "encoding": "inplace",
        "label": "uint256",
        "numberOfBytes": "32"
      }
    }
  }
}