{
  "address": "0x5FbDB2315678afecb367f032d93F642f64180aa3",
  "abi": [
    {
      "inputs": [],
      "stateMutability": "nonpayable",
      "type": "constructor"
    },
    {
      "inputs": [
        {
          "internalType": "address",
          "name": "sender",
          "type": "address"
        },
        {
          "internalType": "uint256",
          "name": "tokenId",
          "type": "uint256"
        },
        {
          "internalType": "address",
          "name": "owner",
          "type": "address"
        }
      ],
      "name": "ERC721IncorrectOwner",
      "type": "error"
    },
    {
      "inputs": [
        {
          "internalType": "address",
          "name": "operator",
          "type": "address"
        },
        {
          "internalType": "uint256",
          "name": "tokenId",
          "type": "uint256"
        }
      ],
      "name": "ERC721InsufficientApproval",
      "type": "error"
    },
    {
      "inputs": [
        {
          "internalType": "address",
          "name": "approver",
          "type": "address"
        }
      ],
      "name": "ERC721InvalidApprover",
      "type": "error"
    },
    {
      "inputs": [
        {
          "internalType": "address",
          "name": "operator",
          "type": "address"
        }
      ],
      "name": "ERC721InvalidOperator",
      "type": "error"
    },
    {
      "inputs": [
        {
          "internalType": "address",
          "name": "owner",
          "type": "address"
        }
      ],
      "name": "ERC721InvalidOwner",
      "type": "error"
    },
    {
      "inputs": [
        {
          "internalType": "address",
          "name": "receiver",
          "type": "address"
        }
      ],
      "name": "ERC721InvalidReceiver",
      "type": "error"
    },
    {
      "inputs": [
        {
          "internalType": "address",
          "name": "sender",
          "type": "address"
        }
      ],
      "name": "ERC721InvalidSender",
      "type": "error"
    },
    {
      "inputs": [
        {
          "internalType": "uint256",
          "name": "tokenId",
          "type": "uint256"
        }
      ],
      "name": "ERC721NonexistentToken",
      "type": "error"
    },
    {
      "anonymous": false,
      "inputs": [
        {
          "indexed": true,
          "internalType": "address",
          "name": "owner",
          "type": "address"
        },
        {
          "indexed": true,
          "internalType": "address",
          "name": "approved",
          "type": "address"
        },
        {
          "indexed": true,
          "internalType": "uint256",
          "name": "tokenId",
          "type": "uint256"
        }
      ],
      "name": "Approval",
      "type": "event"
    },
    {
      "anonymous": false,
      "inputs": [
        {
          "indexed": true,
          "internalType": "address",
          "name": "owner",
          "type": "address"
        },
        {
          "indexed": true,
          "internalType": "address",
          "name": "operator",
          "type": "address"
        },
        {
          "indexed": false,
          "internalType": "bool",
          "name": "approved",
          "type": "bool"
        }
      ],
      "name": "ApprovalForAll",
      "type": "event"
    },
    {
      "anonymous": false,
      "inputs": [
        {
          "indexed": true,
          "internalType": "address",
          "name": "from",
          "type": "address"
        },
        {
          "indexed": true,
          "internalType": "address",
          "name": "to",
          "type": "address"
        },
        {
          "indexed": true,
          "internalType": "uint256",
          "name": "tokenId",
          "type": "uint256"
        }
      ],
      "name": "Transfer",
      "type": "event"
    },
    {
      "inputs": [
        {
          "internalType": "uint256",
          "name": "projectId",
          "type": "uint256"
        },
        {
          "internalType": "address",
          "name": "studentAddress",
          "type": "address"
        }
      ],
      "name": "addStudentToProjectWhitelist",
      "outputs": [],
      "stateMutability": "nonpayable",
      "type": "function"
    },
    {
      "inputs": [
        {
          "internalType": "uint256",
          "name": "projectId",
          "type": "uint256"
        },
        {
          "internalType": "address",
          "name": "verifierAddress",
          "type": "address"
        }
      ],
      "name": "addVerifierToProject",
      "outputs": [],
      "stateMutability": "nonpayable",
      "type": "function"
    },
    {
      "inputs": [
        {
          "internalType": "address",
          "name": "to",
          "type": "address"
        },
        {
          "internalType": "uint256",
          "name": "tokenId",
          "type": "uint256"
        }
      ],
      "name": "approve",
      "outputs": [],
      "stateMutability": "nonpayable",
      "type": "function"
    },
    {
      "inputs": [
        {
          "internalType": "address",
          "name": "owner",
          "type": "address"
        }
      ],
      "name": "balanceOf",
      "outputs": [
        {
          "internalType": "uint256",
          "name": "",
          "type": "uint256"
        }
      ],
      "stateMutability": "view",
      "type": "function"
    },
    {
      "inputs": [
        {
          "internalType": "string",
          "name": "title",
          "type": "string"
        },
        {
          "internalType": "string",
          "name": "description",
          "type": "string"
        },
        {
          "internalType": "uint256",
          "name": "deadlineTimestamp",
          "type": "uint256"
        },
        {
          "internalType": "bool",
          "name": "isPublic",
          "type": "bool"
        }
      ],
      "name": "createProject",
      "outputs": [],
      "stateMutability": "nonpayable",
      "type": "function"
    },
    {
      "inputs": [
        {
          "internalType": "uint256",
          "name": "achievementId",
          "type": "uint256"
        }
      ],
      "name": "getAchievementById",
      "outputs": [
        {
          "components": [
            {
              "internalType": "uint256",
              "name": "achievementId",
              "type": "uint256"
            },
            {
              "internalType": "string",
              "name": "description",
              "type": "string"
            },
            {
              "internalType": "bool",
              "name": "isAchievement",
              "type": "bool"
            },
            {
              "internalType": "address",
              "name": "studentWallet",
              "type": "address"
            },
            {
              "internalType": "uint256",
              "name": "projectId",
              "type": "uint256"
            },
            {
              "internalType": "uint256",
              "name": "verifiedCount",
              "type": "uint256"
            },
            {
              "internalType": "bool",
              "name": "isVerified",
              "type": "bool"
            },
            {
              "internalType": "uint256",
              "name": "nftTokenId",
              "type": "uint256"
            }
          ],
          "internalType": "struct Achievement",
          "name": "",
          "type": "tuple"
        }
      ],
      "stateMutability": "view",
      "type": "function"
    },
    {
      "inputs": [],
      "name": "getAllMyAchievementsForStudent",
      "outputs": [
        {
          "components": [
            {
              "internalType": "uint256",
              "name": "achievementId",
              "type": "uint256"
            },
            {
              "internalType": "string",
              "name": "description",
              "type": "string"
            },
            {
              "internalType": "bool",
              "name": "isAchievement",
              "type": "bool"
            },
            {
              "internalType": "address",
              "name": "studentWallet",
              "type": "address"
            },
            {
              "internalType": "uint256",
              "name": "projectId",
              "type": "uint256"
            },
            {
              "internalType": "uint256",
              "name": "verifiedCount",
              "type": "uint256"
            },
            {
              "internalType": "bool",
              "name": "isVerified",
              "type": "bool"
            },
            {
              "internalType": "uint256",
              "name": "nftTokenId",
              "type": "uint256"
            }
          ],
          "internalType": "struct Achievement[]",
          "name": "",
          "type": "tuple[]"
        }
      ],
      "stateMutability": "view",
      "type": "function"
    },
    {
      "inputs": [],
      "name": "getAllProjects",
      "outputs": [
        {
          "components": [
            {
              "internalType": "uint256",
              "name": "projectId",
              "type": "uint256"
            },
            {
              "internalType": "string",
              "name": "title",
              "type": "string"
            },
            {
              "internalType": "string",
              "name": "description",
              "type": "string"
            },
            {
              "internalType": "uint256",
              "name": "deadlineTimestamp",
              "type": "uint256"
            },
            {
              "internalType": "address",
              "name": "owner",
              "type": "address"
            },
            {
              "internalType": "bool",
              "name": "isPublic",
              "type": "bool"
            },
            {
              "internalType": "uint256",
              "name": "requiredVerificationsCount",
              "type": "uint256"
            }
          ],
          "internalType": "struct Project[]",
          "name": "",
          "type": "tuple[]"
        }
      ],
      "stateMutability": "view",
      "type": "function"
    },
    {
      "inputs": [
        {
          "internalType": "uint256",
          "name": "tokenId",
          "type": "uint256"
        }
      ],
      "name": "getApproved",
      "outputs": [
        {
          "internalType": "address",
          "name": "",
          "type": "address"
        }
      ],
      "stateMutability": "view",
      "type": "function"
    },
    {
      "inputs": [],
      "name": "getMyOwnedProjects",
      "outputs": [
        {
          "components": [
            {
              "internalType": "uint256",
              "name": "projectId",
              "type": "uint256"
            },
            {
              "internalType": "string",
              "name": "title",
              "type": "string"
            },
            {
              "internalType": "string",
              "name": "description",
              "type": "string"
            },
            {
              "internalType": "uint256",
              "name": "deadlineTimestamp",
              "type": "uint256"
            },
            {
              "internalType": "address",
              "name": "owner",
              "type": "address"
            },
            {
              "internalType": "bool",
              "name": "isPublic",
              "type": "bool"
            },
            {
              "internalType": "uint256",
              "name": "requiredVerificationsCount",
              "type": "uint256"
            }
          ],
          "internalType": "struct Project[]",
          "name": "",
          "type": "tuple[]"
        }
      ],
      "stateMutability": "view",
      "type": "function"
    },
    {
      "inputs": [],
      "name": "getMyParticipatedProjects",
      "outputs": [
        {
          "components": [
            {
              "internalType": "uint256",
              "name": "projectId",
              "type": "uint256"
            },
            {
              "internalType": "string",
              "name": "title",
              "type": "string"
            },
            {
              "internalType": "string",
              "name": "description",
              "type": "string"
            },
            {
              "internalType": "uint256",
              "name": "deadlineTimestamp",
              "type": "uint256"
            },
            {
              "internalType": "address",
              "name": "owner",
              "type": "address"
            },
            {
              "internalType": "bool",
              "name": "isPublic",
              "type": "bool"
            },
            {
              "internalType": "uint256",
              "name": "requiredVerificationsCount",
              "type": "uint256"
            }
          ],
          "internalType": "struct Project[]",
          "name": "",
          "type": "tuple[]"
        }
      ],
      "stateMutability": "view",
      "type": "function"
    },
    {
      "inputs": [],
      "name": "getMyVerificationProjects",
      "outputs": [
        {
          "components": [
            {
              "internalType": "uint256",
              "name": "projectId",
              "type": "uint256"
            },
            {
              "internalType": "string",
              "name": "title",
              "type": "string"
            },
            {
              "internalType": "string",
              "name": "description",
              "type": "string"
            },
            {
              "internalType": "uint256",
              "name": "deadlineTimestamp",
              "type": "uint256"
            },
            {
              "internalType": "address",
              "name": "owner",
              "type": "address"
            },
            {
              "internalType": "bool",
              "name": "isPublic",
              "type": "bool"
            },
            {
              "internalType": "uint256",
              "name": "requiredVerificationsCount",
              "type": "uint256"
            }
          ],
          "internalType": "struct Project[]",
          "name": "",
          "type": "tuple[]"
        }
      ],
      "stateMutability": "view",
      "type": "function"
    },
    {
      "inputs": [
        {
          "internalType": "uint256",
          "name": "projectId",
          "type": "uint256"
        }
      ],
      "name": "getProjectStudents",
      "outputs": [
        {
          "components": [
            {
              "internalType": "address",
              "name": "wallet",
              "type": "address"
            },
            {
              "internalType": "uint256",
              "name": "achievements",
              "type": "uint256"
            }
          ],
          "internalType": "struct StudentProjectInfo[]",
          "name": "",
          "type": "tuple[]"
        }
      ],
      "stateMutability": "view",
      "type": "function"
    },
    {
      "inputs": [
        {
          "internalType": "uint256",
          "name": "projectId",
          "type": "uint256"
        }
      ],
      "name": "getProjectVerifiers",
      "outputs": [
        {
          "components": [
            {
              "internalType": "address",
              "name": "wallet",
              "type": "address"
            },
            {
              "internalType": "bool",
              "name": "isVerifier",
              "type": "bool"
            }
          ],
          "internalType": "struct Verifier[]",
          "name": "",
          "type": "tuple[]"
        }
      ],
      "stateMutability": "view",
      "type": "function"
    },
    {
      "inputs": [
        {
          "internalType": "uint256",
          "name": "projectId",
          "type": "uint256"
        }
      ],
      "name": "getUnverifiedAchievementsForVerifier",
      "outputs": [
        {
          "components": [
            {
              "internalType": "uint256",
              "name": "achievementId",
              "type": "uint256"
            },
            {
              "internalType": "string",
              "name": "description",
              "type": "string"
            },
            {
              "internalType": "bool",
              "name": "isAchievement",
              "type": "bool"
            },
            {
              "internalType": "address",
              "name": "studentWallet",
              "type": "address"
            },
            {
              "internalType": "uint256",
              "name": "projectId",
              "type": "uint256"
            },
            {
              "internalType": "uint256",
              "name": "verifiedCount",
              "type": "uint256"
            },
            {
              "internalType": "bool",
              "name": "isVerified",
              "type": "bool"
            },
            {
              "internalType": "uint256",
              "name": "nftTokenId",
              "type": "uint256"
            }
          ],
          "internalType": "struct Achievement[]",
          "name": "",
          "type": "tuple[]"
        }
      ],
      "stateMutability": "view",
      "type": "function"
    },
    {
      "inputs": [
        {
          "internalType": "uint256",
          "name": "projectId",
          "type": "uint256"
        }
      ],
      "name": "getVerifiedAchievementsForVerifier",
      "outputs": [
        {
          "components": [
            {
              "internalType": "uint256",
              "name": "achievementId",
              "type": "uint256"
            },
            {
              "internalType": "string",
              "name": "description",
              "type": "string"
            },
            {
              "internalType": "bool",
              "name": "isAchievement",
              "type": "bool"
            },
            {
              "internalType": "address",
              "name": "studentWallet",
              "type": "address"
            },
            {
              "internalType": "uint256",
              "name": "projectId",
              "type": "uint256"
            },
            {
              "internalType": "uint256",
              "name": "verifiedCount",
              "type": "uint256"
            },
            {
              "internalType": "bool",
              "name": "isVerified",
              "type": "bool"
            },
            {
              "internalType": "uint256",
              "name": "nftTokenId",
              "type": "uint256"
            }
          ],
          "internalType": "struct Achievement[]",
          "name": "",
          "type": "tuple[]"
        }
      ],
      "stateMutability": "view",
      "type": "function"
    },
    {
      "inputs": [
        {
          "internalType": "address",
          "name": "owner",
          "type": "address"
        },
        {
          "internalType": "address",
          "name": "operator",
          "type": "address"
        }
      ],
      "name": "isApprovedForAll",
      "outputs": [
        {
          "internalType": "bool",
          "name": "",
          "type": "bool"
        }
      ],
      "stateMutability": "view",
      "type": "function"
    },
    {
      "inputs": [],
      "name": "name",
      "outputs": [
        {
          "internalType": "string",
          "name": "",
          "type": "string"
        }
      ],
      "stateMutability": "view",
      "type": "function"
    },
    {
      "inputs": [
        {
          "internalType": "uint256",
          "name": "tokenId",
          "type": "uint256"
        }
      ],
      "name": "ownerOf",
      "outputs": [
        {
          "internalType": "address",
          "name": "",
          "type": "address"
        }
      ],
      "stateMutability": "view",
      "type": "function"
    },
    {
      "inputs": [
        {
          "internalType": "uint256",
          "name": "projectId",
          "type": "uint256"
        },
        {
          "internalType": "string",
          "name": "description",
          "type": "string"
        }
      ],
      "name": "postAchievement",
      "outputs": [],
      "stateMutability": "nonpayable",
      "type": "function"
    },
    {
      "inputs": [
        {
          "internalType": "uint256",
          "name": "projectId",
          "type": "uint256"
        }
      ],
      "name": "registerSelfStudent",
      "outputs": [],
      "stateMutability": "nonpayable",
      "type": "function"
    },
    {
      "inputs": [
        {
          "internalType": "address",
          "name": "from",
          "type": "address"
        },
        {
          "internalType": "address",
          "name": "to",
          "type": "address"
        },
        {
          "internalType": "uint256",
          "name": "tokenId",
          "type": "uint256"
        }
      ],
      "name": "safeTransferFrom",
      "outputs": [],
      "stateMutability": "nonpayable",
      "type": "function"
    },
    {
      "inputs": [
        {
          "internalType": "address",
          "name": "from",
          "type": "address"
        },
        {
          "internalType": "address",
          "name": "to",
          "type": "address"
        },
        {
          "internalType": "uint256",
          "name": "tokenId",
          "type": "uint256"
        },
        {
          "internalType": "bytes",
          "name": "data",
          "type": "bytes"
        }
      ],
      "name": "safeTransferFrom",
      "outputs": [],
      "stateMutability": "nonpayable",
      "type": "function"
    },
    {
      "inputs": [
        {
          "internalType": "address",
          "name": "operator",
          "type": "address"
        },
        {
          "internalType": "bool",
          "name": "approved",
          "type": "bool"
        }
      ],
      "name": "setApprovalForAll",
      "outputs": [],
      "stateMutability": "nonpayable",
      "type": "function"
    },
    {
      "inputs": [
        {
          "internalType": "bytes4",
          "name": "interfaceId",
          "type": "bytes4"
        }
      ],
      "name": "supportsInterface",
      "outputs": [
        {
          "internalType": "bool",
          "name": "",
          "type": "bool"
        }
      ],
      "stateMutability": "view",
      "type": "function"
    },
    {
      "inputs": [],
      "name": "symbol",
      "outputs": [
        {
          "internalType": "string",
          "name": "",
          "type": "string"
        }
      ],
      "stateMutability": "view",
      "type": "function"
    },
    {
      "inputs": [
        {
          "internalType": "uint256",
          "name": "tokenId",
          "type": "uint256"
        }
      ],
      "name": "tokenURI",
      "outputs": [
        {
          "internalType": "string",
          "name": "",
          "type": "string"
        }
      ],
      "stateMutability": "view",
      "type": "function"
    },
    {
      "inputs": [
        {
          "internalType": "address",
          "name": "from",
          "type": "address"
        },
        {
          "internalType": "address",
          "name": "to",
          "type": "address"
        },
        {
          "internalType": "uint256",
          "name": "tokenId",
          "type": "uint256"
        }
      ],
      "name": "transferFrom",
      "outputs": [],
      "stateMutability": "nonpayable",
      "type": "function"
    },
    {
      "inputs": [
        {
          "internalType": "uint256",
          "name": "projectId",
          "type": "uint256"
        },
        {
          "internalType": "uint256",
          "name": "achievementId",
          "type": "uint256"
        }
      ],
      "name": "verify",
      "outputs": [],
      "stateMutability": "nonpayable",
      "type": "function"
    }
  ],
  "transactionHash": "0x9dd67abc30bcbb3cf6e283524bf1d9821f6f9f095053aa3c261758759d40afaf",
  "args": [],
  "numDeployments": 1,
  "solcInputHash": "5918c1765efa1913f27f12753595732f",
  "bytecode": "0x6080604052600060185560006019553480156200001b57600080fd5b506040518060400160405280601681526020017f416368696576656d656e7443657274696669636174650000000000000000000081525060405180604001604052806002815260200161414360f01b81525081600090816200007e91906200013b565b5060016200008d82826200013b565b50505062000207565b634e487b7160e01b600052604160045260246000fd5b600181811c90821680620000c157607f821691505b602082108103620000e257634e487b7160e01b600052602260045260246000fd5b50919050565b601f8211156200013657600081815260208120601f850160051c81016020861015620001115750805b601f850160051c820191505b8181101562000132578281556001016200011d565b5050505b505050565b81516001600160401b0381111562000157576200015762000096565b6200016f81620001688454620000ac565b84620000e8565b602080601f831160018114620001a757600084156200018e5750858301515b600019600386901b1c1916600185901b17855562000132565b600085815260208120601f198616915b82811015620001d857888601518255948401946001909101908401620001b7565b5085821015620001f75787850151600019600388901b60f8161c191681555b5050505050600190811b01905550565b61426680620002176000396000f3fe608060405234801561001057600080fd5b50600436106101cf5760003560e01c806370e5688c11610104578063b04c9760116100a2578063cf26d34411610071578063cf26d344146103ed578063d688af8c14610400578063e985e9c514610413578063f8451d5f1461042657600080fd5b8063b04c976014610394578063b8689125146103a7578063b88d4fde146103c7578063c87b56dd146103da57600080fd5b80638ed988d1116100de5780638ed988d11461034657806395d89b4114610366578063a22cb4651461036e578063aabedf1c1461038157600080fd5b806370e5688c1461030b57806375bab5b21461031e57806380d038291461033e57600080fd5b806341161b10116101715780635b6c0f3b1161014b5780635b6c0f3b146102ba5780635e7ced73146102cf5780636352211e146102d757806370a08231146102ea57600080fd5b806341161b101461028157806342842e0e146102945780634dcc0a15146102a757600080fd5b8063095ea7b3116101ad578063095ea7b31461023c57806323b872dd14610251578063373c7c7b146102645780633cad82341461027957600080fd5b806301ffc9a7146101d457806306fdde03146101fc578063081812fc14610211575b600080fd5b6101e76101e236600461397b565b610439565b60405190151581526020015b60405180910390f35b61020461048b565b6040516101f391906139e8565b61022461021f3660046139fb565b61051d565b6040516001600160a01b0390911681526020016101f3565b61024f61024a366004613a30565b610546565b005b61024f61025f366004613a5a565b610555565b61026c6105e5565b6040516101f39190613a96565b61026c6108b4565b61024f61028f366004613b5a565b610b46565b61024f6102a2366004613a5a565b610e5b565b61024f6102b5366004613b7c565b610e7b565b6102c2611202565b6040516101f39190613c1d565b61026c6113ef565b6102246102e53660046139fb565b6116a2565b6102fd6102f8366004613c7f565b6116ad565b6040519081526020016101f3565b6102c26103193660046139fb565b6116f5565b61033161032c3660046139fb565b611949565b6040516101f39190613c9a565b61026c611a71565b6103596103543660046139fb565b611c3d565b6040516101f39190613cad565b610204611f1e565b61024f61037c366004613d15565b611f2d565b6102c261038f3660046139fb565b611f38565b61024f6103a2366004613b7c565b612186565b6103ba6103b53660046139fb565b612377565b6040516101f39190613d3f565b61024f6103d5366004613e17565b612550565b6102046103e83660046139fb565b612568565b61024f6103fb366004613eb2565b6125dd565b61024f61040e366004613ef8565b612a89565b6101e7610421366004613f75565b612be8565b61024f6104343660046139fb565b612c16565b60006001600160e01b031982166380ac58cd60e01b148061046a57506001600160e01b03198216635b5e139f60e01b145b8061048557506301ffc9a760e01b6001600160e01b03198316145b92915050565b60606000805461049a90613f9f565b80601f01602080910402602001604051908101604052809291908181526020018280546104c690613f9f565b80156105135780601f106104e857610100808354040283529160200191610513565b820191906000526020600020905b8154815290600101906020018083116104f657829003601f168201915b5050505050905090565b600061052882612e4a565b506000828152600460205260409020546001600160a01b0316610485565b610551828233612e83565b5050565b6001600160a01b03821661058457604051633250574960e11b8152600060048201526024015b60405180910390fd5b6000610591838333612e90565b9050836001600160a01b0316816001600160a01b0316146105df576040516364283d7b60e01b81526001600160a01b038086166004830152602482018490528216604482015260640161057b565b50505050565b336000908152601060205260409020546060901561087d57336000908152601060205260408120546001600160401b0381111561062457610624613d8c565b60405190808252806020026020018201604052801561065d57816020015b61064a6138cb565b8152602001906001900390816106425790505b509050600061066a6138cb565b60005b600854811015610874576008818154811061068a5761068a613fd3565b90600052602060002090600602016040518060e0016040529081600082015481526020016001820180546106bd90613f9f565b80601f01602080910402602001604051908101604052809291908181526020018280546106e990613f9f565b80156107365780601f1061070b57610100808354040283529160200191610736565b820191906000526020600020905b81548152906001019060200180831161071957829003601f168201915b5050505050815260200160028201805461074f90613f9f565b80601f016020809104026020016040519081016040528092919081815260200182805461077b90613f9f565b80156107c85780601f1061079d576101008083540402835291602001916107c8565b820191906000526020600020905b8154815290600101906020018083116107ab57829003601f168201915b5050509183525050600382015460208083019190915260048301546001600160a01b038116604080850191909152600160a01b90910460ff9081161515606085015260059094015460809093019290925283516000908152600f8252828120338252909152205491935016156108625781848461084481613fff565b95508151811061085657610856613fd3565b60200260200101819052505b8061086c81613fff565b91505061066d565b50919392505050565b60408051600080825260208201909252906108ae565b61089b6138cb565b8152602001906001900390816108935790505b50905090565b336000908152601160205260409020546060901561087d57336000908152601160205260408120546001600160401b038111156108f3576108f3613d8c565b60405190808252806020026020018201604052801561092c57816020015b6109196138cb565b8152602001906001900390816109115790505b50905060006109396138cb565b60005b600854811015610874576008818154811061095957610959613fd3565b90600052602060002090600602016040518060e00160405290816000820154815260200160018201805461098c90613f9f565b80601f01602080910402602001604051908101604052809291908181526020018280546109b890613f9f565b8015610a055780601f106109da57610100808354040283529160200191610a05565b820191906000526020600020905b8154815290600101906020018083116109e857829003601f168201915b50505050508152602001600282018054610a1e90613f9f565b80601f0160208091040260200160405190810160405280929190818152602001828054610a4a90613f9f565b8015610a975780601f10610a6c57610100808354040283529160200191610a97565b820191906000526020600020905b815481529060010190602001808311610a7a57829003601f168201915b50505091835250506003820154602082015260048201546001600160a01b038082166040840152600160a01b90910460ff161515606083015260059092015460809182015282015191935033911603610b1457818484610af681613fff565b955081518110610b0857610b08613fd3565b60200260200101819052505b80610b1e81613fff565b91505061093c565b610b2e6138cb565b815260200190600190039081610b2657905050905090565b6000828152600d60209081526040808320338452909152902054829060ff161515600114610b865760405162461bcd60e51b815260040161057b90614018565b336000908152600e6020908152604080832085845290915290205460ff1615610c045760405162461bcd60e51b815260206004820152602a60248201527f596f75206861766520616c72656164792076657269666965642074686973206160448201526918da1a595d995b595b9d60b21b606482015260840161057b565b60098281548110610c1757610c17613fd3565b600091825260209091206005600790920201015460ff1615610c895760405162461bcd60e51b815260206004820152602560248201527f5468697320616368696576656d656e7420697320616c726561647920766572696044820152643334b2b21760d91b606482015260840161057b565b600060098381548110610c9e57610c9e613fd3565b90600052602060002090600702019050806004016000815480929190610cc390613fff565b9091555050336000908152601460205260408120805491610ce383613fff565b9091555050336000908152601360205260408120805491610d038361408b565b9091555050336000908152600e602090815260408083208684529091529020805460ff191660011790556002810154600880546101009092046001600160a01b03169186908110610d5657610d56613fd3565b906000526020600020906006020160050154826004015403610e545760058201805460ff191660011790556001600160a01b03811660009081526016602090815260408083208884529091528120805491610db083613fff565b9190505550610dbe81612f89565b601a8054600090815260176020908152604080832088905592546006860155878252600b8152828220546001600160a01b038516835260168252838320898452909152919020541115610e54576000858152600a6020908152604080832080546001600160a01b0319166001600160a01b038616908117909155835260168252808320888452825280832054600b909252909120555b5050505050565b610e7683838360405180602001604052806000815250612550565b505050565b81600060088281548110610e9157610e91613fd3565b90600052602060002090600602016040518060e001604052908160008201548152602001600182018054610ec490613f9f565b80601f0160208091040260200160405190810160405280929190818152602001828054610ef090613f9f565b8015610f3d5780601f10610f1257610100808354040283529160200191610f3d565b820191906000526020600020905b815481529060010190602001808311610f2057829003601f168201915b50505050508152602001600282018054610f5690613f9f565b80601f0160208091040260200160405190810160405280929190818152602001828054610f8290613f9f565b8015610fcf5780601f10610fa457610100808354040283529160200191610fcf565b820191906000526020600020905b815481529060010190602001808311610fb257829003601f168201915b50505091835250506003820154602082015260048201546001600160a01b038082166040840152600160a01b90910460ff1615156060830152600590920154608091820152820151919250339116146110625760405162461bcd60e51b81526020600482015260156024820152742737ba103a343290383937b532b1ba1037bbb732b960591b604482015260640161057b565b6000848152600d602090815260408083206001600160a01b038716845290915290205460ff16156110fb5760405162461bcd60e51b815260206004820152603b60248201527f566572696669657220776974682073756368206164647265737320666f72207460448201527f6869732070726f6a65637420616c7265616479206578697374732e0000000000606482015260840161057b565b604080518082019091526001600160a01b03808516825260016020830181815260078054928301815560005292517fa66cc928b5edb82af9bd49922954155ab7b0942694bea4ce44661d9a8736c688909101805493511515600160a01b026001600160a81b03199094169190921617919091179055600880548590811061118457611184613fd3565b6000918252602082206005600690920201018054916111a283613fff565b90915550506001600160a01b03831660009081526012602052604081208054916111cb83613fff565b909155505050600092835250600d602090815260408084206001600160a01b0390931684529190529020805460ff19166001179055565b33600090815260156020526040812054606091906001600160401b0381111561122d5761122d613d8c565b60405190808252806020026020018201604052801561126657816020015b611253613913565b81526020019060019003908161124b5790505b5090506000611273613913565b60005b600954811015610874576009818154811061129357611293613fd3565b906000526020600020906007020160405180610100016040529081600082015481526020016001820180546112c790613f9f565b80601f01602080910402602001604051908101604052809291908181526020018280546112f390613f9f565b80156113405780601f1061131557610100808354040283529160200191611340565b820191906000526020600020905b81548152906001019060200180831161132357829003601f168201915b5050509183525050600282015460ff808216151560208401526001600160a01b03610100909204821660408401526003840154606080850191909152600485015460808501526005850154909116151560a084015260069093015460c09092019190915290820151919350339116036113dd578184846113bf81613fff565b9550815181106113d1576113d1613fd3565b60200260200101819052505b806113e781613fff565b915050611276565b336000908152601260205260409020546060901561087d57336000908152601260205260408120546001600160401b0381111561142e5761142e613d8c565b60405190808252806020026020018201604052801561146757816020015b6114546138cb565b81526020019060019003908161144c5790505b50905060006114746138cb565b60005b600854811015610874576008818154811061149457611494613fd3565b90600052602060002090600602016040518060e0016040529081600082015481526020016001820180546114c790613f9f565b80601f01602080910402602001604051908101604052809291908181526020018280546114f390613f9f565b80156115405780601f1061151557610100808354040283529160200191611540565b820191906000526020600020905b81548152906001019060200180831161152357829003601f168201915b5050505050815260200160028201805461155990613f9f565b80601f016020809104026020016040519081016040528092919081815260200182805461158590613f9f565b80156115d25780601f106115a7576101008083540402835291602001916115d2565b820191906000526020600020905b8154815290600101906020018083116115b557829003601f168201915b5050509183525050600382015460208083019190915260048301546001600160a01b038116604080850191909152600160a01b90910460ff9081161515606085015260059094015460809093019290925283516000908152600d825282812033825290915220549193501615156001036116705781848461165281613fff565b95508151811061166457611664613fd3565b60200260200101819052505b8061167a81613fff565b915050611477565b61168a6138cb565b81526020019060019003908161168257905050905090565b600061048582612e4a565b60006001600160a01b0382166116d9576040516322718ad960e21b81526000600482015260240161057b565b506001600160a01b031660009081526003602052604090205490565b6000818152600d60209081526040808320338452909152902054606090829060ff1615156001146117385760405162461bcd60e51b815260040161057b90614018565b336000908152601460205260408120546001600160401b0381111561175f5761175f613d8c565b60405190808252806020026020018201604052801561179857816020015b611785613913565b81526020019060019003908161177d5790505b50905060006117a5613913565b60005b60095481101561193c57600981815481106117c5576117c5613fd3565b906000526020600020906007020160405180610100016040529081600082015481526020016001820180546117f990613f9f565b80601f016020809104026020016040519081016040528092919081815260200182805461182590613f9f565b80156118725780601f1061184757610100808354040283529160200191611872565b820191906000526020600020905b81548152906001019060200180831161185557829003601f168201915b5050509183525050600282015460ff808216151560208401526101009091046001600160a01b031660408301526003830154606083015260048301546080808401919091526005840154909116151560a083015260069092015460c090910152810151909250871480156119065750336000908152600e602090815260408083208551845290915290205460ff1615156001145b1561192a578184848151811061191e5761191e613fd3565b60200260200101819052505b8061193481613fff565b9150506117a8565b5091935050505b50919050565b611951613913565b6009828154811061196457611964613fd3565b9060005260206000209060070201604051806101000160405290816000820154815260200160018201805461199890613f9f565b80601f01602080910402602001604051908101604052809291908181526020018280546119c490613f9f565b8015611a115780601f106119e657610100808354040283529160200191611a11565b820191906000526020600020905b8154815290600101906020018083116119f457829003601f168201915b5050509183525050600282015460ff808216151560208401526101009091046001600160a01b031660408301526003830154606083015260048301546080830152600583015416151560a082015260069091015460c09091015292915050565b60606008805480602002602001604051908101604052809291908181526020016000905b82821015611c3457838290600052602060002090600602016040518060e001604052908160008201548152602001600182018054611ad290613f9f565b80601f0160208091040260200160405190810160405280929190818152602001828054611afe90613f9f565b8015611b4b5780601f10611b2057610100808354040283529160200191611b4b565b820191906000526020600020905b815481529060010190602001808311611b2e57829003601f168201915b50505050508152602001600282018054611b6490613f9f565b80601f0160208091040260200160405190810160405280929190818152602001828054611b9090613f9f565b8015611bdd5780601f10611bb257610100808354040283529160200191611bdd565b820191906000526020600020905b815481529060010190602001808311611bc057829003601f168201915b5050509183525050600382015460208083019190915260048301546001600160a01b0381166040840152600160a01b900460ff16151560608301526005909201546080909101529082526001929092019101611a95565b50505050905090565b6000818152600c60209081526040808320805482518185028101850190935280835260609493830182828015611c9c57602002820191906000526020600020905b81546001600160a01b03168152600190910190602001808311611c7e575b50505050509050600081516001600160401b03811115611cbe57611cbe613d8c565b604051908082528060200260200182016040528015611d0357816020015b6040805180820190915260008082526020820152815260200190600190039081611cdc5790505b50905060005b8251811015611f16576000611d1c613913565b60005b600954811015611eac5760098181548110611d3c57611d3c613fd3565b90600052602060002090600702016040518061010001604052908160008201548152602001600182018054611d7090613f9f565b80601f0160208091040260200160405190810160405280929190818152602001828054611d9c90613f9f565b8015611de95780601f10611dbe57610100808354040283529160200191611de9565b820191906000526020600020905b815481529060010190602001808311611dcc57829003601f168201915b5050509183525050600282015460ff808216151560208401526101009091046001600160a01b031660408301526003830154606083015260048301546080830152600583015416151560a082015260069091015460c0909101528651909250869085908110611e5a57611e5a613fd3565b60200260200101516001600160a01b031682606001516001600160a01b0316148015611e8757508160c001515b15611e9a5782611e9681613fff565b9350505b80611ea481613fff565b915050611d1f565b506040518060400160405280868581518110611eca57611eca613fd3565b60200260200101516001600160a01b0316815260200183815250848481518110611ef657611ef6613fd3565b602002602001018190525050508080611f0e90613fff565b915050611d09565b509392505050565b60606001805461049a90613f9f565b610551338383612fad565b6000818152600d60209081526040808320338452909152902054606090829060ff161515600114611f7b5760405162461bcd60e51b815260040161057b90614018565b336000908152601360205260408120546001600160401b03811115611fa257611fa2613d8c565b604051908082528060200260200182016040528015611fdb57816020015b611fc8613913565b815260200190600190039081611fc05790505b5090506000611fe8613913565b60005b60095481101561193c576009818154811061200857612008613fd3565b9060005260206000209060070201604051806101000160405290816000820154815260200160018201805461203c90613f9f565b80601f016020809104026020016040519081016040528092919081815260200182805461206890613f9f565b80156120b55780601f1061208a576101008083540402835291602001916120b5565b820191906000526020600020905b81548152906001019060200180831161209857829003601f168201915b5050509183525050600282015460ff808216151560208401526101009091046001600160a01b031660408301526003830154606083015260048301546080808401919091526005840154909116151560a083015260069092015460c090910152810151909250871480156121455750336000908152600e602090815260408083208551845290915290205460ff16155b156121745781848461215681613fff565b95508151811061216857612168613fd3565b60200260200101819052505b8061217e81613fff565b915050611feb565b8160006008828154811061219c5761219c613fd3565b90600052602060002090600602016040518060e0016040529081600082015481526020016001820180546121cf90613f9f565b80601f01602080910402602001604051908101604052809291908181526020018280546121fb90613f9f565b80156122485780601f1061221d57610100808354040283529160200191612248565b820191906000526020600020905b81548152906001019060200180831161222b57829003601f168201915b5050505050815260200160028201805461226190613f9f565b80601f016020809104026020016040519081016040528092919081815260200182805461228d90613f9f565b80156122da5780601f106122af576101008083540402835291602001916122da565b820191906000526020600020905b8154815290600101906020018083116122bd57829003601f168201915b50505091835250506003820154602082015260048201546001600160a01b038082166040840152600160a01b90910460ff16151560608301526005909201546080918201528201519192503391161461236d5760405162461bcd60e51b81526020600482015260156024820152742737ba103a343290383937b532b1ba1037bbb732b960591b604482015260640161057b565b6105df848461304c565b60606000805b6007548110156123f9576000848152600d6020526040812060078054919291849081106123ac576123ac613fd3565b60009182526020808320909101546001600160a01b0316835282019290925260400190205460ff16156123e757816123e381613fff565b9250505b806123f181613fff565b91505061237d565b506000816001600160401b0381111561241457612414613d8c565b60405190808252806020026020018201604052801561245957816020015b60408051808201909152600080825260208201528152602001906001900390816124325790505b5090506000805b600754811015612546576000868152600d60205260408120600780549192918490811061248f5761248f613fd3565b60009182526020808320909101546001600160a01b0316835282019290925260400190205460ff161561253457600781815481106124cf576124cf613fd3565b6000918252602091829020604080518082019091529101546001600160a01b0381168252600160a01b900460ff16151591810191909152835184908490811061251a5761251a613fd3565b6020026020010181905250818061253090613fff565b9250505b8061253e81613fff565b915050612460565b5090949350505050565b61255b848484610555565b6105df33858585856133d0565b606061257382612e4a565b50600061258b60408051602081019091526000815290565b905060008151116125ab57604051806020016040528060008152506125d6565b806125b5846134fa565b6040516020016125c69291906140a2565b6040516020818303038152906040525b9392505050565b816000600882815481106125f3576125f3613fd3565b90600052602060002090600602016040518060e00160405290816000820154815260200160018201805461262690613f9f565b80601f016020809104026020016040519081016040528092919081815260200182805461265290613f9f565b801561269f5780601f106126745761010080835404028352916020019161269f565b820191906000526020600020905b81548152906001019060200180831161268257829003601f168201915b505050505081526020016002820180546126b890613f9f565b80601f01602080910402602001604051908101604052809291908181526020018280546126e490613f9f565b80156127315780601f1061270657610100808354040283529160200191612731565b820191906000526020600020905b81548152906001019060200180831161271457829003601f168201915b5050509183525050600382015460208083019190915260048301546001600160a01b038116604080850191909152600160a01b90910460ff908116151560608501526005909401546080909301929092526000868152600f82528281203382529091522054919250600191161515146127fe5760405162461bcd60e51b815260206004820152602960248201527f596f7520617265206e6f74207468652073747564656e7420666f72207468697360448201526810383937b532b1ba1760b91b606482015260840161057b565b604080518082019091526000808252602082015260005b6007548110156128cb576007818154811061283257612832613fd3565b6000918252602080832060408051808201825293909101546001600160a01b038082168552600160a01b90910460ff9081161515858501528b8652600d8452828620855190921686529252909220549093501615156001036128b95781516001600160a01b031660009081526013602052604081208054916128b383613fff565b91905055505b806128c381613fff565b915050612815565b5060136000600887815481106128e3576128e3613fd3565b60009182526020808320600460069093020191909101546001600160a01b03168352820192909252604001812080549161291c83613fff565b90915550506040805161010081018252601954815260208101868152600192820183905233606083015260808201889052600060a0830181905260c0830181905260e083018190526009805494850181559052815160079093027f6e1540171b6c0c960b71a7020d9f60077f6af931a8bbf590da0223dacf75c7af810193845590519192917f6e1540171b6c0c960b71a7020d9f60077f6af931a8bbf590da0223dacf75c7b0909101906129d09082614117565b5060408281015160028301805460608601516001600160a01b031661010002610100600160a81b0319931515939093166001600160a81b0319909116179190911790556080830151600383015560a0830151600483015560c083015160058301805491151560ff199290921691909117905560e0909201516006909101553360009081526015602052908120805491612a6883613fff565b909155505060198054906000612a7d83613fff565b91905055505050505050565b6040805160e081018252601854808252602080830188815283850188905260608401879052336080850181905286151560a0860152600160c086018190526000948552600d84528685209185529252938220805460ff191682179055600880549182018155909152815160069091027ff3f7a9fe364faab93b216da50a3214154f22a0a2b415b23a84c8169e8b636ee381019182559251919283927ff3f7a9fe364faab93b216da50a3214154f22a0a2b415b23a84c8169e8b636ee490910190612b539082614117565b5060408201516002820190612b689082614117565b5060608201516003820155608082015160048201805460a08501511515600160a01b026001600160a81b03199091166001600160a01b039093169290921791909117905560c090910151600590910155336000908152601160205260408120805491612bd383613fff565b909155505060188054906000612a7d83613fff565b6001600160a01b03918216600090815260056020908152604080832093909416825291909152205460ff1690565b600060088281548110612c2b57612c2b613fd3565b90600052602060002090600602016040518060e001604052908160008201548152602001600182018054612c5e90613f9f565b80601f0160208091040260200160405190810160405280929190818152602001828054612c8a90613f9f565b8015612cd75780601f10612cac57610100808354040283529160200191612cd7565b820191906000526020600020905b815481529060010190602001808311612cba57829003601f168201915b50505050508152602001600282018054612cf090613f9f565b80601f0160208091040260200160405190810160405280929190818152602001828054612d1c90613f9f565b8015612d695780601f10612d3e57610100808354040283529160200191612d69565b820191906000526020600020905b815481529060010190602001808311612d4c57829003601f168201915b50505091835250506003820154602082015260048201546001600160a01b0381166040830152600160a01b900460ff161515606082015260059091015460809091015260a0810151909150612e405760405162461bcd60e51b815260206004820152605160248201527f596f7520646f6e60742068617665207065726d697373696f6e206f7220796f7560448201527f206d7573742062652061646465642062792070726f6a656374206f776e6572206064820152703a37903a3432903bb434ba32b634b9ba1760791b608482015260a40161057b565b610551823361304c565b6000818152600260205260408120546001600160a01b03168061048557604051637e27328960e01b81526004810184905260240161057b565b610e76838383600161358c565b6000828152600260205260408120546001600160a01b0390811690831615612ebd57612ebd818486613692565b6001600160a01b03811615612efb57612eda60008560008061358c565b6001600160a01b038116600090815260036020526040902080546000190190555b6001600160a01b03851615612f2a576001600160a01b0385166000908152600360205260409020805460010190555b60008481526002602052604080822080546001600160a01b0319166001600160a01b0389811691821790925591518793918516917fddf252ad1be2c89b69c2b068fc378daa952ba7f163c4a11628f55a4df523b3ef91a4949350505050565b601a8054906000612f9983613fff565b9190505550612faa81601a546136f6565b50565b6001600160a01b038216612fdf57604051630b61174360e31b81526001600160a01b038316600482015260240161057b565b6001600160a01b03838116600081815260056020908152604080832094871680845294825291829020805460ff191686151590811790915591519182527f17307eab39ab6107e8899845ad3d59bd9653f200f220920489ca2b5937696c31910160405180910390a3505050565b818160006008838154811061306357613063613fd3565b90600052602060002090600602016040518060e00160405290816000820154815260200160018201805461309690613f9f565b80601f01602080910402602001604051908101604052809291908181526020018280546130c290613f9f565b801561310f5780601f106130e45761010080835404028352916020019161310f565b820191906000526020600020905b8154815290600101906020018083116130f257829003601f168201915b5050505050815260200160028201805461312890613f9f565b80601f016020809104026020016040519081016040528092919081815260200182805461315490613f9f565b80156131a15780601f10613176576101008083540402835291602001916131a1565b820191906000526020600020905b81548152906001019060200180831161318457829003601f168201915b50505091835250506003820154602082015260048201546001600160a01b038082166040840152600160a01b90910460ff161515606083015260059092015460809182015282015191925083811691160361323e5760405162461bcd60e51b815260206004820152601960248201527f596f7520617265207468652070726f6a656374206f776e657200000000000000604482015260640161057b565b6000858152600f602090815260408083206001600160a01b038816845290915290205460ff16156132e95760405162461bcd60e51b815260206004820152604960248201527f546869732073747564656e7420616c726561647920657869737473206f6e207460448201527f68652070726f6a656374206f72207468652070726f6a65637420646f6573206e60648201526837ba1032bc34b9ba1760b91b608482015260a40161057b565b6001600160a01b038416600090815260066020526040812054600160a01b900460ff1615159003613390576040805180820182526001600160a01b03808716808352600160208085018281526000848152600683528781209651875492511515600160a01b026001600160a81b031990931696169590951717909455898352600c845293822080549485018155825291902090910180546001600160a01b03191690911790555b6000858152600f602090815260408083206001600160a01b03881684528252808320805460ff1916600117905560109091528120805491612a7d83613fff565b6001600160a01b0383163b15610e5457604051630a85bd0160e11b81526001600160a01b0384169063150b7a02906134129088908890879087906004016141d6565b6020604051808303816000875af192505050801561344d575060408051601f3d908101601f1916820190925261344a91810190614213565b60015b6134b6573d80801561347b576040519150601f19603f3d011682016040523d82523d6000602084013e613480565b606091505b5080516000036134ae57604051633250574960e11b81526001600160a01b038516600482015260240161057b565b805181602001fd5b6001600160e01b03198116630a85bd0160e11b146134f257604051633250574960e11b81526001600160a01b038516600482015260240161057b565b505050505050565b6060600061350783613710565b60010190506000816001600160401b0381111561352657613526613d8c565b6040519080825280601f01601f191660200182016040528015613550576020820181803683370190505b5090508181016020015b600019016f181899199a1a9b1b9c1cb0b131b232b360811b600a86061a8153600a850494508461355a57509392505050565b80806135a057506001600160a01b03821615155b156136625760006135b084612e4a565b90506001600160a01b038316158015906135dc5750826001600160a01b0316816001600160a01b031614155b80156135ef57506135ed8184612be8565b155b156136185760405163a9fbf51f60e01b81526001600160a01b038416600482015260240161057b565b81156136605783856001600160a01b0316826001600160a01b03167f8c5be1e5ebec7d5bd14f71427d1e84f3dd0314c0f7b2291e5b200ac8c7c3b92560405160405180910390a45b505b5050600090815260046020526040902080546001600160a01b0319166001600160a01b0392909216919091179055565b61369d8383836137e8565b610e76576001600160a01b0383166136cb57604051637e27328960e01b81526004810182905260240161057b565b60405163177e802f60e01b81526001600160a01b03831660048201526024810182905260440161057b565b61055182826040518060200160405280600081525061384e565b60008072184f03e93ff9f4daa797ed6e38ed64bf6a1f0160401b831061374f5772184f03e93ff9f4daa797ed6e38ed64bf6a1f0160401b830492506040015b6d04ee2d6d415b85acef8100000000831061377b576d04ee2d6d415b85acef8100000000830492506020015b662386f26fc10000831061379957662386f26fc10000830492506010015b6305f5e10083106137b1576305f5e100830492506008015b61271083106137c557612710830492506004015b606483106137d7576064830492506002015b600a83106104855760010192915050565b60006001600160a01b038316158015906138465750826001600160a01b0316846001600160a01b0316148061382257506138228484612be8565b8061384657506000828152600460205260409020546001600160a01b038481169116145b949350505050565b6138588383613866565b610e763360008585856133d0565b6001600160a01b03821661389057604051633250574960e11b81526000600482015260240161057b565b600061389e83836000612e90565b90506001600160a01b03811615610e76576040516339e3563760e11b81526000600482015260240161057b565b6040518060e001604052806000815260200160608152602001606081526020016000815260200160006001600160a01b03168152602001600015158152602001600081525090565b604051806101000160405280600081526020016060815260200160001515815260200160006001600160a01b031681526020016000815260200160008152602001600015158152602001600081525090565b6001600160e01b031981168114612faa57600080fd5b60006020828403121561398d57600080fd5b81356125d681613965565b60005b838110156139b357818101518382015260200161399b565b50506000910152565b600081518084526139d4816020860160208601613998565b601f01601f19169290920160200192915050565b6020815260006125d660208301846139bc565b600060208284031215613a0d57600080fd5b5035919050565b80356001600160a01b0381168114613a2b57600080fd5b919050565b60008060408385031215613a4357600080fd5b613a4c83613a14565b946020939093013593505050565b600080600060608486031215613a6f57600080fd5b613a7884613a14565b9250613a8660208501613a14565b9150604084013590509250925092565b60006020808301818452808551808352604092508286019150828160051b87010184880160005b83811015613b4c57603f19898403018552815160e08151855288820151818a870152613aeb828701826139bc565b9150508782015185820389870152613b0382826139bc565b606084810151908801526080808501516001600160a01b03169088015260a08085015115159088015260c093840151939096019290925250509386019390860190600101613abd565b509098975050505050505050565b60008060408385031215613b6d57600080fd5b50508035926020909101359150565b60008060408385031215613b8f57600080fd5b82359150613b9f60208401613a14565b90509250929050565b6000610100825184526020830151816020860152613bc8828601826139bc565b91505060408301511515604085015260018060a01b0360608401511660608501526080830151608085015260a083015160a085015260c0830151151560c085015260e083015160e08501528091505092915050565b6000602080830181845280855180835260408601915060408160051b870101925083870160005b82811015613c7257603f19888603018452613c60858351613ba8565b94509285019290850190600101613c44565b5092979650505050505050565b600060208284031215613c9157600080fd5b6125d682613a14565b6020815260006125d66020830184613ba8565b602080825282518282018190526000919060409081850190868401855b82811015613cf857815180516001600160a01b03168552860151868501529284019290850190600101613cca565b5091979650505050505050565b80358015158114613a2b57600080fd5b60008060408385031215613d2857600080fd5b613d3183613a14565b9150613b9f60208401613d05565b602080825282518282018190526000919060409081850190868401855b82811015613cf857815180516001600160a01b031685528601511515868501529284019290850190600101613d5c565b634e487b7160e01b600052604160045260246000fd5b60006001600160401b0380841115613dbc57613dbc613d8c565b604051601f8501601f19908116603f01168101908282118183101715613de457613de4613d8c565b81604052809350858152868686011115613dfd57600080fd5b858560208301376000602087830101525050509392505050565b60008060008060808587031215613e2d57600080fd5b613e3685613a14565b9350613e4460208601613a14565b92506040850135915060608501356001600160401b03811115613e6657600080fd5b8501601f81018713613e7757600080fd5b613e8687823560208401613da2565b91505092959194509250565b600082601f830112613ea357600080fd5b6125d683833560208501613da2565b60008060408385031215613ec557600080fd5b8235915060208301356001600160401b03811115613ee257600080fd5b613eee85828601613e92565b9150509250929050565b60008060008060808587031215613f0e57600080fd5b84356001600160401b0380821115613f2557600080fd5b613f3188838901613e92565b95506020870135915080821115613f4757600080fd5b50613f5487828801613e92565b93505060408501359150613f6a60608601613d05565b905092959194509250565b60008060408385031215613f8857600080fd5b613f9183613a14565b9150613b9f60208401613a14565b600181811c90821680613fb357607f821691505b60208210810361194357634e487b7160e01b600052602260045260246000fd5b634e487b7160e01b600052603260045260246000fd5b634e487b7160e01b600052601160045260246000fd5b60006001820161401157614011613fe9565b5060010190565b6020808252604d908201527f596f7520617265206e6f742074686520766572696669657220666f722074686960408201527f732070726f6a65637420616e642063616e6e6f7420766572696679207468697360608201526c1030b1b434b2bb32b6b2b73a1760991b608082015260a00190565b60008161409a5761409a613fe9565b506000190190565b600083516140b4818460208801613998565b8351908301906140c8818360208801613998565b01949350505050565b601f821115610e7657600081815260208120601f850160051c810160208610156140f85750805b601f850160051c820191505b818110156134f257828155600101614104565b81516001600160401b0381111561413057614130613d8c565b6141448161413e8454613f9f565b846140d1565b602080601f83116001811461417957600084156141615750858301515b600019600386901b1c1916600185901b1785556134f2565b600085815260208120601f198616915b828110156141a857888601518255948401946001909101908401614189565b50858210156141c65787850151600019600388901b60f8161c191681555b5050505050600190811b01905550565b6001600160a01b0385811682528416602082015260408101839052608060608201819052600090614209908301846139bc565b9695505050505050565b60006020828403121561422557600080fd5b81516125d68161396556fea2646970667358221220ccf5efc427f82e7c661a04dee4cfa7b6df13296564131fe7412897979638f76b64736f6c63430008140033",
  "devdoc": {
    "errors": {
      "ERC721IncorrectOwner(address,uint256,address)": [
        {
          "details": "Indicates an error related to the ownership over a particular token. Used in transfers.",
          "params": {
            "owner": "Address of the current owner of a token.",
            "sender": "Address whose tokens are being transferred.",
            "tokenId": "Identifier number of a token."
          }
        }
      ],
      "ERC721InsufficientApproval(address,uint256)": [
        {
          "details": "Indicates a failure with the `operator`s approval. Used in transfers.",
          "params": {
            "operator": "Address that may be allowed to operate on tokens without being their owner.",
            "tokenId": "Identifier number of a token."
          }
        }
      ],
      "ERC721InvalidApprover(address)": [
        {
          "details": "Indicates a failure with the `approver` of a token to be approved. Used in approvals.",
          "params": {
            "approver": "Address initiating an approval operation."
          }
        }
      ],
      "ERC721InvalidOperator(address)": [
        {
          "details": "Indicates a failure with the `operator` to be approved. Used in approvals.",
          "params": {
            "operator": "Address that may be allowed to operate on tokens without being their owner."
          }
        }
      ],
      "ERC721InvalidOwner(address)": [
        {
          "details": "Indicates that an address can't be an owner. For example, `address(0)` is a forbidden owner in ERC-20. Used in balance queries.",
          "params": {
            "owner": "Address of the current owner of a token."
          }
        }
      ],
      "ERC721InvalidReceiver(address)": [
        {
          "details": "Indicates a failure with the token `receiver`. Used in transfers.",
          "params": {
            "receiver": "Address to which tokens are being transferred."
          }
        }
      ],
      "ERC721InvalidSender(address)": [
        {
          "details": "Indicates a failure with the token `sender`. Used in transfers.",
          "params": {
            "sender": "Address whose tokens are being transferred."
          }
        }
      ],
      "ERC721NonexistentToken(uint256)": [
        {
          "details": "Indicates a `tokenId` whose `owner` is the zero address.",
          "params": {
            "tokenId": "Identifier number of a token."
          }
        }
      ]
    },
    "events": {
      "Approval(address,address,uint256)": {
        "details": "Emitted when `owner` enables `approved` to manage the `tokenId` token."
      },
      "ApprovalForAll(address,address,bool)": {
        "details": "Emitted when `owner` enables or disables (`approved`) `operator` to manage all of its assets."
      },
      "Transfer(address,address,uint256)": {
        "details": "Emitted when `tokenId` token is transferred from `from` to `to`."
      }
    },
    "kind": "dev",
    "methods": {
      "approve(address,uint256)": {
        "details": "See {IERC721-approve}."
      },
      "balanceOf(address)": {
        "details": "See {IERC721-balanceOf}."
      },
      "getApproved(uint256)": {
        "details": "See {IERC721-getApproved}."
      },
      "isApprovedForAll(address,address)": {
        "details": "See {IERC721-isApprovedForAll}."
      },
      "name()": {
        "details": "See {IERC721Metadata-name}."
      },
      "ownerOf(uint256)": {
        "details": "See {IERC721-ownerOf}."
      },
      "safeTransferFrom(address,address,uint256)": {
        "details": "See {IERC721-safeTransferFrom}."
      },
      "safeTransferFrom(address,address,uint256,bytes)": {
        "details": "See {IERC721-safeTransferFrom}."
      },
      "setApprovalForAll(address,bool)": {
        "details": "See {IERC721-setApprovalForAll}."
      },
      "supportsInterface(bytes4)": {
        "details": "See {IERC165-supportsInterface}."
      },
      "symbol()": {
        "details": "See {IERC721Metadata-symbol}."
      },
      "tokenURI(uint256)": {
        "details": "See {IERC721Metadata-tokenURI}."
      },
      "transferFrom(address,address,uint256)": {
        "details": "See {IERC721-transferFrom}."
      }
    },
    "version": 1
  },
  "userdoc": {
    "kind": "user",
    "methods": {},
    "version": 1
  },
  "storageLayout": {
    "storage": [
      {
        "astId": 169,
        "contract": "contracts/Main.sol:Main",
        "label": "_name",
        "offset": 0,
        "slot": "0",
        "type": "t_string_storage"
      },
      {
        "astId": 171,
        "contract": "contracts/Main.sol:Main",
        "label": "_symbol",
        "offset": 0,
        "slot": "1",
        "type": "t_string_storage"
      },
      {
        "astId": 175,
        "contract": "contracts/Main.sol:Main",
        "label": "_owners",
        "offset": 0,
        "slot": "2",
        "type": "t_mapping(t_uint256,t_address)"
      },
      {
        "astId": 179,
        "contract": "contracts/Main.sol:Main",
        "label": "_balances",
        "offset": 0,
        "slot": "3",
        "type": "t_mapping(t_address,t_uint256)"
      },
      {
        "astId": 183,
        "contract": "contracts/Main.sol:Main",
        "label": "_tokenApprovals",
        "offset": 0,
        "slot": "4",
        "type": "t_mapping(t_uint256,t_address)"
      },
      {
        "astId": 189,
        "contract": "contracts/Main.sol:Main",
        "label": "_operatorApprovals",
        "offset": 0,
        "slot": "5",
        "type": "t_mapping(t_address,t_mapping(t_address,t_bool))"
      },
      {
        "astId": 6200,
        "contract": "contracts/Main.sol:Main",
        "label": "students",
        "offset": 0,
        "slot": "6",
        "type": "t_mapping(t_address,t_struct(Student)7531_storage)"
      },
      {
        "astId": 6204,
        "contract": "contracts/Main.sol:Main",
        "label": "verifiers",
        "offset": 0,
        "slot": "7",
        "type": "t_array(t_struct(Verifier)7547_storage)dyn_storage"
      },
      {
        "astId": 6208,
        "contract": "contracts/Main.sol:Main",
        "label": "projects",
        "offset": 0,
        "slot": "8",
        "type": "t_array(t_struct(Project)7524_storage)dyn_storage"
      },
      {
        "astId": 6212,
        "contract": "contracts/Main.sol:Main",
        "label": "achievements",
        "offset": 0,
        "slot": "9",
        "type": "t_array(t_struct(Achievement)6185_storage)dyn_storage"
      },
      {
        "astId": 6216,
        "contract": "contracts/Main.sol:Main",
        "label": "currentProjectMVP",
        "offset": 0,
        "slot": "10",
        "type": "t_mapping(t_uint256,t_address)"
      },
      {
        "astId": 6220,
        "contract": "contracts/Main.sol:Main",
        "label": "currentProjectMostAchievementsCount",
        "offset": 0,
        "slot": "11",
        "type": "t_mapping(t_uint256,t_uint256)"
      },
      {
        "astId": 6225,
        "contract": "contracts/Main.sol:Main",
        "label": "projectStudents",
        "offset": 0,
        "slot": "12",
        "type": "t_mapping(t_uint256,t_array(t_address)dyn_storage)"
      },
      {
        "astId": 6231,
        "contract": "contracts/Main.sol:Main",
        "label": "projectVerifierExists",
        "offset": 0,
        "slot": "13",
        "type": "t_mapping(t_uint256,t_mapping(t_address,t_bool))"
      },
      {
        "astId": 6237,
        "contract": "contracts/Main.sol:Main",
        "label": "verifierAlreadyVerifiedAchievement",
        "offset": 0,
        "slot": "14",
        "type": "t_mapping(t_address,t_mapping(t_uint256,t_bool))"
      },
      {
        "astId": 6243,
        "contract": "contracts/Main.sol:Main",
        "label": "projectStudentExists",
        "offset": 0,
        "slot": "15",
        "type": "t_mapping(t_uint256,t_mapping(t_address,t_bool))"
      },
      {
        "astId": 6247,
        "contract": "contracts/Main.sol:Main",
        "label": "myParticipatedProjectsCount",
        "offset": 0,
        "slot": "16",
        "type": "t_mapping(t_address,t_uint256)"
      },
      {
        "astId": 6251,
        "contract": "contracts/Main.sol:Main",
        "label": "myOwnedProjectsCount",
        "offset": 0,
        "slot": "17",
        "type": "t_mapping(t_address,t_uint256)"
      },
      {
        "astId": 6255,
        "contract": "contracts/Main.sol:Main",
        "label": "myVerificationProjectsCount",
        "offset": 0,
        "slot": "18",
        "type": "t_mapping(t_address,t_uint256)"
      },
      {
        "astId": 6259,
        "contract": "contracts/Main.sol:Main",
        "label": "myUnverifiedAchievementsCount",
        "offset": 0,
        "slot": "19",
        "type": "t_mapping(t_address,t_uint256)"
      },
      {
        "astId": 6263,
        "contract": "contracts/Main.sol:Main",
        "label": "myVerifiedAchievementsCount",
        "offset": 0,
        "slot": "20",
        "type": "t_mapping(t_address,t_uint256)"
      },
      {
        "astId": 6267,
        "contract": "contracts/Main.sol:Main",
        "label": "myStudentAchievementsCount",
        "offset": 0,
        "slot": "21",
        "type": "t_mapping(t_address,t_uint256)"
      },
      {
        "astId": 6273,
        "contract": "contracts/Main.sol:Main",
        "label": "myVerifiedStudentAchievementsCountByProject",
        "offset": 0,
        "slot": "22",
        "type": "t_mapping(t_address,t_mapping(t_uint256,t_uint256))"
      },
      {
        "astId": 6277,
        "contract": "contracts/Main.sol:Main",
        "label": "nftsAchievements",
        "offset": 0,
        "slot": "23",
        "type": "t_mapping(t_uint256,t_uint256)"
      },
      {
        "astId": 6280,
        "contract": "contracts/Main.sol:Main",
        "label": "projectCounter",
        "offset": 0,
        "slot": "24",
        "type": "t_uint256"
      },
      {
        "astId": 6283,
        "contract": "contracts/Main.sol:Main",
        "label": "achievementCounter",
        "offset": 0,
        "slot": "25",
        "type": "t_uint256"
      },
      {
        "astId": 6285,
        "contract": "contracts/Main.sol:Main",
        "label": "_nextTokenId",
        "offset": 0,
        "slot": "26",
        "type": "t_uint256"
      }
    ],
    "types": {
      "t_address": {
        "encoding": "inplace",
        "label": "address",
        "numberOfBytes": "20"
      },
      "t_array(t_address)dyn_storage": {
        "base": "t_address",
        "encoding": "dynamic_array",
        "label": "address[]",
        "numberOfBytes": "32"
      },
      "t_array(t_struct(Achievement)6185_storage)dyn_storage": {
        "base": "t_struct(Achievement)6185_storage",
        "encoding": "dynamic_array",
        "label": "struct Achievement[]",
        "numberOfBytes": "32"
      },
      "t_array(t_struct(Project)7524_storage)dyn_storage": {
        "base": "t_struct(Project)7524_storage",
        "encoding": "dynamic_array",
        "label": "struct Project[]",
        "numberOfBytes": "32"
      },
      "t_array(t_struct(Verifier)7547_storage)dyn_storage": {
        "base": "t_struct(Verifier)7547_storage",
        "encoding": "dynamic_array",
        "label": "struct Verifier[]",
        "numberOfBytes": "32"
      },
      "t_bool": {
        "encoding": "inplace",
        "label": "bool",
        "numberOfBytes": "1"
      },
      "t_mapping(t_address,t_bool)": {
        "encoding": "mapping",
        "key": "t_address",
        "label": "mapping(address => bool)",
        "numberOfBytes": "32",
        "value": "t_bool"
      },
      "t_mapping(t_address,t_mapping(t_address,t_bool))": {
        "encoding": "mapping",
        "key": "t_address",
        "label": "mapping(address => mapping(address => bool))",
        "numberOfBytes": "32",
        "value": "t_mapping(t_address,t_bool)"
      },
      "t_mapping(t_address,t_mapping(t_uint256,t_bool))": {
        "encoding": "mapping",
        "key": "t_address",
        "label": "mapping(address => mapping(uint256 => bool))",
        "numberOfBytes": "32",
        "value": "t_mapping(t_uint256,t_bool)"
      },
      "t_mapping(t_address,t_mapping(t_uint256,t_uint256))": {
        "encoding": "mapping",
        "key": "t_address",
        "label": "mapping(address => mapping(uint256 => uint256))",
        "numberOfBytes": "32",
        "value": "t_mapping(t_uint256,t_uint256)"
      },
      "t_mapping(t_address,t_struct(Student)7531_storage)": {
        "encoding": "mapping",
        "key": "t_address",
        "label": "mapping(address => struct Student)",
        "numberOfBytes": "32",
        "value": "t_struct(Student)7531_storage"
      },
      "t_mapping(t_address,t_uint256)": {
        "encoding": "mapping",
        "key": "t_address",
        "label": "mapping(address => uint256)",
        "numberOfBytes": "32",
        "value": "t_uint256"
      },
      "t_mapping(t_uint256,t_address)": {
        "encoding": "mapping",
        "key": "t_uint256",
        "label": "mapping(uint256 => address)",
        "numberOfBytes": "32",
        "value": "t_address"
      },
      "t_mapping(t_uint256,t_array(t_address)dyn_storage)": {
        "encoding": "mapping",
        "key": "t_uint256",
        "label": "mapping(uint256 => address[])",
        "numberOfBytes": "32",
        "value": "t_array(t_address)dyn_storage"
      },
      "t_mapping(t_uint256,t_bool)": {
        "encoding": "mapping",
        "key": "t_uint256",
        "label": "mapping(uint256 => bool)",
        "numberOfBytes": "32",
        "value": "t_bool"
      },
      "t_mapping(t_uint256,t_mapping(t_address,t_bool))": {
        "encoding": "mapping",
        "key": "t_uint256",
        "label": "mapping(uint256 => mapping(address => bool))",
        "numberOfBytes": "32",
        "value": "t_mapping(t_address,t_bool)"
      },
      "t_mapping(t_uint256,t_uint256)": {
        "encoding": "mapping",
        "key": "t_uint256",
        "label": "mapping(uint256 => uint256)",
        "numberOfBytes": "32",
        "value": "t_uint256"
      },
      "t_string_storage": {
        "encoding": "bytes",
        "label": "string",
        "numberOfBytes": "32"
      },
      "t_struct(Achievement)6185_storage": {
        "encoding": "inplace",
        "label": "struct Achievement",
        "members": [
          {
            "astId": 6170,
            "contract": "contracts/Main.sol:Main",
            "label": "achievementId",
            "offset": 0,
            "slot": "0",
            "type": "t_uint256"
          },
          {
            "astId": 6172,
            "contract": "contracts/Main.sol:Main",
            "label": "description",
            "offset": 0,
            "slot": "1",
            "type": "t_string_storage"
          },
          {
            "astId": 6174,
            "contract": "contracts/Main.sol:Main",
            "label": "isAchievement",
            "offset": 0,
            "slot": "2",
            "type": "t_bool"
          },
          {
            "astId": 6176,
            "contract": "contracts/Main.sol:Main",
            "label": "studentWallet",
            "offset": 1,
            "slot": "2",
            "type": "t_address"
          },
          {
            "astId": 6178,
            "contract": "contracts/Main.sol:Main",
            "label": "projectId",
            "offset": 0,
            "slot": "3",
            "type": "t_uint256"
          },
          {
            "astId": 6180,
            "contract": "contracts/Main.sol:Main",
            "label": "verifiedCount",
            "offset": 0,
            "slot": "4",
            "type": "t_uint256"
          },
          {
            "astId": 6182,
            "contract": "contracts/Main.sol:Main",
            "label": "isVerified",
            "offset": 0,
            "slot": "5",
            "type": "t_bool"
          },
          {
            "astId": 6184,
            "contract": "contracts/Main.sol:Main",
            "label": "nftTokenId",
            "offset": 0,
            "slot": "6",
            "type": "t_uint256"
          }
        ],
        "numberOfBytes": "224"
      },
      "t_struct(Project)7524_storage": {
        "encoding": "inplace",
        "label": "struct Project",
        "members": [
          {
            "astId": 7511,
            "contract": "contracts/Main.sol:Main",
            "label": "projectId",
            "offset": 0,
            "slot": "0",
            "type": "t_uint256"
          },
          {
            "astId": 7513,
            "contract": "contracts/Main.sol:Main",
            "label": "title",
            "offset": 0,
            "slot": "1",
            "type": "t_string_storage"
          },
          {
            "astId": 7515,
            "contract": "contracts/Main.sol:Main",
            "label": "description",
            "offset": 0,
            "slot": "2",
            "type": "t_string_storage"
          },
          {
            "astId": 7517,
            "contract": "contracts/Main.sol:Main",
            "label": "deadlineTimestamp",
            "offset": 0,
            "slot": "3",
            "type": "t_uint256"
          },
          {
            "astId": 7519,
            "contract": "contracts/Main.sol:Main",
            "label": "owner",
            "offset": 0,
            "slot": "4",
            "type": "t_address"
          },
          {
            "astId": 7521,
            "contract": "contracts/Main.sol:Main",
            "label": "isPublic",
            "offset": 20,
            "slot": "4",
            "type": "t_bool"
          },
          {
            "astId": 7523,
            "contract": "contracts/Main.sol:Main",
            "label": "requiredVerificationsCount",
            "offset": 0,
            "slot": "5",
            "type": "t_uint256"
          }
        ],
        "numberOfBytes": "192"
      },
      "t_struct(Student)7531_storage": {
        "encoding": "inplace",
        "label": "struct Student",
        "members": [
          {
            "astId": 7528,
            "contract": "contracts/Main.sol:Main",
            "label": "wallet",
            "offset": 0,
            "slot": "0",
            "type": "t_address"
          },
          {
            "astId": 7530,
            "contract": "contracts/Main.sol:Main",
            "label": "isStudent",
            "offset": 20,
            "slot": "0",
            "type": "t_bool"
          }
        ],
        "numberOfBytes": "32"
      },
      "t_struct(Verifier)7547_storage": {
        "encoding": "inplace",
        "label": "struct Verifier",
        "members": [
          {
            "astId": 7544,
            "contract": "contracts/Main.sol:Main",
            "label": "wallet",
            "offset": 0,
            "slot": "0",
            "type": "t_address"
          },
          {
            "astId": 7546,
            "contract": "contracts/Main.sol:Main",
            "label": "isVerifier",
            "offset": 20,
            "slot": "0",
            "type": "t_bool"
          }
        ],
        "numberOfBytes": "32"
      },
      "t_uint256": {
        "encoding": "inplace",
        "label": "uint256",
        "numberOfBytes": "32"
      }
    }
  }
}