{
  "address": "0x5FbDB2315678afecb367f032d93F642f64180aa3",
  "abi": [
    {
      "inputs": [],
      "stateMutability": "nonpayable",
      "type": "constructor"
    },
    {
      "inputs": [
        {
          "internalType": "uint256",
          "name": "projectId",
          "type": "uint256"
        },
        {
          "internalType": "address",
          "name": "studentAddress",
          "type": "address"
        }
      ],
      "name": "addStudentToProjectWhitelist",
      "outputs": [],
      "stateMutability": "nonpayable",
      "type": "function"
    },
    {
      "inputs": [
        {
          "internalType": "uint256",
          "name": "projectId",
          "type": "uint256"
        },
        {
          "internalType": "address",
          "name": "verifierAddress",
          "type": "address"
        }
      ],
      "name": "addVerifierToProject",
      "outputs": [],
      "stateMutability": "nonpayable",
      "type": "function"
    },
    {
      "inputs": [
        {
          "internalType": "string",
          "name": "title",
          "type": "string"
        },
        {
          "internalType": "string",
          "name": "description",
          "type": "string"
        },
        {
          "internalType": "uint256",
          "name": "deadlineTimestamp",
          "type": "uint256"
        },
        {
          "internalType": "bool",
          "name": "isPublic",
          "type": "bool"
        }
      ],
      "name": "createProject",
      "outputs": [],
      "stateMutability": "nonpayable",
      "type": "function"
    },
    {
      "inputs": [],
      "name": "getMyProjects",
      "outputs": [
        {
          "components": [
            {
              "internalType": "string",
              "name": "title",
              "type": "string"
            },
            {
              "internalType": "string",
              "name": "description",
              "type": "string"
            },
            {
              "internalType": "uint256",
              "name": "deadlineTimestamp",
              "type": "uint256"
            },
            {
              "internalType": "address",
              "name": "owner",
              "type": "address"
            },
            {
              "internalType": "bool",
              "name": "isPublic",
              "type": "bool"
            }
          ],
          "internalType": "struct Project[]",
          "name": "",
          "type": "tuple[]"
        }
      ],
      "stateMutability": "view",
      "type": "function"
    },
    {
      "inputs": [
        {
          "internalType": "uint256",
          "name": "projectId",
          "type": "uint256"
        }
      ],
      "name": "getProject",
      "outputs": [
        {
          "components": [
            {
              "internalType": "string",
              "name": "title",
              "type": "string"
            },
            {
              "internalType": "string",
              "name": "description",
              "type": "string"
            },
            {
              "internalType": "uint256",
              "name": "deadlineTimestamp",
              "type": "uint256"
            },
            {
              "internalType": "address",
              "name": "owner",
              "type": "address"
            },
            {
              "internalType": "bool",
              "name": "isPublic",
              "type": "bool"
            }
          ],
          "internalType": "struct Project",
          "name": "",
          "type": "tuple"
        }
      ],
      "stateMutability": "view",
      "type": "function"
    },
    {
      "inputs": [
        {
          "internalType": "uint256",
          "name": "projectId",
          "type": "uint256"
        },
        {
          "internalType": "string",
          "name": "description",
          "type": "string"
        }
      ],
      "name": "postAchievement",
      "outputs": [],
      "stateMutability": "nonpayable",
      "type": "function"
    },
    {
      "inputs": [
        {
          "internalType": "uint256",
          "name": "projectId",
          "type": "uint256"
        }
      ],
      "name": "registerSelfStudent",
      "outputs": [],
      "stateMutability": "nonpayable",
      "type": "function"
    },
    {
      "inputs": [
        {
          "internalType": "uint256",
          "name": "projectId",
          "type": "uint256"
        },
        {
          "internalType": "uint256",
          "name": "achievementId",
          "type": "uint256"
        },
        {
          "internalType": "bool",
          "name": "verifiedStatus",
          "type": "bool"
        }
      ],
      "name": "setVerified",
      "outputs": [],
      "stateMutability": "nonpayable",
      "type": "function"
    }
  ],
  "transactionHash": "0x34c0781236600916a59680099e76f68b171d1658623930554dd73d4f936ef25f",
  "args": [],
  "numDeployments": 1,
  "solcInputHash": "fe6bf6a8e24e2986ec2f6bc278128ea3",
  "bytecode": "0x60806040526000600855600060095534801561001a57600080fd5b506118e08061002a6000396000f3fe608060405234801561001057600080fd5b50600436106100885760003560e01c8063d688af8c1161005b578063d688af8c146100db578063e4f655b0146100ee578063f0f3f2c81461010c578063f8451d5f1461012c57600080fd5b80631198de771461008d5780634dcc0a15146100a2578063b04c9760146100b5578063cf26d344146100c8575b600080fd5b6100a061009b366004611348565b61013f565b005b6100a06100b036600461137d565b610332565b6100a06100c336600461137d565b61060b565b6100a06100d636600461145c565b6107e1565b6100a06100e93660046114a3565b610ab2565b6100f6610b70565b60405161010391906115ca565b60405180910390f35b61011f61011a36600461162c565b610d33565b6040516101039190611645565b6100a061013a36600461162c565b610ee2565b82826000600260008381526020019081526020016000206040518060400160405290816000820180546101719061165f565b80601f016020809104026020016040519081016040528092919081815260200182805461019d9061165f565b80156101ea5780601f106101bf576101008083540402835291602001916101ea565b820191906000526020600020905b8154815290600101906020018083116101cd57829003601f168201915b505050918352505060019182015460ff908116151560209283015260008781526007835260408082203383529093529190912054929350600160a01b9092049091161515146102bc5760405162461bcd60e51b815260206004820152604d60248201527f596f7520617265206e6f742074686520766572696669657220666f722074686960448201527f732070726f6a65637420616e642063616e6e6f7420766572696679207468697360648201526c1030b1b434b2bb32b6b2b73a1760991b608482015260a4015b60405180910390fd5b600085815260026020908152604080832060018101805460ff19168915151790558984526004835281842089855260038452828520546001600160a01b031685529092529091208061030e83826116e8565b506001918201549101805460ff191660ff9092161515919091179055505050505050565b816000600160008381526020019081526020016000206040518060a00160405290816000820180546103639061165f565b80601f016020809104026020016040519081016040528092919081815260200182805461038f9061165f565b80156103dc5780601f106103b1576101008083540402835291602001916103dc565b820191906000526020600020905b8154815290600101906020018083116103bf57829003601f168201915b505050505081526020016001820180546103f59061165f565b80601f01602080910402602001604051908101604052809291908181526020018280546104219061165f565b801561046e5780601f106104435761010080835404028352916020019161046e565b820191906000526020600020905b81548152906001019060200180831161045157829003601f168201915b5050509183525050600282015460208201526003909101546001600160a01b038082166040840152600160a01b90910460ff16151560609283015290820151919250339116146104f85760405162461bcd60e51b81526020600482015260156024820152742737ba103a343290383937b532b1ba1037bbb732b960591b60448201526064016102b3565b60008481526007602090815260408083206001600160a01b038781168552908352928190208151808301909252549283168152600160a01b90920460ff16158015918301919091526105b25760405162461bcd60e51b815260206004820152603b60248201527f566572696669657220776974682073756368206164647265737320666f72207460448201527f6869732070726f6a65637420616c7265616479206578697374732e000000000060648201526084016102b3565b600160208083019182526001600160a01b03958616808452600097885260078252604080892091895291529095209051815495511515600160a01b026001600160a81b0319909616941693909317939093179091555050565b816000600160008381526020019081526020016000206040518060a001604052908160008201805461063c9061165f565b80601f01602080910402602001604051908101604052809291908181526020018280546106689061165f565b80156106b55780601f1061068a576101008083540402835291602001916106b5565b820191906000526020600020905b81548152906001019060200180831161069857829003601f168201915b505050505081526020016001820180546106ce9061165f565b80601f01602080910402602001604051908101604052809291908181526020018280546106fa9061165f565b80156107475780601f1061071c57610100808354040283529160200191610747565b820191906000526020600020905b81548152906001019060200180831161072a57829003601f168201915b5050509183525050600282015460208201526003909101546001600160a01b038082166040840152600160a01b90910460ff16151560609283015290820151919250339116146107d15760405162461bcd60e51b81526020600482015260156024820152742737ba103a343290383937b532b1ba1037bbb732b960591b60448201526064016102b3565b6107db84846110f0565b50505050565b816000600160008381526020019081526020016000206040518060a00160405290816000820180546108129061165f565b80601f016020809104026020016040519081016040528092919081815260200182805461083e9061165f565b801561088b5780601f106108605761010080835404028352916020019161088b565b820191906000526020600020905b81548152906001019060200180831161086e57829003601f168201915b505050505081526020016001820180546108a49061165f565b80601f01602080910402602001604051908101604052809291908181526020018280546108d09061165f565b801561091d5780601f106108f25761010080835404028352916020019161091d565b820191906000526020600020905b81548152906001019060200180831161090057829003601f168201915b505050918352505060028201546020808301919091526003909201546001600160a01b03811660408084019190915260ff600160a01b92839004811615156060909401939093526000878152600585528181203382529094529092205492935091041615156001146109e35760405162461bcd60e51b815260206004820152602960248201527f596f7520617265206e6f74207468652073747564656e7420666f72207468697360448201526810383937b532b1ba1760b91b60648201526084016102b3565b600980549060006109f3836117c9565b9091555050604080518082018252848152600060208083018290526009548252600290529190912081518291908190610a2c90826117f0565b506020918201516001909101805491151560ff19909216919091179055600954600090815260038252604080822080546001600160a01b03191633908117909155888352600484528183209083529092522081518291908190610a8f90826117f0565b50602091909101516001909101805460ff19169115159190911790555050505050565b60088054906000610ac2836117c9565b90915550506040805160a08101825285815260208082018690528183018590523360608301528315156080830152600854600090815260019091529190912081518190610b0f90826117f0565b5060208201516001820190610b2490826117f0565b50604082015160028201556060820151600390910180546080909301511515600160a01b026001600160a81b03199093166001600160a01b039092169190911791909117905550505050565b336000908152600660209081526040808320805482518185028101850190935280835260609492939192909184015b82821015610d2a57838290600052602060002090600402016040518060a0016040529081600082018054610bd29061165f565b80601f0160208091040260200160405190810160405280929190818152602001828054610bfe9061165f565b8015610c4b5780601f10610c2057610100808354040283529160200191610c4b565b820191906000526020600020905b815481529060010190602001808311610c2e57829003601f168201915b50505050508152602001600182018054610c649061165f565b80601f0160208091040260200160405190810160405280929190818152602001828054610c909061165f565b8015610cdd5780601f10610cb257610100808354040283529160200191610cdd565b820191906000526020600020905b815481529060010190602001808311610cc057829003601f168201915b505050918352505060028201546020808301919091526003909201546001600160a01b0381166040830152600160a01b900460ff1615156060909101529082526001929092019101610b9f565b50505050905090565b610d706040518060a0016040528060608152602001606081526020016000815260200160006001600160a01b031681526020016000151581525090565b60008281526001602052604090819020815160a08101909252805482908290610d989061165f565b80601f0160208091040260200160405190810160405280929190818152602001828054610dc49061165f565b8015610e115780601f10610de657610100808354040283529160200191610e11565b820191906000526020600020905b815481529060010190602001808311610df457829003601f168201915b50505050508152602001600182018054610e2a9061165f565b80601f0160208091040260200160405190810160405280929190818152602001828054610e569061165f565b8015610ea35780601f10610e7857610100808354040283529160200191610ea3565b820191906000526020600020905b815481529060010190602001808311610e8657829003601f168201915b5050509183525050600282015460208201526003909101546001600160a01b0381166040830152600160a01b900460ff16151560609091015292915050565b600081815260016020526040808220815160a08101909252805482908290610f099061165f565b80601f0160208091040260200160405190810160405280929190818152602001828054610f359061165f565b8015610f825780601f10610f5757610100808354040283529160200191610f82565b820191906000526020600020905b815481529060010190602001808311610f6557829003601f168201915b50505050508152602001600182018054610f9b9061165f565b80601f0160208091040260200160405190810160405280929190818152602001828054610fc79061165f565b80156110145780601f10610fe957610100808354040283529160200191611014565b820191906000526020600020905b815481529060010190602001808311610ff757829003601f168201915b5050509183525050600282015460208201526003909101546001600160a01b0381166040830152600160a01b900460ff1615156060909101526080810151909150156110e25760405162461bcd60e51b815260206004820152605160248201527f596f7520646f6e60742068617665207065726d697373696f6e206f7220796f7560448201527f206d7573742062652061646465642062792070726f6a656374206f776e6572206064820152703a37903a3432903bb434ba32b634b9ba1760791b608482015260a4016102b3565b6110ec82336110f0565b5050565b60008281526005602090815260408083206001600160a01b0385168452909152902054600160a01b900460ff16156111a25760405162461bcd60e51b815260206004820152604960248201527f546869732073747564656e7420616c726561647920657869737473206f6e207460448201527f68652070726f6a656374206f72207468652070726f6a65637420646f6573206e60648201526837ba1032bc34b9ba1760b91b608482015260a4016102b3565b6001600160a01b03811660009081526020818152604080832085845260019092528220815491929091600160a01b900460ff16151590036112415781546001600160a81b03199081166001600160a01b03808616918217600160a01b90811780875560009384526020849052604090932080546001600160a01b03198116949093169384178155865482900460ff161515909102919093169091171790555b60008481526005602090815260408083206001600160a01b0387811685529083528184208654815492166001600160a01b031983168117825587546001600160a81b031990931617600160a01b9283900460ff16151590920291909117905560068252822080546001810182559083529120829160040201806112c483826116e8565b506001818101906112d7908401826116e8565b5060028281015490820155600391820180549290910180546001600160a01b031981166001600160a01b039094169384178255915460ff600160a01b91829004161515026001600160a81b031990921690921717905550505050565b8035801515811461134357600080fd5b919050565b60008060006060848603121561135d57600080fd5b833592506020840135915061137460408501611333565b90509250925092565b6000806040838503121561139057600080fd5b8235915060208301356001600160a01b03811681146113ae57600080fd5b809150509250929050565b634e487b7160e01b600052604160045260246000fd5b600082601f8301126113e057600080fd5b813567ffffffffffffffff808211156113fb576113fb6113b9565b604051601f8301601f19908116603f01168101908282118183101715611423576114236113b9565b8160405283815286602085880101111561143c57600080fd5b836020870160208301376000602085830101528094505050505092915050565b6000806040838503121561146f57600080fd5b82359150602083013567ffffffffffffffff81111561148d57600080fd5b611499858286016113cf565b9150509250929050565b600080600080608085870312156114b957600080fd5b843567ffffffffffffffff808211156114d157600080fd5b6114dd888389016113cf565b955060208701359150808211156114f357600080fd5b50611500878288016113cf565b9350506040850135915061151660608601611333565b905092959194509250565b6000815180845260005b818110156115475760208185018101518683018201520161152b565b506000602082860101526020601f19601f83011685010191505092915050565b6000815160a0845261157c60a0850182611521565b9050602083015184820360208601526115958282611521565b604085810151908701526060808601516001600160a01b03169087015260809485015115159490950193909352509192915050565b6000602080830181845280855180835260408601915060408160051b870101925083870160005b8281101561161f57603f1988860301845261160d858351611567565b945092850192908501906001016115f1565b5092979650505050505050565b60006020828403121561163e57600080fd5b5035919050565b6020815260006116586020830184611567565b9392505050565b600181811c9082168061167357607f821691505b60208210810361169357634e487b7160e01b600052602260045260246000fd5b50919050565b601f8211156116e357600081815260208120601f850160051c810160208610156116c05750805b601f850160051c820191505b818110156116df578281556001016116cc565b5050505b505050565b8181036116f3575050565b6116fd825461165f565b67ffffffffffffffff811115611715576117156113b9565b61172981611723845461165f565b84611699565b6000601f82116001811461175d57600083156117455750848201545b600019600385901b1c1916600184901b1784556117c2565b600085815260209020601f19841690600086815260209020845b838110156117975782860154825560019586019590910190602001611777565b50858310156117b55781850154600019600388901b60f8161c191681555b50505060018360011b0184555b5050505050565b6000600182016117e957634e487b7160e01b600052601160045260246000fd5b5060010190565b815167ffffffffffffffff81111561180a5761180a6113b9565b61181881611723845461165f565b602080601f83116001811461184d57600084156118355750858301515b600019600386901b1c1916600185901b1785556116df565b600085815260208120601f198616915b8281101561187c5788860151825594840194600190910190840161185d565b508582101561189a5787850151600019600388901b60f8161c191681555b5050505050600190811b0190555056fea2646970667358221220af0e4d15e3a3648bb875abea672f30790852f8a1d562cbf3661004e3dc9f8a1564736f6c63430008140033",
  "devdoc": {
    "kind": "dev",
    "methods": {},
    "version": 1
  },
  "userdoc": {
    "kind": "user",
    "methods": {},
    "version": 1
  },
  "storageLayout": {
    "storage": [
      {
        "astId": 6334,
        "contract": "contracts/Main.sol:Main",
        "label": "students",
        "offset": 0,
        "slot": "0",
        "type": "t_mapping(t_address,t_struct(Student)6777_storage)"
      },
      {
        "astId": 6339,
        "contract": "contracts/Main.sol:Main",
        "label": "projects",
        "offset": 0,
        "slot": "1",
        "type": "t_mapping(t_uint256,t_struct(Project)6770_storage)"
      },
      {
        "astId": 6344,
        "contract": "contracts/Main.sol:Main",
        "label": "achievements",
        "offset": 0,
        "slot": "2",
        "type": "t_mapping(t_uint256,t_struct(Achievement)6321_storage)"
      },
      {
        "astId": 6348,
        "contract": "contracts/Main.sol:Main",
        "label": "achievementsStudents",
        "offset": 0,
        "slot": "3",
        "type": "t_mapping(t_uint256,t_address)"
      },
      {
        "astId": 6355,
        "contract": "contracts/Main.sol:Main",
        "label": "projectStudentsAchievements",
        "offset": 0,
        "slot": "4",
        "type": "t_mapping(t_uint256,t_mapping(t_address,t_struct(Achievement)6321_storage))"
      },
      {
        "astId": 6362,
        "contract": "contracts/Main.sol:Main",
        "label": "projectStudents",
        "offset": 0,
        "slot": "5",
        "type": "t_mapping(t_uint256,t_mapping(t_address,t_struct(Student)6777_storage))"
      },
      {
        "astId": 6368,
        "contract": "contracts/Main.sol:Main",
        "label": "studentProjects",
        "offset": 0,
        "slot": "6",
        "type": "t_mapping(t_address,t_array(t_struct(Project)6770_storage)dyn_storage)"
      },
      {
        "astId": 6375,
        "contract": "contracts/Main.sol:Main",
        "label": "projectVerifiers",
        "offset": 0,
        "slot": "7",
        "type": "t_mapping(t_uint256,t_mapping(t_address,t_struct(Verifier)6784_storage))"
      },
      {
        "astId": 6378,
        "contract": "contracts/Main.sol:Main",
        "label": "projectCounter",
        "offset": 0,
        "slot": "8",
        "type": "t_uint256"
      },
      {
        "astId": 6381,
        "contract": "contracts/Main.sol:Main",
        "label": "achievementCounter",
        "offset": 0,
        "slot": "9",
        "type": "t_uint256"
      }
    ],
    "types": {
      "t_address": {
        "encoding": "inplace",
        "label": "address",
        "numberOfBytes": "20"
      },
      "t_array(t_struct(Project)6770_storage)dyn_storage": {
        "base": "t_struct(Project)6770_storage",
        "encoding": "dynamic_array",
        "label": "struct Project[]",
        "numberOfBytes": "32"
      },
      "t_bool": {
        "encoding": "inplace",
        "label": "bool",
        "numberOfBytes": "1"
      },
      "t_mapping(t_address,t_array(t_struct(Project)6770_storage)dyn_storage)": {
        "encoding": "mapping",
        "key": "t_address",
        "label": "mapping(address => struct Project[])",
        "numberOfBytes": "32",
        "value": "t_array(t_struct(Project)6770_storage)dyn_storage"
      },
      "t_mapping(t_address,t_struct(Achievement)6321_storage)": {
        "encoding": "mapping",
        "key": "t_address",
        "label": "mapping(address => struct Achievement)",
        "numberOfBytes": "32",
        "value": "t_struct(Achievement)6321_storage"
      },
      "t_mapping(t_address,t_struct(Student)6777_storage)": {
        "encoding": "mapping",
        "key": "t_address",
        "label": "mapping(address => struct Student)",
        "numberOfBytes": "32",
        "value": "t_struct(Student)6777_storage"
      },
      "t_mapping(t_address,t_struct(Verifier)6784_storage)": {
        "encoding": "mapping",
        "key": "t_address",
        "label": "mapping(address => struct Verifier)",
        "numberOfBytes": "32",
        "value": "t_struct(Verifier)6784_storage"
      },
      "t_mapping(t_uint256,t_address)": {
        "encoding": "mapping",
        "key": "t_uint256",
        "label": "mapping(uint256 => address)",
        "numberOfBytes": "32",
        "value": "t_address"
      },
      "t_mapping(t_uint256,t_mapping(t_address,t_struct(Achievement)6321_storage))": {
        "encoding": "mapping",
        "key": "t_uint256",
        "label": "mapping(uint256 => mapping(address => struct Achievement))",
        "numberOfBytes": "32",
        "value": "t_mapping(t_address,t_struct(Achievement)6321_storage)"
      },
      "t_mapping(t_uint256,t_mapping(t_address,t_struct(Student)6777_storage))": {
        "encoding": "mapping",
        "key": "t_uint256",
        "label": "mapping(uint256 => mapping(address => struct Student))",
        "numberOfBytes": "32",
        "value": "t_mapping(t_address,t_struct(Student)6777_storage)"
      },
      "t_mapping(t_uint256,t_mapping(t_address,t_struct(Verifier)6784_storage))": {
        "encoding": "mapping",
        "key": "t_uint256",
        "label": "mapping(uint256 => mapping(address => struct Verifier))",
        "numberOfBytes": "32",
        "value": "t_mapping(t_address,t_struct(Verifier)6784_storage)"
      },
      "t_mapping(t_uint256,t_struct(Achievement)6321_storage)": {
        "encoding": "mapping",
        "key": "t_uint256",
        "label": "mapping(uint256 => struct Achievement)",
        "numberOfBytes": "32",
        "value": "t_struct(Achievement)6321_storage"
      },
      "t_mapping(t_uint256,t_struct(Project)6770_storage)": {
        "encoding": "mapping",
        "key": "t_uint256",
        "label": "mapping(uint256 => struct Project)",
        "numberOfBytes": "32",
        "value": "t_struct(Project)6770_storage"
      },
      "t_string_storage": {
        "encoding": "bytes",
        "label": "string",
        "numberOfBytes": "32"
      },
      "t_struct(Achievement)6321_storage": {
        "encoding": "inplace",
        "label": "struct Achievement",
        "members": [
          {
            "astId": 6318,
            "contract": "contracts/Main.sol:Main",
            "label": "description",
            "offset": 0,
            "slot": "0",
            "type": "t_string_storage"
          },
          {
            "astId": 6320,
            "contract": "contracts/Main.sol:Main",
            "label": "verified",
            "offset": 0,
            "slot": "1",
            "type": "t_bool"
          }
        ],
        "numberOfBytes": "64"
      },
      "t_struct(Project)6770_storage": {
        "encoding": "inplace",
        "label": "struct Project",
        "members": [
          {
            "astId": 6761,
            "contract": "contracts/Main.sol:Main",
            "label": "title",
            "offset": 0,
            "slot": "0",
            "type": "t_string_storage"
          },
          {
            "astId": 6763,
            "contract": "contracts/Main.sol:Main",
            "label": "description",
            "offset": 0,
            "slot": "1",
            "type": "t_string_storage"
          },
          {
            "astId": 6765,
            "contract": "contracts/Main.sol:Main",
            "label": "deadlineTimestamp",
            "offset": 0,
            "slot": "2",
            "type": "t_uint256"
          },
          {
            "astId": 6767,
            "contract": "contracts/Main.sol:Main",
            "label": "owner",
            "offset": 0,
            "slot": "3",
            "type": "t_address"
          },
          {
            "astId": 6769,
            "contract": "contracts/Main.sol:Main",
            "label": "isPublic",
            "offset": 20,
            "slot": "3",
            "type": "t_bool"
          }
        ],
        "numberOfBytes": "128"
      },
      "t_struct(Student)6777_storage": {
        "encoding": "inplace",
        "label": "struct Student",
        "members": [
          {
            "astId": 6774,
            "contract": "contracts/Main.sol:Main",
            "label": "wallet",
            "offset": 0,
            "slot": "0",
            "type": "t_address"
          },
          {
            "astId": 6776,
            "contract": "contracts/Main.sol:Main",
            "label": "isStudent",
            "offset": 20,
            "slot": "0",
            "type": "t_bool"
          }
        ],
        "numberOfBytes": "32"
      },
      "t_struct(Verifier)6784_storage": {
        "encoding": "inplace",
        "label": "struct Verifier",
        "members": [
          {
            "astId": 6781,
            "contract": "contracts/Main.sol:Main",
            "label": "wallet",
            "offset": 0,
            "slot": "0",
            "type": "t_address"
          },
          {
            "astId": 6783,
            "contract": "contracts/Main.sol:Main",
            "label": "isVerifier",
            "offset": 20,
            "slot": "0",
            "type": "t_bool"
          }
        ],
        "numberOfBytes": "32"
      },
      "t_uint256": {
        "encoding": "inplace",
        "label": "uint256",
        "numberOfBytes": "32"
      }
    }
  }
}