{
  "address": "0x0165878A594ca255338adfa4d48449f69242Eb8F",
  "abi": [
    {
      "inputs": [],
      "stateMutability": "nonpayable",
      "type": "constructor"
    },
    {
      "inputs": [
        {
          "internalType": "address",
          "name": "sender",
          "type": "address"
        },
        {
          "internalType": "uint256",
          "name": "tokenId",
          "type": "uint256"
        },
        {
          "internalType": "address",
          "name": "owner",
          "type": "address"
        }
      ],
      "name": "ERC721IncorrectOwner",
      "type": "error"
    },
    {
      "inputs": [
        {
          "internalType": "address",
          "name": "operator",
          "type": "address"
        },
        {
          "internalType": "uint256",
          "name": "tokenId",
          "type": "uint256"
        }
      ],
      "name": "ERC721InsufficientApproval",
      "type": "error"
    },
    {
      "inputs": [
        {
          "internalType": "address",
          "name": "approver",
          "type": "address"
        }
      ],
      "name": "ERC721InvalidApprover",
      "type": "error"
    },
    {
      "inputs": [
        {
          "internalType": "address",
          "name": "operator",
          "type": "address"
        }
      ],
      "name": "ERC721InvalidOperator",
      "type": "error"
    },
    {
      "inputs": [
        {
          "internalType": "address",
          "name": "owner",
          "type": "address"
        }
      ],
      "name": "ERC721InvalidOwner",
      "type": "error"
    },
    {
      "inputs": [
        {
          "internalType": "address",
          "name": "receiver",
          "type": "address"
        }
      ],
      "name": "ERC721InvalidReceiver",
      "type": "error"
    },
    {
      "inputs": [
        {
          "internalType": "address",
          "name": "sender",
          "type": "address"
        }
      ],
      "name": "ERC721InvalidSender",
      "type": "error"
    },
    {
      "inputs": [
        {
          "internalType": "uint256",
          "name": "tokenId",
          "type": "uint256"
        }
      ],
      "name": "ERC721NonexistentToken",
      "type": "error"
    },
    {
      "anonymous": false,
      "inputs": [
        {
          "indexed": true,
          "internalType": "address",
          "name": "owner",
          "type": "address"
        },
        {
          "indexed": true,
          "internalType": "address",
          "name": "approved",
          "type": "address"
        },
        {
          "indexed": true,
          "internalType": "uint256",
          "name": "tokenId",
          "type": "uint256"
        }
      ],
      "name": "Approval",
      "type": "event"
    },
    {
      "anonymous": false,
      "inputs": [
        {
          "indexed": true,
          "internalType": "address",
          "name": "owner",
          "type": "address"
        },
        {
          "indexed": true,
          "internalType": "address",
          "name": "operator",
          "type": "address"
        },
        {
          "indexed": false,
          "internalType": "bool",
          "name": "approved",
          "type": "bool"
        }
      ],
      "name": "ApprovalForAll",
      "type": "event"
    },
    {
      "anonymous": false,
      "inputs": [
        {
          "indexed": true,
          "internalType": "address",
          "name": "from",
          "type": "address"
        },
        {
          "indexed": true,
          "internalType": "address",
          "name": "to",
          "type": "address"
        },
        {
          "indexed": true,
          "internalType": "uint256",
          "name": "tokenId",
          "type": "uint256"
        }
      ],
      "name": "Transfer",
      "type": "event"
    },
    {
      "inputs": [
        {
          "internalType": "uint256",
          "name": "projectId",
          "type": "uint256"
        },
        {
          "internalType": "address",
          "name": "studentAddress",
          "type": "address"
        }
      ],
      "name": "addStudentToProjectWhitelist",
      "outputs": [],
      "stateMutability": "nonpayable",
      "type": "function"
    },
    {
      "inputs": [
        {
          "internalType": "uint256",
          "name": "projectId",
          "type": "uint256"
        },
        {
          "internalType": "address",
          "name": "verifierAddress",
          "type": "address"
        }
      ],
      "name": "addVerifierToProject",
      "outputs": [],
      "stateMutability": "nonpayable",
      "type": "function"
    },
    {
      "inputs": [
        {
          "internalType": "address",
          "name": "to",
          "type": "address"
        },
        {
          "internalType": "uint256",
          "name": "tokenId",
          "type": "uint256"
        }
      ],
      "name": "approve",
      "outputs": [],
      "stateMutability": "nonpayable",
      "type": "function"
    },
    {
      "inputs": [
        {
          "internalType": "address",
          "name": "owner",
          "type": "address"
        }
      ],
      "name": "balanceOf",
      "outputs": [
        {
          "internalType": "uint256",
          "name": "",
          "type": "uint256"
        }
      ],
      "stateMutability": "view",
      "type": "function"
    },
    {
      "inputs": [
        {
          "internalType": "string",
          "name": "title",
          "type": "string"
        },
        {
          "internalType": "string",
          "name": "description",
          "type": "string"
        },
        {
          "internalType": "uint256",
          "name": "deadlineTimestamp",
          "type": "uint256"
        },
        {
          "internalType": "bool",
          "name": "isPublic",
          "type": "bool"
        }
      ],
      "name": "createProject",
      "outputs": [],
      "stateMutability": "nonpayable",
      "type": "function"
    },
    {
      "inputs": [
        {
          "internalType": "uint256",
          "name": "achievementId",
          "type": "uint256"
        }
      ],
      "name": "getAchievementById",
      "outputs": [
        {
          "components": [
            {
              "internalType": "uint256",
              "name": "achievementId",
              "type": "uint256"
            },
            {
              "internalType": "string",
              "name": "description",
              "type": "string"
            },
            {
              "internalType": "bool",
              "name": "isAchievement",
              "type": "bool"
            },
            {
              "internalType": "address",
              "name": "studentWallet",
              "type": "address"
            },
            {
              "internalType": "uint256",
              "name": "projectId",
              "type": "uint256"
            },
            {
              "internalType": "uint256",
              "name": "verifiedCount",
              "type": "uint256"
            },
            {
              "internalType": "bool",
              "name": "isVerified",
              "type": "bool"
            },
            {
              "internalType": "uint256",
              "name": "nftTokenId",
              "type": "uint256"
            }
          ],
          "internalType": "struct Achievement",
          "name": "",
          "type": "tuple"
        }
      ],
      "stateMutability": "view",
      "type": "function"
    },
    {
      "inputs": [],
      "name": "getAllMyAchievementsForStudent",
      "outputs": [
        {
          "components": [
            {
              "internalType": "uint256",
              "name": "achievementId",
              "type": "uint256"
            },
            {
              "internalType": "string",
              "name": "description",
              "type": "string"
            },
            {
              "internalType": "bool",
              "name": "isAchievement",
              "type": "bool"
            },
            {
              "internalType": "address",
              "name": "studentWallet",
              "type": "address"
            },
            {
              "internalType": "uint256",
              "name": "projectId",
              "type": "uint256"
            },
            {
              "internalType": "uint256",
              "name": "verifiedCount",
              "type": "uint256"
            },
            {
              "internalType": "bool",
              "name": "isVerified",
              "type": "bool"
            },
            {
              "internalType": "uint256",
              "name": "nftTokenId",
              "type": "uint256"
            }
          ],
          "internalType": "struct Achievement[]",
          "name": "",
          "type": "tuple[]"
        }
      ],
      "stateMutability": "view",
      "type": "function"
    },
    {
      "inputs": [],
      "name": "getAllProjects",
      "outputs": [
        {
          "components": [
            {
              "internalType": "uint256",
              "name": "projectId",
              "type": "uint256"
            },
            {
              "internalType": "string",
              "name": "title",
              "type": "string"
            },
            {
              "internalType": "string",
              "name": "description",
              "type": "string"
            },
            {
              "internalType": "uint256",
              "name": "deadlineTimestamp",
              "type": "uint256"
            },
            {
              "internalType": "address",
              "name": "owner",
              "type": "address"
            },
            {
              "internalType": "bool",
              "name": "isPublic",
              "type": "bool"
            },
            {
              "internalType": "uint256",
              "name": "requiredVerificationsCount",
              "type": "uint256"
            }
          ],
          "internalType": "struct Project[]",
          "name": "",
          "type": "tuple[]"
        }
      ],
      "stateMutability": "view",
      "type": "function"
    },
    {
      "inputs": [
        {
          "internalType": "uint256",
          "name": "tokenId",
          "type": "uint256"
        }
      ],
      "name": "getApproved",
      "outputs": [
        {
          "internalType": "address",
          "name": "",
          "type": "address"
        }
      ],
      "stateMutability": "view",
      "type": "function"
    },
    {
      "inputs": [],
      "name": "getMyOwnedProjects",
      "outputs": [
        {
          "components": [
            {
              "internalType": "uint256",
              "name": "projectId",
              "type": "uint256"
            },
            {
              "internalType": "string",
              "name": "title",
              "type": "string"
            },
            {
              "internalType": "string",
              "name": "description",
              "type": "string"
            },
            {
              "internalType": "uint256",
              "name": "deadlineTimestamp",
              "type": "uint256"
            },
            {
              "internalType": "address",
              "name": "owner",
              "type": "address"
            },
            {
              "internalType": "bool",
              "name": "isPublic",
              "type": "bool"
            },
            {
              "internalType": "uint256",
              "name": "requiredVerificationsCount",
              "type": "uint256"
            }
          ],
          "internalType": "struct Project[]",
          "name": "",
          "type": "tuple[]"
        }
      ],
      "stateMutability": "view",
      "type": "function"
    },
    {
      "inputs": [],
      "name": "getMyParticipatedProjects",
      "outputs": [
        {
          "components": [
            {
              "internalType": "uint256",
              "name": "projectId",
              "type": "uint256"
            },
            {
              "internalType": "string",
              "name": "title",
              "type": "string"
            },
            {
              "internalType": "string",
              "name": "description",
              "type": "string"
            },
            {
              "internalType": "uint256",
              "name": "deadlineTimestamp",
              "type": "uint256"
            },
            {
              "internalType": "address",
              "name": "owner",
              "type": "address"
            },
            {
              "internalType": "bool",
              "name": "isPublic",
              "type": "bool"
            },
            {
              "internalType": "uint256",
              "name": "requiredVerificationsCount",
              "type": "uint256"
            }
          ],
          "internalType": "struct Project[]",
          "name": "",
          "type": "tuple[]"
        }
      ],
      "stateMutability": "view",
      "type": "function"
    },
    {
      "inputs": [],
      "name": "getMyVerificationProjects",
      "outputs": [
        {
          "components": [
            {
              "internalType": "uint256",
              "name": "projectId",
              "type": "uint256"
            },
            {
              "internalType": "string",
              "name": "title",
              "type": "string"
            },
            {
              "internalType": "string",
              "name": "description",
              "type": "string"
            },
            {
              "internalType": "uint256",
              "name": "deadlineTimestamp",
              "type": "uint256"
            },
            {
              "internalType": "address",
              "name": "owner",
              "type": "address"
            },
            {
              "internalType": "bool",
              "name": "isPublic",
              "type": "bool"
            },
            {
              "internalType": "uint256",
              "name": "requiredVerificationsCount",
              "type": "uint256"
            }
          ],
          "internalType": "struct Project[]",
          "name": "",
          "type": "tuple[]"
        }
      ],
      "stateMutability": "view",
      "type": "function"
    },
    {
      "inputs": [
        {
          "internalType": "uint256",
          "name": "projectId",
          "type": "uint256"
        }
      ],
      "name": "getUnverifiedAchievementsForVerifier",
      "outputs": [
        {
          "components": [
            {
              "internalType": "uint256",
              "name": "achievementId",
              "type": "uint256"
            },
            {
              "internalType": "string",
              "name": "description",
              "type": "string"
            },
            {
              "internalType": "bool",
              "name": "isAchievement",
              "type": "bool"
            },
            {
              "internalType": "address",
              "name": "studentWallet",
              "type": "address"
            },
            {
              "internalType": "uint256",
              "name": "projectId",
              "type": "uint256"
            },
            {
              "internalType": "uint256",
              "name": "verifiedCount",
              "type": "uint256"
            },
            {
              "internalType": "bool",
              "name": "isVerified",
              "type": "bool"
            },
            {
              "internalType": "uint256",
              "name": "nftTokenId",
              "type": "uint256"
            }
          ],
          "internalType": "struct Achievement[]",
          "name": "",
          "type": "tuple[]"
        }
      ],
      "stateMutability": "view",
      "type": "function"
    },
    {
      "inputs": [
        {
          "internalType": "uint256",
          "name": "projectId",
          "type": "uint256"
        }
      ],
      "name": "getVerifiedAchievementsForVerifier",
      "outputs": [
        {
          "components": [
            {
              "internalType": "uint256",
              "name": "achievementId",
              "type": "uint256"
            },
            {
              "internalType": "string",
              "name": "description",
              "type": "string"
            },
            {
              "internalType": "bool",
              "name": "isAchievement",
              "type": "bool"
            },
            {
              "internalType": "address",
              "name": "studentWallet",
              "type": "address"
            },
            {
              "internalType": "uint256",
              "name": "projectId",
              "type": "uint256"
            },
            {
              "internalType": "uint256",
              "name": "verifiedCount",
              "type": "uint256"
            },
            {
              "internalType": "bool",
              "name": "isVerified",
              "type": "bool"
            },
            {
              "internalType": "uint256",
              "name": "nftTokenId",
              "type": "uint256"
            }
          ],
          "internalType": "struct Achievement[]",
          "name": "",
          "type": "tuple[]"
        }
      ],
      "stateMutability": "view",
      "type": "function"
    },
    {
      "inputs": [
        {
          "internalType": "address",
          "name": "owner",
          "type": "address"
        },
        {
          "internalType": "address",
          "name": "operator",
          "type": "address"
        }
      ],
      "name": "isApprovedForAll",
      "outputs": [
        {
          "internalType": "bool",
          "name": "",
          "type": "bool"
        }
      ],
      "stateMutability": "view",
      "type": "function"
    },
    {
      "inputs": [],
      "name": "name",
      "outputs": [
        {
          "internalType": "string",
          "name": "",
          "type": "string"
        }
      ],
      "stateMutability": "view",
      "type": "function"
    },
    {
      "inputs": [
        {
          "internalType": "uint256",
          "name": "tokenId",
          "type": "uint256"
        }
      ],
      "name": "ownerOf",
      "outputs": [
        {
          "internalType": "address",
          "name": "",
          "type": "address"
        }
      ],
      "stateMutability": "view",
      "type": "function"
    },
    {
      "inputs": [
        {
          "internalType": "uint256",
          "name": "projectId",
          "type": "uint256"
        },
        {
          "internalType": "string",
          "name": "description",
          "type": "string"
        }
      ],
      "name": "postAchievement",
      "outputs": [],
      "stateMutability": "nonpayable",
      "type": "function"
    },
    {
      "inputs": [
        {
          "internalType": "uint256",
          "name": "projectId",
          "type": "uint256"
        }
      ],
      "name": "registerSelfStudent",
      "outputs": [],
      "stateMutability": "nonpayable",
      "type": "function"
    },
    {
      "inputs": [
        {
          "internalType": "address",
          "name": "from",
          "type": "address"
        },
        {
          "internalType": "address",
          "name": "to",
          "type": "address"
        },
        {
          "internalType": "uint256",
          "name": "tokenId",
          "type": "uint256"
        }
      ],
      "name": "safeTransferFrom",
      "outputs": [],
      "stateMutability": "nonpayable",
      "type": "function"
    },
    {
      "inputs": [
        {
          "internalType": "address",
          "name": "from",
          "type": "address"
        },
        {
          "internalType": "address",
          "name": "to",
          "type": "address"
        },
        {
          "internalType": "uint256",
          "name": "tokenId",
          "type": "uint256"
        },
        {
          "internalType": "bytes",
          "name": "data",
          "type": "bytes"
        }
      ],
      "name": "safeTransferFrom",
      "outputs": [],
      "stateMutability": "nonpayable",
      "type": "function"
    },
    {
      "inputs": [
        {
          "internalType": "address",
          "name": "operator",
          "type": "address"
        },
        {
          "internalType": "bool",
          "name": "approved",
          "type": "bool"
        }
      ],
      "name": "setApprovalForAll",
      "outputs": [],
      "stateMutability": "nonpayable",
      "type": "function"
    },
    {
      "inputs": [
        {
          "internalType": "bytes4",
          "name": "interfaceId",
          "type": "bytes4"
        }
      ],
      "name": "supportsInterface",
      "outputs": [
        {
          "internalType": "bool",
          "name": "",
          "type": "bool"
        }
      ],
      "stateMutability": "view",
      "type": "function"
    },
    {
      "inputs": [],
      "name": "symbol",
      "outputs": [
        {
          "internalType": "string",
          "name": "",
          "type": "string"
        }
      ],
      "stateMutability": "view",
      "type": "function"
    },
    {
      "inputs": [
        {
          "internalType": "uint256",
          "name": "tokenId",
          "type": "uint256"
        }
      ],
      "name": "tokenURI",
      "outputs": [
        {
          "internalType": "string",
          "name": "",
          "type": "string"
        }
      ],
      "stateMutability": "view",
      "type": "function"
    },
    {
      "inputs": [
        {
          "internalType": "address",
          "name": "from",
          "type": "address"
        },
        {
          "internalType": "address",
          "name": "to",
          "type": "address"
        },
        {
          "internalType": "uint256",
          "name": "tokenId",
          "type": "uint256"
        }
      ],
      "name": "transferFrom",
      "outputs": [],
      "stateMutability": "nonpayable",
      "type": "function"
    },
    {
      "inputs": [
        {
          "internalType": "uint256",
          "name": "projectId",
          "type": "uint256"
        },
        {
          "internalType": "uint256",
          "name": "achievementId",
          "type": "uint256"
        }
      ],
      "name": "verify",
      "outputs": [],
      "stateMutability": "nonpayable",
      "type": "function"
    }
  ],
  "transactionHash": "0x9a77c0d0e3c3d5ef8041662a8df84537029be8f83160db813af6d1d9039f96fa",
  "args": [],
  "numDeployments": 5,
  "solcInputHash": "d41a222da948e3559ad207df203cf79f",
  "bytecode": "0x6080604052600060175560006018553480156200001b57600080fd5b50604080516020808201835260008083528351918201909352828152909162000045838262000102565b50600162000054828262000102565b505050620001ce565b634e487b7160e01b600052604160045260246000fd5b600181811c908216806200008857607f821691505b602082108103620000a957634e487b7160e01b600052602260045260246000fd5b50919050565b601f821115620000fd57600081815260208120601f850160051c81016020861015620000d85750805b601f850160051c820191505b81811015620000f957828155600101620000e4565b5050505b505050565b81516001600160401b038111156200011e576200011e6200005d565b62000136816200012f845462000073565b84620000af565b602080601f8311600181146200016e5760008415620001555750858301515b600019600386901b1c1916600185901b178555620000f9565b600085815260208120601f198616915b828110156200019f578886015182559484019460019091019084016200017e565b5085821015620001be5787850151600019600388901b60f8161c191681555b5050505050600190811b01905550565b613c2d80620001de6000396000f3fe608060405234801561001057600080fd5b50600436106101a95760003560e01c806370a08231116100f9578063b04c976011610097578063cf26d34411610071578063cf26d34414610387578063d688af8c1461039a578063e985e9c5146103ad578063f8451d5f146103c057600080fd5b8063b04c97601461034e578063b88d4fde14610361578063c87b56dd1461037457600080fd5b806380d03829116100d357806380d038291461031857806395d89b4114610320578063a22cb46514610328578063aabedf1c1461033b57600080fd5b806370a08231146102c457806370e5688c146102e557806375bab5b2146102f857600080fd5b80633cad8234116101665780634dcc0a15116101405780634dcc0a15146102815780635b6c0f3b146102945780635e7ced73146102a95780636352211e146102b157600080fd5b80633cad82341461025357806341161b101461025b57806342842e0e1461026e57600080fd5b806301ffc9a7146101ae57806306fdde03146101d6578063081812fc146101eb578063095ea7b31461021657806323b872dd1461022b578063373c7c7b1461023e575b600080fd5b6101c16101bc3660046133e2565b6103d3565b60405190151581526020015b60405180910390f35b6101de610425565b6040516101cd919061344f565b6101fe6101f9366004613462565b6104b7565b6040516001600160a01b0390911681526020016101cd565b610229610224366004613497565b6104e0565b005b6102296102393660046134c1565b6104ef565b61024661057f565b6040516101cd91906134fd565b61024661084f565b6102296102693660046135c1565b610ae2565b61022961027c3660046134c1565b610df7565b61022961028f3660046135e3565b610e17565b61029c61119e565b6040516101cd9190613684565b61024661138c565b6101fe6102bf366004613462565b611640565b6102d76102d23660046136e6565b61164b565b6040519081526020016101cd565b61029c6102f3366004613462565b611693565b61030b610306366004613462565b6118e8565b6040516101cd9190613701565b610246611a10565b6101de611bdc565b610229610336366004613724565b611beb565b61029c610349366004613462565b611bf6565b61022961035c3660046135e3565b611e45565b61022961036f3660046137da565b612036565b6101de610382366004613462565b61204e565b610229610395366004613876565b6120c3565b6102296103a83660046138bd565b61251a565b6101c16103bb36600461393b565b612679565b6102296103ce366004613462565b6126a7565b60006001600160e01b031982166380ac58cd60e01b148061040457506001600160e01b03198216635b5e139f60e01b145b8061041f57506301ffc9a760e01b6001600160e01b03198316145b92915050565b60606000805461043490613965565b80601f016020809104026020016040519081016040528092919081815260200182805461046090613965565b80156104ad5780601f10610482576101008083540402835291602001916104ad565b820191906000526020600020905b81548152906001019060200180831161049057829003601f168201915b5050505050905090565b60006104c2826128db565b506000828152600460205260409020546001600160a01b031661041f565b6104eb828233612914565b5050565b6001600160a01b03821661051e57604051633250574960e11b8152600060048201526024015b60405180910390fd5b600061052b838333612921565b9050836001600160a01b0316816001600160a01b031614610579576040516364283d7b60e01b81526001600160a01b0380861660048301526024820184905282166044820152606401610515565b50505050565b336000908152600f60205260409020546060901561081857336000908152600f602052604081205467ffffffffffffffff8111156105bf576105bf61374e565b6040519080825280602002602001820160405280156105f857816020015b6105e5613332565b8152602001906001900390816105dd5790505b5090506000610605613332565b60005b60085481101561080f576008818154811061062557610625613999565b90600052602060002090600602016040518060e00160405290816000820154815260200160018201805461065890613965565b80601f016020809104026020016040519081016040528092919081815260200182805461068490613965565b80156106d15780601f106106a6576101008083540402835291602001916106d1565b820191906000526020600020905b8154815290600101906020018083116106b457829003601f168201915b505050505081526020016002820180546106ea90613965565b80601f016020809104026020016040519081016040528092919081815260200182805461071690613965565b80156107635780601f1061073857610100808354040283529160200191610763565b820191906000526020600020905b81548152906001019060200180831161074657829003601f168201915b5050509183525050600382015460208083019190915260048301546001600160a01b038116604080850191909152600160a01b90910460ff9081161515606085015260059094015460809093019290925283516000908152600e8252828120338252909152205491935016156107fd578184846107df816139c5565b9550815181106107f1576107f1613999565b60200260200101819052505b80610807816139c5565b915050610608565b50919392505050565b6040805160008082526020820190925290610849565b610836613332565b81526020019060019003908161082e5790505b50905090565b3360009081526010602052604090205460609015610818573360009081526010602052604081205467ffffffffffffffff81111561088f5761088f61374e565b6040519080825280602002602001820160405280156108c857816020015b6108b5613332565b8152602001906001900390816108ad5790505b50905060006108d5613332565b60005b60085481101561080f57600881815481106108f5576108f5613999565b90600052602060002090600602016040518060e00160405290816000820154815260200160018201805461092890613965565b80601f016020809104026020016040519081016040528092919081815260200182805461095490613965565b80156109a15780601f10610976576101008083540402835291602001916109a1565b820191906000526020600020905b81548152906001019060200180831161098457829003601f168201915b505050505081526020016002820180546109ba90613965565b80601f01602080910402602001604051908101604052809291908181526020018280546109e690613965565b8015610a335780601f10610a0857610100808354040283529160200191610a33565b820191906000526020600020905b815481529060010190602001808311610a1657829003601f168201915b50505091835250506003820154602082015260048201546001600160a01b038082166040840152600160a01b90910460ff161515606083015260059092015460809182015282015191935033911603610ab057818484610a92816139c5565b955081518110610aa457610aa4613999565b60200260200101819052505b80610aba816139c5565b9150506108d8565b610aca613332565b815260200190600190039081610ac257905050905090565b6000828152600c60209081526040808320338452909152902054829060ff161515600114610b225760405162461bcd60e51b8152600401610515906139de565b336000908152600d6020908152604080832085845290915290205460ff1615610ba05760405162461bcd60e51b815260206004820152602a60248201527f596f75206861766520616c72656164792076657269666965642074686973206160448201526918da1a595d995b595b9d60b21b6064820152608401610515565b60098281548110610bb357610bb3613999565b600091825260209091206005600790920201015460ff1615610c255760405162461bcd60e51b815260206004820152602560248201527f5468697320616368696576656d656e7420697320616c726561647920766572696044820152643334b2b21760d91b6064820152608401610515565b600060098381548110610c3a57610c3a613999565b90600052602060002090600702019050806004016000815480929190610c5f906139c5565b9091555050336000908152601360205260408120805491610c7f836139c5565b9091555050336000908152601260205260408120805491610c9f83613a51565b9091555050336000908152600d602090815260408083208684529091529020805460ff191660011790556002810154600880546101009092046001600160a01b03169186908110610cf257610cf2613999565b906000526020600020906006020160050154826004015403610df05760058201805460ff191660011790556001600160a01b03811660009081526015602090815260408083208884529091528120805491610d4c836139c5565b9190505550610d5a81612a1a565b60198054600090815260166020908152604080832088905592546006860155878252600b8152828220546001600160a01b038516835260158252838320898452909152919020541115610df0576000858152600a6020908152604080832080546001600160a01b0319166001600160a01b038616908117909155835260158252808320888452825280832054600b909252909120555b5050505050565b610e1283838360405180602001604052806000815250612036565b505050565b81600060088281548110610e2d57610e2d613999565b90600052602060002090600602016040518060e001604052908160008201548152602001600182018054610e6090613965565b80601f0160208091040260200160405190810160405280929190818152602001828054610e8c90613965565b8015610ed95780601f10610eae57610100808354040283529160200191610ed9565b820191906000526020600020905b815481529060010190602001808311610ebc57829003601f168201915b50505050508152602001600282018054610ef290613965565b80601f0160208091040260200160405190810160405280929190818152602001828054610f1e90613965565b8015610f6b5780601f10610f4057610100808354040283529160200191610f6b565b820191906000526020600020905b815481529060010190602001808311610f4e57829003601f168201915b50505091835250506003820154602082015260048201546001600160a01b038082166040840152600160a01b90910460ff161515606083015260059092015460809182015282015191925033911614610ffe5760405162461bcd60e51b81526020600482015260156024820152742737ba103a343290383937b532b1ba1037bbb732b960591b6044820152606401610515565b6000848152600c602090815260408083206001600160a01b038716845290915290205460ff16156110975760405162461bcd60e51b815260206004820152603b60248201527f566572696669657220776974682073756368206164647265737320666f72207460448201527f6869732070726f6a65637420616c7265616479206578697374732e00000000006064820152608401610515565b604080518082019091526001600160a01b03808516825260016020830181815260078054928301815560005292517fa66cc928b5edb82af9bd49922954155ab7b0942694bea4ce44661d9a8736c688909101805493511515600160a01b026001600160a81b03199094169190921617919091179055600880548590811061112057611120613999565b60009182526020822060056006909202010180549161113e836139c5565b90915550506001600160a01b0383166000908152601160205260408120805491611167836139c5565b909155505050600092835250600c602090815260408084206001600160a01b0390931684529190529020805460ff19166001179055565b336000908152601460205260408120546060919067ffffffffffffffff8111156111ca576111ca61374e565b60405190808252806020026020018201604052801561120357816020015b6111f061337a565b8152602001906001900390816111e85790505b509050600061121061337a565b60005b60095481101561080f576009818154811061123057611230613999565b9060005260206000209060070201604051806101000160405290816000820154815260200160018201805461126490613965565b80601f016020809104026020016040519081016040528092919081815260200182805461129090613965565b80156112dd5780601f106112b2576101008083540402835291602001916112dd565b820191906000526020600020905b8154815290600101906020018083116112c057829003601f168201915b5050509183525050600282015460ff808216151560208401526001600160a01b03610100909204821660408401526003840154606080850191909152600485015460808501526005850154909116151560a084015260069093015460c090920191909152908201519193503391160361137a5781848461135c816139c5565b95508151811061136e5761136e613999565b60200260200101819052505b80611384816139c5565b915050611213565b3360009081526011602052604090205460609015610818573360009081526011602052604081205467ffffffffffffffff8111156113cc576113cc61374e565b60405190808252806020026020018201604052801561140557816020015b6113f2613332565b8152602001906001900390816113ea5790505b5090506000611412613332565b60005b60085481101561080f576008818154811061143257611432613999565b90600052602060002090600602016040518060e00160405290816000820154815260200160018201805461146590613965565b80601f016020809104026020016040519081016040528092919081815260200182805461149190613965565b80156114de5780601f106114b3576101008083540402835291602001916114de565b820191906000526020600020905b8154815290600101906020018083116114c157829003601f168201915b505050505081526020016002820180546114f790613965565b80601f016020809104026020016040519081016040528092919081815260200182805461152390613965565b80156115705780601f1061154557610100808354040283529160200191611570565b820191906000526020600020905b81548152906001019060200180831161155357829003601f168201915b5050509183525050600382015460208083019190915260048301546001600160a01b038116604080850191909152600160a01b90910460ff9081161515606085015260059094015460809093019290925283516000908152600c8252828120338252909152205491935016151560010361160e578184846115f0816139c5565b95508151811061160257611602613999565b60200260200101819052505b80611618816139c5565b915050611415565b611628613332565b81526020019060019003908161162057905050905090565b600061041f826128db565b60006001600160a01b038216611677576040516322718ad960e21b815260006004820152602401610515565b506001600160a01b031660009081526003602052604090205490565b6000818152600c60209081526040808320338452909152902054606090829060ff1615156001146116d65760405162461bcd60e51b8152600401610515906139de565b3360009081526013602052604081205467ffffffffffffffff8111156116fe576116fe61374e565b60405190808252806020026020018201604052801561173757816020015b61172461337a565b81526020019060019003908161171c5790505b509050600061174461337a565b60005b6009548110156118db576009818154811061176457611764613999565b9060005260206000209060070201604051806101000160405290816000820154815260200160018201805461179890613965565b80601f01602080910402602001604051908101604052809291908181526020018280546117c490613965565b80156118115780601f106117e657610100808354040283529160200191611811565b820191906000526020600020905b8154815290600101906020018083116117f457829003601f168201915b5050509183525050600282015460ff808216151560208401526101009091046001600160a01b031660408301526003830154606083015260048301546080808401919091526005840154909116151560a083015260069092015460c090910152810151909250871480156118a55750336000908152600d602090815260408083208551845290915290205460ff1615156001145b156118c957818484815181106118bd576118bd613999565b60200260200101819052505b806118d3816139c5565b915050611747565b5091935050505b50919050565b6118f061337a565b6009828154811061190357611903613999565b9060005260206000209060070201604051806101000160405290816000820154815260200160018201805461193790613965565b80601f016020809104026020016040519081016040528092919081815260200182805461196390613965565b80156119b05780601f10611985576101008083540402835291602001916119b0565b820191906000526020600020905b81548152906001019060200180831161199357829003601f168201915b5050509183525050600282015460ff808216151560208401526101009091046001600160a01b031660408301526003830154606083015260048301546080830152600583015416151560a082015260069091015460c09091015292915050565b60606008805480602002602001604051908101604052809291908181526020016000905b82821015611bd357838290600052602060002090600602016040518060e001604052908160008201548152602001600182018054611a7190613965565b80601f0160208091040260200160405190810160405280929190818152602001828054611a9d90613965565b8015611aea5780601f10611abf57610100808354040283529160200191611aea565b820191906000526020600020905b815481529060010190602001808311611acd57829003601f168201915b50505050508152602001600282018054611b0390613965565b80601f0160208091040260200160405190810160405280929190818152602001828054611b2f90613965565b8015611b7c5780601f10611b5157610100808354040283529160200191611b7c565b820191906000526020600020905b815481529060010190602001808311611b5f57829003601f168201915b5050509183525050600382015460208083019190915260048301546001600160a01b0381166040840152600160a01b900460ff16151560608301526005909201546080909101529082526001929092019101611a34565b50505050905090565b60606001805461043490613965565b6104eb338383612a3e565b6000818152600c60209081526040808320338452909152902054606090829060ff161515600114611c395760405162461bcd60e51b8152600401610515906139de565b3360009081526012602052604081205467ffffffffffffffff811115611c6157611c6161374e565b604051908082528060200260200182016040528015611c9a57816020015b611c8761337a565b815260200190600190039081611c7f5790505b5090506000611ca761337a565b60005b6009548110156118db5760098181548110611cc757611cc7613999565b90600052602060002090600702016040518061010001604052908160008201548152602001600182018054611cfb90613965565b80601f0160208091040260200160405190810160405280929190818152602001828054611d2790613965565b8015611d745780601f10611d4957610100808354040283529160200191611d74565b820191906000526020600020905b815481529060010190602001808311611d5757829003601f168201915b5050509183525050600282015460ff808216151560208401526101009091046001600160a01b031660408301526003830154606083015260048301546080808401919091526005840154909116151560a083015260069092015460c09091015281015190925087148015611e045750336000908152600d602090815260408083208551845290915290205460ff16155b15611e3357818484611e15816139c5565b955081518110611e2757611e27613999565b60200260200101819052505b80611e3d816139c5565b915050611caa565b81600060088281548110611e5b57611e5b613999565b90600052602060002090600602016040518060e001604052908160008201548152602001600182018054611e8e90613965565b80601f0160208091040260200160405190810160405280929190818152602001828054611eba90613965565b8015611f075780601f10611edc57610100808354040283529160200191611f07565b820191906000526020600020905b815481529060010190602001808311611eea57829003601f168201915b50505050508152602001600282018054611f2090613965565b80601f0160208091040260200160405190810160405280929190818152602001828054611f4c90613965565b8015611f995780601f10611f6e57610100808354040283529160200191611f99565b820191906000526020600020905b815481529060010190602001808311611f7c57829003601f168201915b50505091835250506003820154602082015260048201546001600160a01b038082166040840152600160a01b90910460ff16151560608301526005909201546080918201528201519192503391161461202c5760405162461bcd60e51b81526020600482015260156024820152742737ba103a343290383937b532b1ba1037bbb732b960591b6044820152606401610515565b6105798484612add565b6120418484846104ef565b6105793385858585612e36565b6060612059826128db565b50600061207160408051602081019091526000815290565b9050600081511161209157604051806020016040528060008152506120bc565b8061209b84612f60565b6040516020016120ac929190613a68565b6040516020818303038152906040525b9392505050565b816000600882815481106120d9576120d9613999565b90600052602060002090600602016040518060e00160405290816000820154815260200160018201805461210c90613965565b80601f016020809104026020016040519081016040528092919081815260200182805461213890613965565b80156121855780601f1061215a57610100808354040283529160200191612185565b820191906000526020600020905b81548152906001019060200180831161216857829003601f168201915b5050505050815260200160028201805461219e90613965565b80601f01602080910402602001604051908101604052809291908181526020018280546121ca90613965565b80156122175780601f106121ec57610100808354040283529160200191612217565b820191906000526020600020905b8154815290600101906020018083116121fa57829003601f168201915b5050509183525050600382015460208083019190915260048301546001600160a01b038116604080850191909152600160a01b90910460ff908116151560608501526005909401546080909301929092526000868152600e82528281203382529091522054919250600191161515146122e45760405162461bcd60e51b815260206004820152602960248201527f596f7520617265206e6f74207468652073747564656e7420666f72207468697360448201526810383937b532b1ba1760b91b6064820152608401610515565b604080518082019091526000808252602082015260005b6007548110156123b1576007818154811061231857612318613999565b6000918252602080832060408051808201825293909101546001600160a01b038082168552600160a01b90910460ff9081161515858501528b8652600c84528286208551909216865292529092205490935016151560010361239f5781516001600160a01b03166000908152601260205260408120805491612399836139c5565b91905055505b806123a9816139c5565b9150506122fb565b506040805161010081018252601854815260208101868152600192820183905233606083015260808201889052600060a0830181905260c0830181905260e083018190526009805494850181559052815160079093027f6e1540171b6c0c960b71a7020d9f60077f6af931a8bbf590da0223dacf75c7af810193845590519192917f6e1540171b6c0c960b71a7020d9f60077f6af931a8bbf590da0223dacf75c7b0909101906124619082613add565b5060408281015160028301805460608601516001600160a01b031661010002610100600160a81b0319931515939093166001600160a81b0319909116179190911790556080830151600383015560a0830151600483015560c083015160058301805491151560ff199290921691909117905560e09092015160069091015533600090815260146020529081208054916124f9836139c5565b90915550506018805490600061250e836139c5565b91905055505050505050565b6040805160e081018252601754808252602080830188815283850188905260608401879052336080850181905286151560a0860152600160c086018190526000948552600c84528685209185529252938220805460ff191682179055600880549182018155909152815160069091027ff3f7a9fe364faab93b216da50a3214154f22a0a2b415b23a84c8169e8b636ee381019182559251919283927ff3f7a9fe364faab93b216da50a3214154f22a0a2b415b23a84c8169e8b636ee4909101906125e49082613add565b50604082015160028201906125f99082613add565b5060608201516003820155608082015160048201805460a08501511515600160a01b026001600160a81b03199091166001600160a01b039093169290921791909117905560c090910151600590910155336000908152601060205260408120805491612664836139c5565b90915550506017805490600061250e836139c5565b6001600160a01b03918216600090815260056020908152604080832093909416825291909152205460ff1690565b6000600882815481106126bc576126bc613999565b90600052602060002090600602016040518060e0016040529081600082015481526020016001820180546126ef90613965565b80601f016020809104026020016040519081016040528092919081815260200182805461271b90613965565b80156127685780601f1061273d57610100808354040283529160200191612768565b820191906000526020600020905b81548152906001019060200180831161274b57829003601f168201915b5050505050815260200160028201805461278190613965565b80601f01602080910402602001604051908101604052809291908181526020018280546127ad90613965565b80156127fa5780601f106127cf576101008083540402835291602001916127fa565b820191906000526020600020905b8154815290600101906020018083116127dd57829003601f168201915b50505091835250506003820154602082015260048201546001600160a01b0381166040830152600160a01b900460ff161515606082015260059091015460809091015260a08101519091506128d15760405162461bcd60e51b815260206004820152605160248201527f596f7520646f6e60742068617665207065726d697373696f6e206f7220796f7560448201527f206d7573742062652061646465642062792070726f6a656374206f776e6572206064820152703a37903a3432903bb434ba32b634b9ba1760791b608482015260a401610515565b6104eb8233612add565b6000818152600260205260408120546001600160a01b03168061041f57604051637e27328960e01b815260048101849052602401610515565b610e128383836001612ff3565b6000828152600260205260408120546001600160a01b039081169083161561294e5761294e8184866130f9565b6001600160a01b0381161561298c5761296b600085600080612ff3565b6001600160a01b038116600090815260036020526040902080546000190190555b6001600160a01b038516156129bb576001600160a01b0385166000908152600360205260409020805460010190555b60008481526002602052604080822080546001600160a01b0319166001600160a01b0389811691821790925591518793918516917fddf252ad1be2c89b69c2b068fc378daa952ba7f163c4a11628f55a4df523b3ef91a4949350505050565b60198054906000612a2a836139c5565b9190505550612a3b8160195461315d565b50565b6001600160a01b038216612a7057604051630b61174360e31b81526001600160a01b0383166004820152602401610515565b6001600160a01b03838116600081815260056020908152604080832094871680845294825291829020805460ff191686151590811790915591519182527f17307eab39ab6107e8899845ad3d59bd9653f200f220920489ca2b5937696c31910160405180910390a3505050565b8181600060088381548110612af457612af4613999565b90600052602060002090600602016040518060e001604052908160008201548152602001600182018054612b2790613965565b80601f0160208091040260200160405190810160405280929190818152602001828054612b5390613965565b8015612ba05780601f10612b7557610100808354040283529160200191612ba0565b820191906000526020600020905b815481529060010190602001808311612b8357829003601f168201915b50505050508152602001600282018054612bb990613965565b80601f0160208091040260200160405190810160405280929190818152602001828054612be590613965565b8015612c325780601f10612c0757610100808354040283529160200191612c32565b820191906000526020600020905b815481529060010190602001808311612c1557829003601f168201915b50505091835250506003820154602082015260048201546001600160a01b038082166040840152600160a01b90910460ff1615156060830152600590920154608091820152820151919250838116911603612ccf5760405162461bcd60e51b815260206004820152601960248201527f596f7520617265207468652070726f6a656374206f776e6572000000000000006044820152606401610515565b6000858152600e602090815260408083206001600160a01b038816845290915290205460ff1615612d7a5760405162461bcd60e51b815260206004820152604960248201527f546869732073747564656e7420616c726561647920657869737473206f6e207460448201527f68652070726f6a656374206f72207468652070726f6a65637420646f6573206e60648201526837ba1032bc34b9ba1760b91b608482015260a401610515565b6001600160a01b038416600090815260066020526040812054600160a01b900460ff1615159003612df6576040805180820182526001600160a01b03808716808352600160208085019182526000928352600690529390209151825493511515600160a01b026001600160a81b03199094169116179190911790555b6000858152600e602090815260408083206001600160a01b03881684528252808320805460ff19166001179055600f909152812080549161250e836139c5565b6001600160a01b0383163b15610df057604051630a85bd0160e11b81526001600160a01b0384169063150b7a0290612e78908890889087908790600401613b9d565b6020604051808303816000875af1925050508015612eb3575060408051601f3d908101601f19168201909252612eb091810190613bda565b60015b612f1c573d808015612ee1576040519150601f19603f3d011682016040523d82523d6000602084013e612ee6565b606091505b508051600003612f1457604051633250574960e11b81526001600160a01b0385166004820152602401610515565b805181602001fd5b6001600160e01b03198116630a85bd0160e11b14612f5857604051633250574960e11b81526001600160a01b0385166004820152602401610515565b505050505050565b60606000612f6d83613177565b600101905060008167ffffffffffffffff811115612f8d57612f8d61374e565b6040519080825280601f01601f191660200182016040528015612fb7576020820181803683370190505b5090508181016020015b600019016f181899199a1a9b1b9c1cb0b131b232b360811b600a86061a8153600a8504945084612fc157509392505050565b808061300757506001600160a01b03821615155b156130c9576000613017846128db565b90506001600160a01b038316158015906130435750826001600160a01b0316816001600160a01b031614155b801561305657506130548184612679565b155b1561307f5760405163a9fbf51f60e01b81526001600160a01b0384166004820152602401610515565b81156130c75783856001600160a01b0316826001600160a01b03167f8c5be1e5ebec7d5bd14f71427d1e84f3dd0314c0f7b2291e5b200ac8c7c3b92560405160405180910390a45b505b5050600090815260046020526040902080546001600160a01b0319166001600160a01b0392909216919091179055565b61310483838361324f565b610e12576001600160a01b03831661313257604051637e27328960e01b815260048101829052602401610515565b60405163177e802f60e01b81526001600160a01b038316600482015260248101829052604401610515565b6104eb8282604051806020016040528060008152506132b5565b60008072184f03e93ff9f4daa797ed6e38ed64bf6a1f0160401b83106131b65772184f03e93ff9f4daa797ed6e38ed64bf6a1f0160401b830492506040015b6d04ee2d6d415b85acef810000000083106131e2576d04ee2d6d415b85acef8100000000830492506020015b662386f26fc10000831061320057662386f26fc10000830492506010015b6305f5e1008310613218576305f5e100830492506008015b612710831061322c57612710830492506004015b6064831061323e576064830492506002015b600a831061041f5760010192915050565b60006001600160a01b038316158015906132ad5750826001600160a01b0316846001600160a01b0316148061328957506132898484612679565b806132ad57506000828152600460205260409020546001600160a01b038481169116145b949350505050565b6132bf83836132cd565b610e12336000858585612e36565b6001600160a01b0382166132f757604051633250574960e11b815260006004820152602401610515565b600061330583836000612921565b90506001600160a01b03811615610e12576040516339e3563760e11b815260006004820152602401610515565b6040518060e001604052806000815260200160608152602001606081526020016000815260200160006001600160a01b03168152602001600015158152602001600081525090565b604051806101000160405280600081526020016060815260200160001515815260200160006001600160a01b031681526020016000815260200160008152602001600015158152602001600081525090565b6001600160e01b031981168114612a3b57600080fd5b6000602082840312156133f457600080fd5b81356120bc816133cc565b60005b8381101561341a578181015183820152602001613402565b50506000910152565b6000815180845261343b8160208601602086016133ff565b601f01601f19169290920160200192915050565b6020815260006120bc6020830184613423565b60006020828403121561347457600080fd5b5035919050565b80356001600160a01b038116811461349257600080fd5b919050565b600080604083850312156134aa57600080fd5b6134b38361347b565b946020939093013593505050565b6000806000606084860312156134d657600080fd5b6134df8461347b565b92506134ed6020850161347b565b9150604084013590509250925092565b60006020808301818452808551808352604092508286019150828160051b87010184880160005b838110156135b357603f19898403018552815160e08151855288820151818a87015261355282870182613423565b915050878201518582038987015261356a8282613423565b606084810151908801526080808501516001600160a01b03169088015260a08085015115159088015260c093840151939096019290925250509386019390860190600101613524565b509098975050505050505050565b600080604083850312156135d457600080fd5b50508035926020909101359150565b600080604083850312156135f657600080fd5b823591506136066020840161347b565b90509250929050565b600061010082518452602083015181602086015261362f82860182613423565b91505060408301511515604085015260018060a01b0360608401511660608501526080830151608085015260a083015160a085015260c0830151151560c085015260e083015160e08501528091505092915050565b6000602080830181845280855180835260408601915060408160051b870101925083870160005b828110156136d957603f198886030184526136c785835161360f565b945092850192908501906001016136ab565b5092979650505050505050565b6000602082840312156136f857600080fd5b6120bc8261347b565b6020815260006120bc602083018461360f565b8035801515811461349257600080fd5b6000806040838503121561373757600080fd5b6137408361347b565b915061360660208401613714565b634e487b7160e01b600052604160045260246000fd5b600067ffffffffffffffff8084111561377f5761377f61374e565b604051601f8501601f19908116603f011681019082821181831017156137a7576137a761374e565b816040528093508581528686860111156137c057600080fd5b858560208301376000602087830101525050509392505050565b600080600080608085870312156137f057600080fd5b6137f98561347b565b93506138076020860161347b565b925060408501359150606085013567ffffffffffffffff81111561382a57600080fd5b8501601f8101871361383b57600080fd5b61384a87823560208401613764565b91505092959194509250565b600082601f83011261386757600080fd5b6120bc83833560208501613764565b6000806040838503121561388957600080fd5b82359150602083013567ffffffffffffffff8111156138a757600080fd5b6138b385828601613856565b9150509250929050565b600080600080608085870312156138d357600080fd5b843567ffffffffffffffff808211156138eb57600080fd5b6138f788838901613856565b9550602087013591508082111561390d57600080fd5b5061391a87828801613856565b9350506040850135915061393060608601613714565b905092959194509250565b6000806040838503121561394e57600080fd5b6139578361347b565b91506136066020840161347b565b600181811c9082168061397957607f821691505b6020821081036118e257634e487b7160e01b600052602260045260246000fd5b634e487b7160e01b600052603260045260246000fd5b634e487b7160e01b600052601160045260246000fd5b6000600182016139d7576139d76139af565b5060010190565b6020808252604d908201527f596f7520617265206e6f742074686520766572696669657220666f722074686960408201527f732070726f6a65637420616e642063616e6e6f7420766572696679207468697360608201526c1030b1b434b2bb32b6b2b73a1760991b608082015260a00190565b600081613a6057613a606139af565b506000190190565b60008351613a7a8184602088016133ff565b835190830190613a8e8183602088016133ff565b01949350505050565b601f821115610e1257600081815260208120601f850160051c81016020861015613abe5750805b601f850160051c820191505b81811015612f5857828155600101613aca565b815167ffffffffffffffff811115613af757613af761374e565b613b0b81613b058454613965565b84613a97565b602080601f831160018114613b405760008415613b285750858301515b600019600386901b1c1916600185901b178555612f58565b600085815260208120601f198616915b82811015613b6f57888601518255948401946001909101908401613b50565b5085821015613b8d5787850151600019600388901b60f8161c191681555b5050505050600190811b01905550565b6001600160a01b0385811682528416602082015260408101839052608060608201819052600090613bd090830184613423565b9695505050505050565b600060208284031215613bec57600080fd5b81516120bc816133cc56fea2646970667358221220060a945a72eeac03f0b547688fb11d7789f847144f2a5e9cf0025806a7202e0d64736f6c63430008140033",
  "devdoc": {
    "errors": {
      "ERC721IncorrectOwner(address,uint256,address)": [
        {
          "details": "Indicates an error related to the ownership over a particular token. Used in transfers.",
          "params": {
            "owner": "Address of the current owner of a token.",
            "sender": "Address whose tokens are being transferred.",
            "tokenId": "Identifier number of a token."
          }
        }
      ],
      "ERC721InsufficientApproval(address,uint256)": [
        {
          "details": "Indicates a failure with the `operator`s approval. Used in transfers.",
          "params": {
            "operator": "Address that may be allowed to operate on tokens without being their owner.",
            "tokenId": "Identifier number of a token."
          }
        }
      ],
      "ERC721InvalidApprover(address)": [
        {
          "details": "Indicates a failure with the `approver` of a token to be approved. Used in approvals.",
          "params": {
            "approver": "Address initiating an approval operation."
          }
        }
      ],
      "ERC721InvalidOperator(address)": [
        {
          "details": "Indicates a failure with the `operator` to be approved. Used in approvals.",
          "params": {
            "operator": "Address that may be allowed to operate on tokens without being their owner."
          }
        }
      ],
      "ERC721InvalidOwner(address)": [
        {
          "details": "Indicates that an address can't be an owner. For example, `address(0)` is a forbidden owner in ERC-20. Used in balance queries.",
          "params": {
            "owner": "Address of the current owner of a token."
          }
        }
      ],
      "ERC721InvalidReceiver(address)": [
        {
          "details": "Indicates a failure with the token `receiver`. Used in transfers.",
          "params": {
            "receiver": "Address to which tokens are being transferred."
          }
        }
      ],
      "ERC721InvalidSender(address)": [
        {
          "details": "Indicates a failure with the token `sender`. Used in transfers.",
          "params": {
            "sender": "Address whose tokens are being transferred."
          }
        }
      ],
      "ERC721NonexistentToken(uint256)": [
        {
          "details": "Indicates a `tokenId` whose `owner` is the zero address.",
          "params": {
            "tokenId": "Identifier number of a token."
          }
        }
      ]
    },
    "events": {
      "Approval(address,address,uint256)": {
        "details": "Emitted when `owner` enables `approved` to manage the `tokenId` token."
      },
      "ApprovalForAll(address,address,bool)": {
        "details": "Emitted when `owner` enables or disables (`approved`) `operator` to manage all of its assets."
      },
      "Transfer(address,address,uint256)": {
        "details": "Emitted when `tokenId` token is transferred from `from` to `to`."
      }
    },
    "kind": "dev",
    "methods": {
      "approve(address,uint256)": {
        "details": "See {IERC721-approve}."
      },
      "balanceOf(address)": {
        "details": "See {IERC721-balanceOf}."
      },
      "getApproved(uint256)": {
        "details": "See {IERC721-getApproved}."
      },
      "isApprovedForAll(address,address)": {
        "details": "See {IERC721-isApprovedForAll}."
      },
      "name()": {
        "details": "See {IERC721Metadata-name}."
      },
      "ownerOf(uint256)": {
        "details": "See {IERC721-ownerOf}."
      },
      "safeTransferFrom(address,address,uint256)": {
        "details": "See {IERC721-safeTransferFrom}."
      },
      "safeTransferFrom(address,address,uint256,bytes)": {
        "details": "See {IERC721-safeTransferFrom}."
      },
      "setApprovalForAll(address,bool)": {
        "details": "See {IERC721-setApprovalForAll}."
      },
      "supportsInterface(bytes4)": {
        "details": "See {IERC165-supportsInterface}."
      },
      "symbol()": {
        "details": "See {IERC721Metadata-symbol}."
      },
      "tokenURI(uint256)": {
        "details": "See {IERC721Metadata-tokenURI}."
      },
      "transferFrom(address,address,uint256)": {
        "details": "See {IERC721-transferFrom}."
      }
    },
    "version": 1
  },
  "userdoc": {
    "kind": "user",
    "methods": {},
    "version": 1
  },
  "storageLayout": {
    "storage": [
      {
        "astId": 169,
        "contract": "contracts/Main.sol:Main",
        "label": "_name",
        "offset": 0,
        "slot": "0",
        "type": "t_string_storage"
      },
      {
        "astId": 171,
        "contract": "contracts/Main.sol:Main",
        "label": "_symbol",
        "offset": 0,
        "slot": "1",
        "type": "t_string_storage"
      },
      {
        "astId": 175,
        "contract": "contracts/Main.sol:Main",
        "label": "_owners",
        "offset": 0,
        "slot": "2",
        "type": "t_mapping(t_uint256,t_address)"
      },
      {
        "astId": 179,
        "contract": "contracts/Main.sol:Main",
        "label": "_balances",
        "offset": 0,
        "slot": "3",
        "type": "t_mapping(t_address,t_uint256)"
      },
      {
        "astId": 183,
        "contract": "contracts/Main.sol:Main",
        "label": "_tokenApprovals",
        "offset": 0,
        "slot": "4",
        "type": "t_mapping(t_uint256,t_address)"
      },
      {
        "astId": 189,
        "contract": "contracts/Main.sol:Main",
        "label": "_operatorApprovals",
        "offset": 0,
        "slot": "5",
        "type": "t_mapping(t_address,t_mapping(t_address,t_bool))"
      },
      {
        "astId": 6199,
        "contract": "contracts/Main.sol:Main",
        "label": "students",
        "offset": 0,
        "slot": "6",
        "type": "t_mapping(t_address,t_struct(Student)7321_storage)"
      },
      {
        "astId": 6203,
        "contract": "contracts/Main.sol:Main",
        "label": "verifiers",
        "offset": 0,
        "slot": "7",
        "type": "t_array(t_struct(Verifier)7330_storage)dyn_storage"
      },
      {
        "astId": 6207,
        "contract": "contracts/Main.sol:Main",
        "label": "projects",
        "offset": 0,
        "slot": "8",
        "type": "t_array(t_struct(Project)7312_storage)dyn_storage"
      },
      {
        "astId": 6211,
        "contract": "contracts/Main.sol:Main",
        "label": "achievements",
        "offset": 0,
        "slot": "9",
        "type": "t_array(t_struct(Achievement)6185_storage)dyn_storage"
      },
      {
        "astId": 6215,
        "contract": "contracts/Main.sol:Main",
        "label": "currentProjectMVP",
        "offset": 0,
        "slot": "10",
        "type": "t_mapping(t_uint256,t_address)"
      },
      {
        "astId": 6219,
        "contract": "contracts/Main.sol:Main",
        "label": "currentProjectMostAchievementsCount",
        "offset": 0,
        "slot": "11",
        "type": "t_mapping(t_uint256,t_uint256)"
      },
      {
        "astId": 6225,
        "contract": "contracts/Main.sol:Main",
        "label": "projectVerifierExists",
        "offset": 0,
        "slot": "12",
        "type": "t_mapping(t_uint256,t_mapping(t_address,t_bool))"
      },
      {
        "astId": 6231,
        "contract": "contracts/Main.sol:Main",
        "label": "verifierAlreadyVerifiedAchievement",
        "offset": 0,
        "slot": "13",
        "type": "t_mapping(t_address,t_mapping(t_uint256,t_bool))"
      },
      {
        "astId": 6237,
        "contract": "contracts/Main.sol:Main",
        "label": "projectStudentExists",
        "offset": 0,
        "slot": "14",
        "type": "t_mapping(t_uint256,t_mapping(t_address,t_bool))"
      },
      {
        "astId": 6241,
        "contract": "contracts/Main.sol:Main",
        "label": "myParticipatedProjectsCount",
        "offset": 0,
        "slot": "15",
        "type": "t_mapping(t_address,t_uint256)"
      },
      {
        "astId": 6245,
        "contract": "contracts/Main.sol:Main",
        "label": "myOwnedProjectsCount",
        "offset": 0,
        "slot": "16",
        "type": "t_mapping(t_address,t_uint256)"
      },
      {
        "astId": 6249,
        "contract": "contracts/Main.sol:Main",
        "label": "myVerificationProjectsCount",
        "offset": 0,
        "slot": "17",
        "type": "t_mapping(t_address,t_uint256)"
      },
      {
        "astId": 6253,
        "contract": "contracts/Main.sol:Main",
        "label": "myUnverifiedAchievementsCount",
        "offset": 0,
        "slot": "18",
        "type": "t_mapping(t_address,t_uint256)"
      },
      {
        "astId": 6257,
        "contract": "contracts/Main.sol:Main",
        "label": "myVerifiedAchievementsCount",
        "offset": 0,
        "slot": "19",
        "type": "t_mapping(t_address,t_uint256)"
      },
      {
        "astId": 6261,
        "contract": "contracts/Main.sol:Main",
        "label": "myStudentAchievementsCount",
        "offset": 0,
        "slot": "20",
        "type": "t_mapping(t_address,t_uint256)"
      },
      {
        "astId": 6267,
        "contract": "contracts/Main.sol:Main",
        "label": "myVerifiedStudentAchievementsCountByProject",
        "offset": 0,
        "slot": "21",
        "type": "t_mapping(t_address,t_mapping(t_uint256,t_uint256))"
      },
      {
        "astId": 6271,
        "contract": "contracts/Main.sol:Main",
        "label": "nftsAchievements",
        "offset": 0,
        "slot": "22",
        "type": "t_mapping(t_uint256,t_uint256)"
      },
      {
        "astId": 6274,
        "contract": "contracts/Main.sol:Main",
        "label": "projectCounter",
        "offset": 0,
        "slot": "23",
        "type": "t_uint256"
      },
      {
        "astId": 6277,
        "contract": "contracts/Main.sol:Main",
        "label": "achievementCounter",
        "offset": 0,
        "slot": "24",
        "type": "t_uint256"
      },
      {
        "astId": 6279,
        "contract": "contracts/Main.sol:Main",
        "label": "_nextTokenId",
        "offset": 0,
        "slot": "25",
        "type": "t_uint256"
      }
    ],
    "types": {
      "t_address": {
        "encoding": "inplace",
        "label": "address",
        "numberOfBytes": "20"
      },
      "t_array(t_struct(Achievement)6185_storage)dyn_storage": {
        "base": "t_struct(Achievement)6185_storage",
        "encoding": "dynamic_array",
        "label": "struct Achievement[]",
        "numberOfBytes": "32"
      },
      "t_array(t_struct(Project)7312_storage)dyn_storage": {
        "base": "t_struct(Project)7312_storage",
        "encoding": "dynamic_array",
        "label": "struct Project[]",
        "numberOfBytes": "32"
      },
      "t_array(t_struct(Verifier)7330_storage)dyn_storage": {
        "base": "t_struct(Verifier)7330_storage",
        "encoding": "dynamic_array",
        "label": "struct Verifier[]",
        "numberOfBytes": "32"
      },
      "t_bool": {
        "encoding": "inplace",
        "label": "bool",
        "numberOfBytes": "1"
      },
      "t_mapping(t_address,t_bool)": {
        "encoding": "mapping",
        "key": "t_address",
        "label": "mapping(address => bool)",
        "numberOfBytes": "32",
        "value": "t_bool"
      },
      "t_mapping(t_address,t_mapping(t_address,t_bool))": {
        "encoding": "mapping",
        "key": "t_address",
        "label": "mapping(address => mapping(address => bool))",
        "numberOfBytes": "32",
        "value": "t_mapping(t_address,t_bool)"
      },
      "t_mapping(t_address,t_mapping(t_uint256,t_bool))": {
        "encoding": "mapping",
        "key": "t_address",
        "label": "mapping(address => mapping(uint256 => bool))",
        "numberOfBytes": "32",
        "value": "t_mapping(t_uint256,t_bool)"
      },
      "t_mapping(t_address,t_mapping(t_uint256,t_uint256))": {
        "encoding": "mapping",
        "key": "t_address",
        "label": "mapping(address => mapping(uint256 => uint256))",
        "numberOfBytes": "32",
        "value": "t_mapping(t_uint256,t_uint256)"
      },
      "t_mapping(t_address,t_struct(Student)7321_storage)": {
        "encoding": "mapping",
        "key": "t_address",
        "label": "mapping(address => struct Student)",
        "numberOfBytes": "32",
        "value": "t_struct(Student)7321_storage"
      },
      "t_mapping(t_address,t_uint256)": {
        "encoding": "mapping",
        "key": "t_address",
        "label": "mapping(address => uint256)",
        "numberOfBytes": "32",
        "value": "t_uint256"
      },
      "t_mapping(t_uint256,t_address)": {
        "encoding": "mapping",
        "key": "t_uint256",
        "label": "mapping(uint256 => address)",
        "numberOfBytes": "32",
        "value": "t_address"
      },
      "t_mapping(t_uint256,t_bool)": {
        "encoding": "mapping",
        "key": "t_uint256",
        "label": "mapping(uint256 => bool)",
        "numberOfBytes": "32",
        "value": "t_bool"
      },
      "t_mapping(t_uint256,t_mapping(t_address,t_bool))": {
        "encoding": "mapping",
        "key": "t_uint256",
        "label": "mapping(uint256 => mapping(address => bool))",
        "numberOfBytes": "32",
        "value": "t_mapping(t_address,t_bool)"
      },
      "t_mapping(t_uint256,t_uint256)": {
        "encoding": "mapping",
        "key": "t_uint256",
        "label": "mapping(uint256 => uint256)",
        "numberOfBytes": "32",
        "value": "t_uint256"
      },
      "t_string_storage": {
        "encoding": "bytes",
        "label": "string",
        "numberOfBytes": "32"
      },
      "t_struct(Achievement)6185_storage": {
        "encoding": "inplace",
        "label": "struct Achievement",
        "members": [
          {
            "astId": 6170,
            "contract": "contracts/Main.sol:Main",
            "label": "achievementId",
            "offset": 0,
            "slot": "0",
            "type": "t_uint256"
          },
          {
            "astId": 6172,
            "contract": "contracts/Main.sol:Main",
            "label": "description",
            "offset": 0,
            "slot": "1",
            "type": "t_string_storage"
          },
          {
            "astId": 6174,
            "contract": "contracts/Main.sol:Main",
            "label": "isAchievement",
            "offset": 0,
            "slot": "2",
            "type": "t_bool"
          },
          {
            "astId": 6176,
            "contract": "contracts/Main.sol:Main",
            "label": "studentWallet",
            "offset": 1,
            "slot": "2",
            "type": "t_address"
          },
          {
            "astId": 6178,
            "contract": "contracts/Main.sol:Main",
            "label": "projectId",
            "offset": 0,
            "slot": "3",
            "type": "t_uint256"
          },
          {
            "astId": 6180,
            "contract": "contracts/Main.sol:Main",
            "label": "verifiedCount",
            "offset": 0,
            "slot": "4",
            "type": "t_uint256"
          },
          {
            "astId": 6182,
            "contract": "contracts/Main.sol:Main",
            "label": "isVerified",
            "offset": 0,
            "slot": "5",
            "type": "t_bool"
          },
          {
            "astId": 6184,
            "contract": "contracts/Main.sol:Main",
            "label": "nftTokenId",
            "offset": 0,
            "slot": "6",
            "type": "t_uint256"
          }
        ],
        "numberOfBytes": "224"
      },
      "t_struct(Project)7312_storage": {
        "encoding": "inplace",
        "label": "struct Project",
        "members": [
          {
            "astId": 7299,
            "contract": "contracts/Main.sol:Main",
            "label": "projectId",
            "offset": 0,
            "slot": "0",
            "type": "t_uint256"
          },
          {
            "astId": 7301,
            "contract": "contracts/Main.sol:Main",
            "label": "title",
            "offset": 0,
            "slot": "1",
            "type": "t_string_storage"
          },
          {
            "astId": 7303,
            "contract": "contracts/Main.sol:Main",
            "label": "description",
            "offset": 0,
            "slot": "2",
            "type": "t_string_storage"
          },
          {
            "astId": 7305,
            "contract": "contracts/Main.sol:Main",
            "label": "deadlineTimestamp",
            "offset": 0,
            "slot": "3",
            "type": "t_uint256"
          },
          {
            "astId": 7307,
            "contract": "contracts/Main.sol:Main",
            "label": "owner",
            "offset": 0,
            "slot": "4",
            "type": "t_address"
          },
          {
            "astId": 7309,
            "contract": "contracts/Main.sol:Main",
            "label": "isPublic",
            "offset": 20,
            "slot": "4",
            "type": "t_bool"
          },
          {
            "astId": 7311,
            "contract": "contracts/Main.sol:Main",
            "label": "requiredVerificationsCount",
            "offset": 0,
            "slot": "5",
            "type": "t_uint256"
          }
        ],
        "numberOfBytes": "192"
      },
      "t_struct(Student)7321_storage": {
        "encoding": "inplace",
        "label": "struct Student",
        "members": [
          {
            "astId": 7318,
            "contract": "contracts/Main.sol:Main",
            "label": "wallet",
            "offset": 0,
            "slot": "0",
            "type": "t_address"
          },
          {
            "astId": 7320,
            "contract": "contracts/Main.sol:Main",
            "label": "isStudent",
            "offset": 20,
            "slot": "0",
            "type": "t_bool"
          }
        ],
        "numberOfBytes": "32"
      },
      "t_struct(Verifier)7330_storage": {
        "encoding": "inplace",
        "label": "struct Verifier",
        "members": [
          {
            "astId": 7327,
            "contract": "contracts/Main.sol:Main",
            "label": "wallet",
            "offset": 0,
            "slot": "0",
            "type": "t_address"
          },
          {
            "astId": 7329,
            "contract": "contracts/Main.sol:Main",
            "label": "isVerifier",
            "offset": 20,
            "slot": "0",
            "type": "t_bool"
          }
        ],
        "numberOfBytes": "32"
      },
      "t_uint256": {
        "encoding": "inplace",
        "label": "uint256",
        "numberOfBytes": "32"
      }
    }
  }
}